:100000000C94E7060C9404070C9404070C94313309
:100010000C9404070C9404070C9404070C94040734
:100020000C9404070C9404070C9471300C9449311F
:100030000C94FF160C9404070C9404070C9404070A
:100040000C9404070C9404070C9404070C94040704
:100050000C9404070C944D300C9404070C94040782
:100060000C9404070C9404070C9404070C940407E4
:100070000C9404070C9404070C9404070C940407D4
:100080000C9404070C9404070C9404070C940407C4
:100090000C9404070C9404070C9404070C940407B4
:1000A0000C9404070C9404070C940407050109023E
:1000B000A10185020901A1000509190129081500FE
:1000C0002501950875018102050109300931158165
:1000D000257F95027508810609381581257F9501D0
:1000E00075088106050C0A38021581257F95017572
:1000F000088106C0C005010980A101850319012AF4
:10010000B700150126B700950175108100C0050CD8
:100110000901A101850419012AA002150126A002E6
:10012000950175108100C00660FF0961A101096297
:10013000150026FF00952075088102096315002629
:10014000FF00952075089102C005010906A101056F
:100150000719E029E7150025019508750181029529
:1001600001750881010507190029FF150026FF0008
:100170009506750881000508190129051500250156
:10018000950575019102950175039101C000AF00BD
:10019000AE09025B00030100A0FA0904000001039C
:1001A000010100092111010001224400070581031A
:1001B00008000109040100020300000009211101E7
:1001C0000001222200070582032000010705030326
:1001D00020000109040200010300000009211101AF
:1001E0000001227B000705840320000112010002A8
:1001F00000000008444D44520001010200010C03BC
:100200005200650064006F0078000000140346008F
:1002100061006C00620061007400650063006800AA
:1002200000000403090400001E001F00200021003C
:10023000220000002B0014001A000800150017000F
:100240002F00290004001600070009000A00000022
:10025000E1001D001B000600190005004E00E30030
:1002600057005600215222522A004C00000027005D
:10027000260025002400230023522E001300120024
:100280000C0018001C003000340033000F000E007A
:100290000D000B000000E5003800370036001000AC
:1002A00011004A004F00520051005000E6002C009F
:1002B0002800000000000000000000000000000016
:1002C000000000000000000000000000000001002D
:1002D0003A003B003C003D003E00010001001E02D0
:1002E0001F022F0230023102010001002002210210
:1002F0002F003000350001000100220223022602F7
:100300002702350201000100010001000100010087
:1003100001000100000043004200410040003F0096
:10032000010000005600610060005F005400010001
:10033000000057005E005D005C00550001000000F9
:1003400058005B005A0059000000010000005800EE
:100350006300620062000100010000000000000074
:10036000000000000000000000000000000000008D
:100370000000000000000100010001000100010078
:100380000100010000000000CD000000D9000000C5
:1003900001000000CF00CE00D000DA000000010014
:1003A000000000000000000000000000010000004C
:1003B000000000000000D100D20001000100010097
:1003C0000100010001000100010000000000000028
:1003D0000000000000000100000000004F0052007B
:1003E000510050000000000000000000000000006C
:1003F00000000100000000000000000000000100FB
:1004000001000000000000000000000000000000EB
:1004100000000000000000000000000000000000DC
:100420003A003B003C003D003E0000000000007C24
:1004300000000000000000000000000000000000BC
:1004400000000000000001000000000000000000AB
:10045000000000000000000000000000000000009C
:1004600000000000000043004200410040003F0047
:10047000000000000000000000000000000000007C
:10048000000000000000000000000000010000006B
:10049000000000000000000000000000000000005C
:1004A000000000000000000000000000000000004C
:1004B000000000000000000000000000000000003C
:1004C000000000000000A900AA004B004E0001003F
:1004D0000100010001002378247825782678277808
:1004E0002878217822780000000000000000000039
:1004F0000080E0F0F0C0103CFCF0E0800000000064
:1005000000000000000000000000000000C0F0FC3F
:100510007E1F8FE3F7FF3FFCF0E38F3FFEFCF0C050
:100520000000000000000000C0E0F87E3F8FC3F133
:10053000FC7E7F777170707073777F7E7871777FC4
:100540007F7E786040000001010101080E0F0F0F4F
:100550000E0E0E0E0E0E0E0E0E0E0E0E0E0E0E0EBB
:100560000E0E0E0C00004350534C4B000A0A00556F
:100570006E646566005261697365004C6F776572E1
:1005800000426173650A004C41594552000A0A0055
:100590004D6F6400436C6D6B0A00517772740A00F2
:1005A0000A0A00534F464C450007087F0807003EE3
:1005B0005B4F5B3E003E6B4F6B3E001C3E7C3E1C27
:1005C00000183C7E3C18001C577D571C001C5E7FA9
:1005D0005E1C0000183C180000FFE7C3E7FF0000A6
:1005E0001824180000FFE7DBE7FF0030483A060E4A
:1005F00000262979292600407F05050700407F0550
:10060000253F005A3CE73C5A007F3E1C1C0800086E
:100610001C1C3E7F0014227F2214005F5F005F5F7E
:100620000006097F017F00006689956A00606060AE
:1006300060600094A2FFA2940008047E04080010E9
:10064000207E20100008082A1C0800081C2A080820
:10065000001E10101010000C1E0C1E0C0030383E36
:10066000383000060E3E0E060000000000000000BC
:10067000005F000000000700070000147F147F14D3
:1006800000242A7F2A120023130864620036495688
:10069000205000000807030000001C224100000059
:1006A00041221C00002A1C7F1C2A0008083E080862
:1006B0000000807030000008080808080000006092
:1006C0006000002010080402003E5149453E000031
:1006D000427F4000007249494946002141494D335B
:1006E000001814127F10002745454539003C4A493F
:1006F0004931004121110907003649494936004670
:100700004949291E00000014000000004034000088
:100710000000081422410014141414140000412293
:100720001408000201590906003E415D594E007C43
:100730001211127C007F49494936003E4141412255
:10074000007F4141413E007F49494941007F0909FD
:100750000901003E41415173007F0808087F0000F5
:10076000417F4100002040413F01007F08142241A9
:10077000007F40404040007F021C027F007F040851
:10078000107F003E4141413E007F09090906003EBD
:100790004151215E007F0919294600264949493205
:1007A0000003017F0103003F4040403F001F204005
:1007B000201F003F4038403F0063140814630003CB
:1007C00004780403006159494D4300007F414141D1
:1007D00000020408102000004141417F0004020192
:1007E0000204004040404040000003070800002091
:1007F00054547840007F2844443800384444442806
:1008000000384444287F0038545454180000087EAF
:1008100009020018A4A49C78007F08040478000052
:10082000447D4000002040403D00007F10284400EF
:100830000000417F4000007C04780478007C0804BC
:10084000047800384444443800FC18242418001864
:10085000242418FC007C0804040800485454542440
:100860000004043F4424003C4040207C001C204005
:10087000201C003C4030403C004428102844004CE0
:100880009090907C004464544C4400000836410031
:10089000000000770000000041360800000201025D
:1008A0000402003C2623263C00000000000000401B
:1008B0004040F0F8F8FF38FFF8F83FF8F8FF38FF4D
:1008C000F8F8F040404000000000000080C0C0C0C8
:1008D000800000C0C08000000080C0C000C0C00018
:1008E0000080C0C00000000000C0C0C0C0C000C088
:1008F000C000000000000000000000000000000038
:1009000000000000000000000000000000000000E7
:1009100000000000000000000000000000000000D7
:100920000000000000000000C0F0F8FC3E1E0601C0
:100930000000007F4141417F007F4141417F000035
:1009400080C0E07E5B4F5BFEC00000C000DCD7DEF5
:10095000DEDED7DC00C00000000000000000000068
:10096000000000000000000000000000000000493E
:100970004949FFFFFFFFE0DFBFBF00BFBFDFE0FF70
:10098000FFFFFF49494900000000001F3F6060E091
:10099000BF1F007F7F071E381E077F7F007F7F0EEF
:1009A0001F3B716000000000007F7F0C0C0C007E7C
:1009B0007E007F7E0303007F7E03037E7E03037F32
:1009C0007E000F3E703C063C703E0F00327B494972
:1009D0003F7E007F7E0303001E3F69696F26000093
:1009E0000000000000000000030F1F3F3C78706013
:1009F0000000007F4141417F007F4141417F003045
:100A00007B7F7830202030787F3B0003000F7F0F02
:100A10000F0F7F0F00030000000000000000000027
:100A200000000000000000000000000000000001C5
:100A30000101070F0F7F0F7F0F0F7E0F0F7F0F7FBB
:100A40000F0F07010101000000000000000000007E
:100A50000101000000000000000000000000000094
:100A60000000000000000000000000000000000086
:100A70000000000000000000000000000000000076
:100A80000000000000000000000000000000000066
:100A90000000000000000000000000000000000056
:100AA0000000000000000000000000000000000046
:100AB0000000000000000000000000000000000036
:100AC0000000000000000000000000000000000026
:100AD0000000000000000000000000000000000016
:100AE0000000000000000000002223252628292AFB
:100AF0002C2D2F3032333536383A3B3D3E40424381
:100B00004547494A4C4E5051535557595A5C5E60BF
:100B100062646668696B6D6F71737577797B7D7FD1
:100B200081838587898A8C8E90929496989A9C9ED0
:100B30009FA1A3A5A7A8AAACAEAFB1B3B4B6B8B9EC
:100B4000BBBCBEBFC1C2C3C5C6C7C9CACBCCCDCE54
:100B5000D0D1D2D2D3D4D5D6D7D7D8D9D9DADADB37
:100B6000DBDBDCDCDCDCDCDDDDDDDDDCDCDCDCDCC3
:100B7000DBDBDBDADAD9D9D8D7D7D6D5D4D3D2D202
:100B8000D1D0CECDCCCBCAC9C7C6C5C3C2C1BFBEEA
:100B9000BCBBB9B8B6B4B3B1AFAEACAAA8A7A5A355
:100BA000A19F9E9C9A98969492908E8C8A89878514
:100BB00083817F7D7B79777573716F6D6B696866F3
:100BC0006462605E5C5A5957555351504E4C4A49C5
:100BD00047454342403E3D3B3A3836353332302F6D
:100BE0002D2C2A292826252322FFAA7F55400001E3
:100BF00001010101010101010202020202020202DD
:100C000002030303030303030304040404040404AE
:100C10000505050505060606060607070707070872
:100C2000080808090909090A0A0A0B0B0B0C0C0C25
:100C30000D0D0D0E0E0E0F0F0F10101111111212BF
:100C400013131414151516161717181819191A1A3C
:100C50001B1B1C1D1D1E1E1F20202122222324249D
:100C6000252626272829292A2B2C2D2D2E2F3031D9
:100C70003232333435363738393A3B3C3D3E3F40EB
:100C80004142434445464748494A4C4D4E4F5051D6
:100C90005354555658595A5B5D5E5F616264656690
:100CA00068696B6C6D6F7072737577787A7B7D7E17
:100CB0008082838587888A8C8E8F91939596989A67
:100CC0009C9EA0A2A3A5A7A9ABADAFB1B3B5B7BA7F
:100CD000BCBEC0C2C4C6C9CBCDCFD1D4D6D8DBDD53
:100CE000DFE2E4E7E9EBEEF0F3F5F8FAFDFF00DA16
:100CF0000281FFD9F1DB20A4A62EAF00A0C0D30053
:100D000000A1C8D30000AED580A81F408D142000DC
:100D10001E0F05643214783C1E1E140A05000000E4
:100D200000000000000000000000000000000000C3
:100D300000000000000000000000000000000000B3
:100D4000007E0F00D4FFFFFFC70000007800000006
:100D500000000000002A2B28000000000000000016
:100D6000000000000000000029000000002C1E34DC
:100D700020212224342627252E362D3738271E1FE2
:100D8000202122232425263333362E37381F04050D
:100D9000060708090A0B0C0D0E0F1011121314157B
:100DA000161718191A1B1C1D2F3130232D35040559
:100DB000060708090A0B0C0D0E0F1011121314155B
:100DC000161718191A1B1C1D2F3130354C00112411
:100DD0001FBECFEFDAE0DEBFCDBF25E0AEEDB1E064
:100DE00001C01D92AE3BB207E1F711E0A0E0B1E017
:100DF000E4E7FDE602C005900D92AE3DB107D9F7DC
:100E00000E9487290C943D360C940000982F8295FF
:100E10008F70882311F0982F84E0292F269526952E
:100E2000222311F08E5F922F969591118F5F089576
:100E300080937705089580937805089521E030E048
:100E400001C0220F8A95EAF780917805822B0E94D3
:100E50001B07089521E030E0A90102C0440F551F8F
:100E60008A95E2F7CA0180959091780589230E94BE
:100E70001B0708959B01677091E001C0990F6A9567
:100E8000EAF763E0369527956A95E1F7B901660FB1
:100E9000771F260F371FFA01E20FF31F40E050E0E3
:100EA000682F70E08191DF0111979B01042E02C031
:100EB000369527950A94E2F7217021952827292352
:100EC00028272C934F5F5F4F4330510559F7089502
:100ED0009C01A82FA77083E0369527958A95E1F7A6
:100EE000C901880F991F820F931FFB01E80FF91F9B
:100EF00040E050E080E0219130E00A2E02C03695BB
:100F000027950A94E2F721703327042E01C0220F9F
:100F10000A94EAF7822B4F5F5F4F4330510559F730
:100F20000895282F862F9C3070F4273058F4622FB4
:100F300070E027E0929F600D711D11244DE355E094
:100F40000E943A0708959C5F9230E0F7622F70E0AC
:100F50004AE355E0F5CF292F9C3068F4873090F4B0
:100F600090E06DE375E037E0239F800D911D112423
:100F70000E94680708952C5F223020F46AE375E030
:100F800090E0F6CF80E008959091780521E030E080
:100F9000F90101C0EE0F8A95EAF7D90102C0AA0F44
:100FA000BB1F6A95E2F7EA2B01C0220F4A95EAF7C8
:100FB000892F8E23E81305C0892F822B0E941B07DF
:100FC00008952095822F8923F9CF80917E059091F5
:100FD0007D05981301C008958F5F8770FACF9091B7
:100FE00079058095892380937905282F2770211111
:100FF0000DC0891759F090917B0592FF07C0869527
:10100000869586950E942A07109279050895982F53
:101010009095809174058923809374050895803E8E
:101020009105D1F1C8F48133910509F47FC048F4EA
:101030008932910509F46FC08A32910509F47DC0A7
:10104000089589339105E1F082389105C9F085331F
:10105000910509F45BC00895843E9105D1F148F4EF
:10106000823E910531F1833E910541F181EE90E0A0
:101070000895863E9105C1F1873E9105E1F10895FD
:1010800020917A052370211165C020917B0523FFF3
:1010900014C089E290E0089520917A0520FD43C0B4
:1010A00030917B0530FF09C024FF4EC080E090E006
:1010B000089520917A0522FDF7CF089520917A05B1
:1010C00022FD45C030917B0530FD44C024FFF5CFA3
:1010D000EDCF20917B0521FFF0CF80917A0584FD33
:1010E000E5CF87EE90E0089520917A0523FFE5CFC4
:1010F00024FDDCCFF6CF20917A0523FD2EC0309160
:101100007B0531FFE3CF84EE90E0089520917A05CE
:1011100025FFD3CFBECF20917A0525FD21C0209198
:101120007B0523FFCACF89E390E0089520917A05DB
:1011300026FFC3CF8AE290E0089520917A0526FF2A
:10114000BCCF81E390E0089583EE90E0089582EEB5
:1011500090E0089580EE90E0089586EE90E0089586
:1011600085E390E0AACF90917A0592FF10C041E00C
:10117000282F2471243009F040E031E0282F287115
:10118000283009F030E0431711F02CE0822793FF5C
:1011900010C041E0282F2471243109F040E031E0F3
:1011A000282F2871283109F030E0431711F02CE086
:1011B000822730917B0530FF10C051E0282F21712C
:1011C000213009F050E041E0282F2871283009F043
:1011D00040E0541711F029E0822731FF10C041E0B0
:1011E000282F2171213109F040E031E0282F2871AA
:1011F000283109F030E0431711F029E0822794FDEF
:10120000877E08951F93CF93DF930E940F08EC0110
:10121000811522E5920708F053C0811540E5940737
:1012200008F0DDC0803E9105F8F48D3C910508F092
:10123000AEC0883A910580F4853A910508F099C0CE
:101240008130910521F00497813A910550F4CE0147
:10125000DF91CF911F910895885A91094B9708F417
:101260008BC0C0E0D0E0F3CF811550E49507F8F4CF
:10127000C11580E2D80708F0CBC0C83ED10538F3CD
:10128000CE019A9581159F4160F78D2F0E94B3087A
:10129000182FCE0199270E940F08212F30E0322FFE
:1012A0002227E901CC27DF71C82BD92BD0CF992772
:1012B0000E940F08CC27DF70C82BD92BD06AC7CF6C
:1012C000803842E59407C8F5803652E5950708F066
:1012D00067C0C03482E5D807B0F08C2F869586951C
:1012E000877020E2829FC0011124C37021E030E0AA
:1012F000A90102C0440F551FCA95E2F7EA01C82BA5
:10130000D92BDC68A4CFC03252E5D50708F041C024
:101310008C2F8695869520E2829FC0011124C37090
:1013200021E030E0A90102C0440F551FCA95E2F741
:10133000EA01C82BD92BDD688ACF803C52E595079E
:1013400060F48F71C03AD24508F03FC090E0982F0A
:101350008827EC01C46FD06A7ACF805C9245809771
:1013600008F07FCFDC2FCC27CC27DF71C06FD06A8D
:101370006ECFA497D0646BCFC85AD0E0CC0FDD1FDE
:10138000C855DE4F0990D881C02DD46460CFD06598
:101390005ECFCF71D0E0DC2FCC27C16FD06A57CFA2
:1013A00086958695877020E2829FC0011124C370C4
:1013B00021E030E0A90102C0440F551FCA95E2F7B1
:1013C000EA01C82BD92BDA6842CF0E94B308C82F94
:1013D000D0E0DC2FCC27CC27DF71D06238CF8F71E3
:1013E0000E94B30865E0D695C7956A95E1F7CF707E
:1013F000D0E0DC2FCC27282F30E084FF05C054E05C
:10140000220F331F5A95E1F7C22BD32BD0691FCF80
:101410008D2F8F710E94B308182FCE0199270E943B
:101420000F08212F30E0322F222722273F71282B4F
:10143000392BE901D2CF80E00895F894E82FE295A6
:10144000EF70F0E041A18F7021E030E0B90102C0FF
:10145000660F771F8A95E2F7CB01962F909594231C
:1014600091A392A1892B82A3789408950895A0E076
:10147000B0E0EDE3FAE00C946834E901E42FF0E029
:10148000E251F44F61110BC0E4919E2F8E2F89839E
:10149000E8839A83CDB7DEB7EAE00C948434282F32
:1014A00030E0062F10E0F491EF2F86E0829F60017C
:1014B000839FD00C1124EE24EA94F12CC601B701CD
:1014C0000E944C34220F331F45E5469FC001479FC1
:1014D000900D1124281B390B822F880F280FC7016C
:1014E000801B910BF89FA001F99F500D1124952F9F
:1014F000209F5001219FB00C1124AB2CBB24D7019D
:10150000AA19BB095D01FA9DD001FB9DB00D112404
:101510008B2F5701A21AB1089501209F5001219FDE
:10152000B00C309FB00C1124AB2CBB24EA18FB0884
:10153000FE9D9001FF9D300D112463307105C9F0AF
:101540001CEFC11613E0D10650F46130710509F4A7
:101550009ECF6230710589F08E2FE32F98CF6430D3
:10156000710571F066307105B9F3E52F9B2F8F2F50
:101570008ECFEB2F852F9F2F8ACF852F932F87CF4D
:10158000832FE52FF8CF80916C05843028F4837089
:10159000846080936C05089587FFFDCF83708C670E
:1015A000F8CFE9E6F5E011828281846082830895B4
:1015B000FA01882311F009950895FB01FCCFFC0185
:1015C000680F791F8FEF91E3E617F70709F4089585
:1015D0002191822728E030E087FF08C0880F892703
:1015E0002150310921153105B9F7EECF880FF8CF19
:1015F000282F35EB2303C001112497FF04C0805826
:101600009109892F089580589F4FFBCF80916005E5
:1016100080FD14C081FD14C082FD16C080915F055D
:10162000882381F08E3180F420E5829FC00111244F
:101630006EE170E00E94A334862F089584E108953E
:1016400088E2089588E0089580E508958091600516
:1016500080FD17C081FD17C082FD19C080915E0515
:10166000882399F0883298F428E0829FC0011124E1
:1016700068E270E00E94A3346115710551F0862F75
:10168000089562E0FCCF64E0FACF61E0F8CF68E053
:10169000F6CF81E0089580912C05882359F0E091E0
:1016A0003005F0913105309729F00190F081E02D5F
:1016B0000995089580E008950E944B0B0895A3E0DA
:1016C000B0E0E5E6FBE00C9470349C0180910C02E4
:1016D00090910D0282179307A1F030930D02209391
:1016E0000C02E0913005F0913105309751F083E024
:1016F00089833B832A830084F185E02DCE01019606
:1017000009952396E2E00C948C34A3E0B0E0EBE87A
:10171000FBE00C9470349C0180910A0290910B02C2
:1017200082179307A1F030930B0220930A02E091F5
:101730003005F0913105309751F084E089833B8387
:101740002A830084F185E02DCE0101960995239628
:10175000E2E00C948C34A2EEB1E0EFEF90E02D913A
:10176000821751F0EF3F19F4211101C0E92F9F5F5B
:101770009630A9F7EF3F09F408950E2E000CFF0BE9
:10178000E052FE4F82830895E2EEF1E091918913D9
:1017900003C0DF0111971C9291E0E83EF907B1F711
:1017A0000895A4E0B0E0E7EDFBE00C9470348FB74F
:1017B000F89420910C0530910D0540910E05509143
:1017C0000F0529833A834B835C838FBF69817A81BC
:1017D0008B819C812496E2E00C948C34A4E0B0E0F0
:1017E000E4EFFBE00C94703480912C05882371F0B9
:1017F0000E94D10B69837A838B839C8369817A8170
:101800008B819C812496E2E00C948C340E94D10B55
:1018100069837A838B839C83809128059091290525
:10182000A0912A05B0912B0529813A814B815C81D9
:10183000280F391F4A1F5B1F29833A834B835C8320
:10184000DDCF0E94EE0B089587E797E7909301089C
:101850008093000888E19AE00FB6F894A8958093E9
:1018600060000FBE90936000FFCF80910902089541
:101870000895FC019B018091FF0190910002861761
:10188000970740F0672B29F48091E8008E778093CA
:10189000E800C90140E0009741F4411106C0809181
:1018A000E80082FF2FC080E008952091F1042223F8
:1018B000A9F12530A9F12091E80023FD2DC0209148
:1018C000E80022FDECCF2091E80020FFE4CF30912A
:1018D000F3002091F200009719F02830310558F0FC
:1018E00041E02830310509F040E02091E8002E77F2
:1018F0002093E800D0CF41914093F10001972F5FF2
:101900003F4FE9CF8091F104882341F0853041F0C9
:101910008091E80083FFC3CF81E0089582E00895BD
:1019200083E008958091F90187FF13C08091E8005A
:1019300082FF06C08091E8008B778093E80004C0A6
:101940008091F1048111F2CF08958091F1048823F0
:10195000D9F38091E80080FFF8CF8091E8008E777E
:10196000ECCF2091E4003091E50095E6A90180914B
:10197000EC008170882331F08091E80080FF06C080
:1019800080E008952091E80022FD1BC08091F104C1
:10199000882391F0853091F08091EB0085FD10C097
:1019A0002091E4003091E5004217530701F3915074
:1019B0009111DCCF84E0089582E0089583E00895DA
:1019C00081E00895E8EDF0E080818E7F80831092C1
:1019D000E2001092DA001092E100A0EEB0E08C91EB
:1019E00081608C9380818F77808319BCA7EDB0E0F4
:1019F0008C918E7F8C9380818F7E80831092F801F2
:101A000008959091BF04989FC0011124811522E090
:101A1000920714F080E090E088549D4F9093B702B5
:101A20008093B6020895982FE42FE2709093E90016
:101A3000891308C0762F242F50E0E11111C091E0E6
:101A4000980FF4CF7091EC002091ED005091F000D0
:101A500021FD06C09F5F973049F78093E900089504
:101A60003091EB003E7F3093EB003091ED003D7FF5
:101A70003093ED003091EB0031603093EB007093C8
:101A8000EC002093ED005093F0002091EE0027FD34
:101A9000E1CF0895A0E0B0E0E0E5FDE00C946A3409
:101AA000C8EDD0E088818F7E8883E7EDF0E080810B
:101AB0008160808384E082BF81E08093F801888127
:101AC0008E7F888302EE10E0F80110821092DA0017
:101AD00081EEC82ED12CF601108288818F77888301
:101AE00088818068888388818F7D888319BC109263
:101AF000F1041092F7011092C3041092F60190EED7
:101B0000E92EF12CF70180818B7F808388818160B1
:101B1000888342E060E080E00E94130DF60180813E
:101B20008E7F8083F80180818160808380818860DE
:101B30008083F70180818E7F8083888180618883A4
:101B4000CDB7DEB7E8E00C948634E0917E05909145
:101B50007D0527E0E91302C080E00895AE2FB0E0D4
:101B60002E9FF0011124E158FA4F3181361306C03F
:101B70003081381303C03581341304C0FD01319620
:101B8000E770E8CF81E0089580916C0580FD0AC080
:101B9000ECE7F2E0118210821282339652E0E63ACC
:101BA000F507C1F7539A3BB1377F2BB128604FB788
:101BB000F8948CE792E0FC010196508168E02BB923
:101BC000000000C057FF3BB9550F000000C000C027
:101BD00000C03BB900C06A9591F752E0863A95077C
:101BE00051F74FBF8FE594E00197F1F700C0000077
:101BF0000895EF92FF921F93CF93DF93EC018CE750
:101C0000E82E82E0F82E10E08C81970140916F055C
:101C100060916E05810F0E94370A1E5E83E0E80E18
:101C2000F11C1C3F89F70E94C40D9A818C8190FFA2
:101C300008C08F5F8C83DF91CF911F91FF90EF9051
:101C400008958150F7CFA0E0B0E0E9E2FEE00C9407
:101C50006A348C01CCE7D2E020E030E0F8019481D6
:101C600060916E0580916D05A9014F5F5F4F7A010C
:101C70002730310574F4FE0133966F019E014091C7
:101C80006F05911101C040E00E94370A9701E601FB
:101C9000E5CF9E0140916F05911140E00E94370A07
:101CA00097012E30310511F02396D8CF0E94C40D34
:101CB000F801848190E00196817099278483CDB7E3
:101CC000DEB7E8E00C948634ECE6F5E080818E7FA8
:101CD00080830E94D10AE9E6F5E0828181608283F7
:101CE0000E94C40D089590916C0590FF0CC0ECE724
:101CF000F2E0818360834283339692E0E63AF9070B
:101D0000C1F70E94C40D0895A3E0B0E0EAE8FEE048
:101D10000C94703490916C0590FF0AC09E012F5F67
:101D20003F4F0E94370A4B8169818A810E94730E5E
:101D30002396E2E00C948C34CF93DF93EC01EC819A
:101D4000F0E0E751F54F4491ECE6F5E062818181E6
:101D50000E94840E8C818F5F8C83DF91CF910895D8
:101D6000CF93DF93EC01ECE6F5E0438162818C8157
:101D70000E94840E8C818F5F8C83DF91CF910895B8
:101D80000F931F93CF93DF93EB018A019091F1049E
:101D9000943079F58093E9008FEF9091E80095FDFC
:101DA00007C095ED9A95F1F7000081508111F5CFAC
:101DB0008091E80085FF1DC00E94B10C811114C004
:101DC0008091E80085FD06C08091E8008E778093C1
:101DD000E800F2CF88818093F100015011090115CC
:101DE000110511F02196ECCF8091E8008E77809359
:101DF000E800DF91CF911F910F910895CF93DF936A
:101E0000D82FC92F48E050E0682F792F81E00E9439
:101E1000C00E88E0ED2FFC2FA1E0B2E001900D9202
:101E20008A95E1F7DF91CF910895BC0146E050E03B
:101E300084E00E94C00E0895BC0143E050E084E0BD
:101E40000E94C00E0895A0E0B0E0E9E2FFE00C942B
:101E50006834F82EE92EB62EA72E8A018091F4015F
:101E6000CC24C394D12C8A3018F48AE0C82ED12C0B
:101E7000C1E0D0E06B2D7A2D8F2D9E2DF8010995B4
:101E8000811116C02196CC16DD0694F0CC9FC001BE
:101E9000CD9F900D900D112420E030E045E34A9550
:101EA000F1F700002F5F3F4F28173907B9F7E2CF4E
:101EB000CDB7DEB7EAE00C94843490917B0592FBB9
:101EC000222720F9281779F080FB92F990937B055F
:101ED00060917A0570917B0584E090E00E94C435A2
:101EE00082E00E94EF0708951F93CF93DF93962F10
:101EF000122F632F8430D8F49C30C8F44730B8F4E4
:101F0000C42FD0E0CC0FDD1F2EE0929FC00DD11D5D
:101F1000112498EA899FC00DD11D1124CE01899604
:101F20000E94A635612FCE018A960E94A635DF91C8
:101F3000CF911F9108951F93CF93DF93962F122F68
:101F4000632F8430D0F49230C0F428E0829FE00107
:101F5000112424E0929FC0011124C80FD91FC75338
:101F6000DD4FCE01442369F00E94A63581E090E068
:101F7000612F8C0F9D1F0E94A635DF91CF911F917D
:101F8000089502960E94A63583E090E0F1CF8F92EB
:101F90009F92BF92CF92DF92EF92FF920F931F9387
:101FA000CF93DF9306EC14E0E12CF12CC0E0470165
:101FB000D0E015C0F601259134914B2D6D2F8C2F5B
:101FC0000E94740F22E0C20ED11CB39437E0B3120A
:101FD000F1CF87E0880E911CDF5FDC3049F0C4014F
:101FE000880F991F9C012A5D3D4F6901B12CE2CFFA
:101FF000F8012591349141E060E08C2F0E949B0F05
:10200000F80132962591349140E060E08C2F0E94D7
:102010009B0FF80134962591349141E061E08C2FBB
:102020000E949B0FF80136962591349140E061E0C3
:102030008C2F0E949B0F085F1F4FCF5F34E5E30E8C
:10204000F11CC43009F0B3CFDF91CF911F910F91F4
:10205000FF90EF90DF90CF90BF909F908F9008956A
:10206000CF93DF93C9EED2E060E0CE010E94A635A7
:102070002196C11584E0D807B9F7DF91CF91089573
:10208000882381F064E285E290E00E94A63567E053
:1020900086E290E00E94A63561E187E290E00E942E
:1020A000A63508956FEF85E290E00E94A6356FEFA8
:1020B00086E290E00E94A6356FEFEFCF80E00E94AD
:1020C000401060E088E290E00E94A6350E94C70FB1
:1020D0000E94301081E00E94401008950F931F93DA
:1020E000CF93DF93843030F56C3020F5473010F516
:1020F000C42FD0E0CC0FDD1F2EE0629FC00DD11D9C
:10210000112438EA839FC00DD11D1124CE01899678
:102110000E948235082F10E0102F0027CE018A96EA
:102120000E9482359801282BC901DF91CF911F9120
:102130000F91089580E090E0F8CF0F931F93CF9315
:10214000DF93843078F5623068F528E0829F800163
:10215000112434E0639FB0011124060F171F0753A9
:102160001D4FC8014423A1F00E948235C82FD0E042
:10217000DC2FCC2781E090E0800F911F0E948235F8
:102180009E01282BC901DF91CF911F910F910895D6
:1021900002960E948235C82FD0E0DC2FCC2783E046
:1021A00090E0EACF80E090E0EECF7C3048F46730FA
:1021B00070F4843060F4462F672F0E946E100895EB
:1021C0007D3F41F4623018F441E0843050F080E00B
:1021D00090E008957C3FD9F76230C8F78430B8F7B3
:1021E00040E00E949D100895A0E0B0E0EAEFF0E129
:1021F0000C946B347C010091780580917705082B55
:10220000C3E0D0E010E0C8010C2E02C09595879580
:102210000A94E2F780FD09C02197A8F7D12C8D2DF3
:10222000CDB7DEB7E7E00C948734DC2EB7018C2FF6
:102230000E94D5100E940209019771F3F0CF0F930D
:102240001F93CF93FC01858100811181882391F038
:10225000662381F0C8010E94F410C82F682FC801BE
:102260000E949107B8018C2F0E94D510CF911F9129
:102270000F910895C8010E94AB07C82FF3CFCF93E9
:10228000DF93D82FC92F0E94F4106D2F7C2F0E944E
:10229000D5100E940209DF91CF910895FC0184813D
:1022A0008823A1F0808191810E943F11282F92956F
:1022B0009F70963091F060F4925F9F70923030F48E
:1022C00081E0203F79F030F4283E30F080E004C017
:1022D0009A5FF3CF243FD1F7089581E0283E18F0AC
:1022E000213FF9CF0895089585E290E00E9482355C
:1022F000843289F486E290E00E948235873059F476
:1023000087E290E00E94823591E0813109F090E00F
:10231000892F8170089580E0FCCF809174059091A1
:102320007C05892B40917505442389F090E022EECD
:1023300031E0F90150812F5F3F4F51119F5F51E014
:10234000283E3507B1F7911110927505842B8093C3
:10235000E00148E050E062E375E080EE91E00E9429
:102360006C35892BA9F088E0E0EEF1E0A2E3B5E05E
:1023700001900D928A95E1F7E0913005F0913105D9
:10238000309731F00280F381E02D80EE91E00995E5
:102390000895882339F090917405892B80937405F2
:1023A0000E948D110895882321F00E9407080E9441
:1023B0008D110895A0E0B0E0E0EEF1E10C946A34F4
:1023C0008901D42FC52F6B017C010E94C30AA8018B
:1023D0006D2F7C2F88E090E00E94B83598014D2F3A
:1023E0005C2FB601C70100E20E94DF34622F84E255
:1023F00090E00E94A635CDB7DEB7E8E00C948634B5
:10240000ECE6F5E085E0808311828FEF82838383A1
:102410001482A9E6B5E012968C9112978360129609
:102420008C93758125E030E04FEF5FEF60E08681AF
:1024300097810E94DA11089580917005833018F415
:102440008F5F8093700520916C0530916D054091F0
:102450006E0550916F0560917005709171058091C6
:102460007205909173050E94DA11089580917005AC
:10247000882319F081508093700520916C0530916C
:102480006D0540916E0550916F05609170057091DA
:10249000710580917205909173050E94DA1108957B
:1024A000A3E0B0E0E6E5F2E10C946134F82E562E9C
:1024B000E42E422E90916C0590FF42C030916D0544
:1024C000381308C080916E05861304C080916F0593
:1024D000841729F080916B05826080936B05E92F4A
:1024E000E695E695AE2FB0E0A759BE4F8C9180934C
:1024F00069059C7F943041F59E012F5F3F4F4E2D23
:10250000652D8F2D0E94370A4B8169818A810E9437
:10251000730E3F2D30936D0550926E05E0926F055E
:10252000442071F020916C056091700570917105E7
:10253000452D5E2D80917205909173050E94DA11F0
:102540002396E1E10C947D34823019F4E0906F051C
:10255000E0CF8630F9F28930E9F28F30D1F6EF50D2
:102560008E2F8170382EE695F0E0E751F44FE4911C
:102570000E2F10E08CE7C82E82E0D82E96EA892E26
:1025800092E0992EA12CB12C2EE0622E712CC50167
:10259000B3010E944C348F2D311011C0860F96016B
:1025A0004E2D652D0E94370AA00EB11E83E0C80E85
:1025B000D11C8C149D0459F70E94C40DAACF861B10
:1025C000EECFECE6F5E0818121E043816281885F16
:1025D0000E9450120895ECE6F5E0818121E04381EC
:1025E000628188500E9450120895ECE6F5E0628105
:1025F00028E0620F08F46FEF21E0438181810E949F
:1026000050120895ECE6F5E0628128E0621B08F4C0
:1026100060E021E0438181810E9450120895ECE640
:10262000F5E0438128E0420F08F44FEF21E062819A
:1026300081810E9450120895ECE6F5E0438128E084
:10264000421B08F440E021E0628181810E94501227
:102650000895A8E0B0E0EFE2F3E10C94703466EE88
:102660007EEF80E090E00E94C43560E082E090E080
:102670000E94A63581E08093770561E083E090E0D9
:102680000E94A63560E074E184E090E00E94C435C9
:1026900060E086E090E00E94A6356FEF87E090E072
:1026A0000E94A63540E050E0BA0188E090E00E9428
:1026B000B83560E084E290E00E94A63560E087E1F2
:1026C00090E00E94A63560E08CE090E00E94A63584
:1026D00060E08DE090E00E94A63519821A821B828C
:1026E0001C821D821E821F82188648E050E068E12D
:1026F00070E0CE0101960E94963540E050E0BA01AC
:1027000080E290E00E94B83580E00E9440100E9474
:102710005E1040E050E0BA018FE090E00E94B835D2
:1027200040E050E0BA0183E190E00E94B83528967D
:10273000E2E00C948C34A1E0B0E0E1EAF3E10C9427
:102740006234462E4A01522EC32E3701A82E880F1E
:10275000BB08C5010E94D733D82E882309F476C060
:10276000C50133E0880F991F3A95E1F7FC01EE5D52
:10277000FE4F2381422F50E0222311F041E050E030
:102780008E5D9E4FDC0114966D917C91605F7A4F57
:10279000CE0101960E947935F40140815181628118
:1027A00073812FB7F89480910C0590910D05A0913D
:1027B0000E05B0910F052FBF841B950BA60BB70B11
:1027C00084369105A105B10538F4B301C8010E9412
:1027D000DF0A99818917D1F1E42C042C000CFF0841
:1027E000C7010E94D733D82E811106C0D12C8D2D60
:1027F0002196E0E10C947E34C70123E0880F991FF5
:102800002A95E1F7FC01EE5DFE4F438150E064162E
:10281000750608F4A3018E5D9E4FDC0114966D9140
:102820007C91605F7A4F852D9C2D0E947935B30194
:10283000C8010E94DF0A99818913D8CF0E94D10B69
:10284000F4016083718382839383D1CFA301B801A4
:10285000852D9C2D0E947935CACFA6E0B0E0E3E338
:10286000F4E10C946A346B0186E0E82EF12C01E16E
:1028700015E09E012F5F3F4F48E055E061E080E0AA
:102880000E949B13882349F096E0FE013196A2E056
:10289000B5E001900D929A95E1F796E0E2E0F5E05F
:1028A000D60101900D929A95E1F72696E8E00C94F6
:1028B0008634A8E0B0E0EFE5F4E10C946F34409189
:1028C000F6045091F7046091F8047091F9042FB761
:1028D000F89480910C0590910D05A0910E05B09192
:1028E0000F052FBF841B950BA60BB70B11E0843689
:1028F0009105A105B10578F10E94EE0BDC01CB0139
:102900000296A11DB11D89839A83AB83BC838091FC
:10291000430190914401805F9A4F20914201422FE0
:1029200050E0253010F044E050E0BE016F5F7F4F73
:102930000E94793584E090E00E94D733182F8823D5
:1029400051F00E94D10B6093F6047093F7048093CA
:10295000F8049093F904812F2896E3E00C948B34CB
:10296000CF92DF92EF92FF92CF93DF93CDB7DEB796
:102970002B970FB6F894DEBF0FBECDBF88E0ECE614
:10298000F5E09E012F5F3F4FD90101900D928A958E
:10299000E1F74091690590916A0580916B0549873F
:1029A0009A878B87C090F204D090F304E090F404EF
:1029B000F090F5049FB7F89440910C0550910D05E7
:1029C00060910E0570910F059FBF4C195D096E094E
:1029D0007F09E22F443651056105710510F4882303
:1029E00011F180914B0190914C01805F9A4F2091A1
:1029F0004A01422F50E02C3010F04BE050E06E2F97
:102A0000732F0E94793585E090E00E94D7338823A8
:102A100069F00E94D10B6093F2047093F3048093E9
:102A2000F4049093F50410926B0581E02B960FB699
:102A3000F894DEBF0FBECDBFDF91CF91FF90EF9036
:102A4000DF90CF900895A0E0B0E0E9E2F5E10C94CA
:102A50006434FC018280648081E08483E9EEFAE0E2
:102A60009490E8E6FBE0E49100916F05069501582B
:102A700010E0000F111F012F1127C6E3D2E02CE751
:102A8000C22E22E0D22EAA24AA94B12C77247A94C2
:102A9000E919EE2EF12C82E0881530F080916D0559
:102AA000888380916E058983611017C01B821A820A
:102AB00096014A81698188810E94370A259683E0C0
:102AC000C80ED11C82E0CC37D80729F70E94C40D6C
:102AD000CDB7DEB7EEE00C9480348B818823E9F02B
:102AE00081508B83789EC00111246C8170E00E941C
:102AF0004C34FB01FF27E751F54F8491E82FE9198A
:102B00007E9EC0011124B7010E944C3480916F0554
:102B1000689FB00111247A83CBCF0E944635B5015E
:102B20000E94A334801791070CF0C2CF82E0881571
:102B300088F40E944635B5010E94A33488830E9420
:102B4000463520916E052695622F70E00E94A334D1
:102B5000280F29831A8280916F05893C20F088EC28
:102B60008C838B83A5CF8431D8F784E1F9CFA0E0A3
:102B7000B0E0EDEBF5E10C946A347C016B0164E6A6
:102B800070E088E70E949831EC0197FD12C000E0E8
:102B900010E0F701E00FF11F849164E670E00E94FD
:102BA0000732EC010F5F1F4FC016D10611F097FFDF
:102BB000F0CF0E94893281E0CD2B09F080E0CDB7C3
:102BC000DEB7E8E00C9486348091BA04882369F07B
:102BD0008091B904882349F062E070E08FE891E0C9
:102BE0000E94B71581111092B9040895A4E0B0E0D5
:102BF000ECEFF5E10C9470348091BA048823F9F07D
:102C00000E94D10BDC01CB01805A9541AF4FBF4FE1
:102C10008093BB049093BC04A093BD04B093BE0406
:102C20008091B90481110BC062E070E08DE891E001
:102C30000E94B715882319F081E08093B904249687
:102C4000E2E00C948C341F93CF93DF93982F162FD0
:102C500081E09A3019F09D3039F480E00E94B4167A
:102C6000DF91CF911F910895C091B602D091B70224
:102C700086E0FE01A0E3B2E001900D928A95E1F7B3
:102C8000903E90F186E0FE0111928A95E9F7C0919D
:102C9000B602D091B702111133C046E050E0BE0138
:102CA00080E392E00E946C359E01285B3240892BC4
:102CB00091F52A5F3F4F4091BF04642F70E0C90136
:102CC0000E944C34481B463010F4240F311D21154E
:102CD00072E0370710F020E030E028543D4F309389
:102CE000B7022093B602BCCFF6E09F9FB00111243B
:102CF00067557A4F46E050E0CE010E945635C7CF67
:102D00009E012A5F3F4FFE012E173F0731F280815F
:102D100080958193F9CFC90145E0969587954A95AD
:102D2000E1F741E050E0BA0102C0660F771F8A95D3
:102D3000E2F7CB016091B4027091B502862B972B1C
:102D4000B9016B5F7F4FE5E076956795EA95E1F70E
:102D500002C0440F551F6A95E2F7842B952B909380
:102D6000B5028093B402A5CFCF93382FE091B6027D
:102D7000F091B702E85BF2402091BF04622F70E04F
:102D8000CF010E944C34281B822F332369F066E068
:102D90000E949734C82FC15010F4CF91089560E07D
:102DA00080E20E942316F7CF9F01280F311D2115C5
:102DB000324018F080E0E0E0F0E08E0F9F2F911D90
:102DC00088549D4F9093B7028093B602E6CF1F932D
:102DD000CF93DF93EC01162FFE018491811104C083
:102DE000DF91CF911F910895612F0E9423162196A4
:102DF000F3CF0E94E71681E00E94B41608951F9257
:102E00001FB61F9211248F939F93AF93BF9380910E
:102E1000C204811113C080910C0590910D05A09101
:102E20000E05B0910F054196A11DB11D80930C05B3
:102E300090930D05A0930E05B0930F05BF91AF9130
:102E40009F918F911F901FBE1F9018952FB7F894D8
:102E500080910C0590910D05A0910E05B0910F0584
:102E60002FBF089580912C05882319F00E94261702
:102E700008950E94EE0BCB01089560916C05669554
:102E8000669570E04BE050E08CE091E00E945F3589
:102E9000892B19F481E080936A050E943217909380
:102EA000D5048093D40480916B05846080936B0576
:102EB000089590916C0590FF42C0882309F440C0AA
:102EC000803208F03FC08F73282F220F220F80918D
:102ED0006C058370282B20936C0580916B058160B5
:102EE00080936B05662381F030916D0540916E05EE
:102EF00050916F0560917005709171058091720518
:102F0000909173050E94DA1160916C056695669543
:102F100070E04BE050E08CE091E00E945F35892B3F
:102F200099F00E94D10A81E08093D70420E040917B
:102F30006F0560916E0580916D050E945012089595
:102F400081E0C2CF8FE1C0CF0E943D17ECCF8091CE
:102F50006C05869586958F5F803208F081E061E090
:102F60000E945917089590916C05969596958FEF4C
:102F7000890F913009F48FE161E00E94591708959B
:102F800090916C0590FF09C096959695981728F03A
:102F9000961718F40E94A717089561E00E94591728
:102FA00008950E9426172091630530916405232B14
:102FB000222321F08093E2049093E304209165059D
:102FC00030916605232B222321F08093E004909317
:102FD000E104E0913005F0913105309749F082E04D
:102FE000809361050680F781E02D81E695E00995E3
:102FF00008952091630590916605309165056623DB
:1030000009F45AC040916405242B292B232B222339
:1030100031F098E090935F0591E090935E058D3CD0
:1030200041F40E94060B8195809364050E94D1179C
:103030000895E2E3E80FE231C8F7F0E0E15CF94C13
:103040000C94B7340E94060BEFCF0E94060B8195BB
:1030500080936305EBCF0E94060BFACF0E94260BEC
:1030600080936505E3CF0E94260B8195F9CF0E94DE
:10307000260B819580936605D9CF0E94260BFACF47
:10308000815D990B21E030E001C0220F8A95EAF7BB
:1030900080916205822B80936205C8CF8091600584
:1030A000816080936005C2CF809160058260F9CF16
:1030B000809160058460F5CF8D3C59F48091640562
:1030C00087FF0DC010926405222359F410925F050A
:1030D00008C08E3C81F48091640518169CF322236D
:1030E00081F08091650590916605892B81119ECFB5
:1030F00010925E059BCF8F3C41F427FFF0CF1092DA
:103100006305809164058823E0CF803D19F4121691
:10311000B4F3E5CF893D29F413160CF71092650539
:10312000DECF8A3D19F437FFDACFF8CF8B3D29F493
:1031300097FFD5CF10926605D2CF8C3D19F41916A2
:10314000CCF3CDCF9FE2980F983090F4815D990B2E
:1031500041E050E0BA0102C0660F771F8A95E2F79E
:10316000CB01809590916205892380936205B7CF4A
:103170008D3D31F4809160058E7F80936005AFCFE7
:103180008E3D21F4809160058D7FF7CF8F3D09F052
:10319000A6CF809160058B7FF0CFCF93C82F882377
:1031A000C9F08238C9F40E945C0B81FD13C089E329
:1031B0000E94AB0B0E948D112FEF37EE83E0215060
:1031C00030408040E1F700C0000089E30E94C40B5A
:1031D0000E948D11CF9108958338A1F40E945C0B59
:1031E00080FDF8CF83E50E94AB0B0E948D119FEF0D
:1031F00021EE34E0915020403040E1F700C0000063
:1032000083E5E4CF8438A1F40E945C0B82FDE2CF19
:1032100087E40E94AB0B0E948D118FEF91EE24E0AA
:10322000815090402040E1F700C0000087E4CECFFD
:103230008CEF8C0F813A70F4E2EEF1E088EE91E0D1
:103240002191C217D9F18E179F07D1F78C2F0E94B9
:10325000AB0BBECF80E28C0F883068F4C77021E0E2
:1032600030E001C0220FCA95EAF780917405822BE5
:1032700080937405ADCF8BE58C0F833038F42C2F01
:103280002452330BC9010E945F0BA4CFE8E5EC0F79
:10329000EB3150F4F0E0EE0FFF1FE855FE4F808158
:1032A00091810E94850B96CF83E38C0F833108F0C8
:1032B00091CF61E08C2F0E94F9178CCF8C2F0E9448
:1032C000C40B0E948D11C2CF882309F456C08238E6
:1032D00079F40E945C0B81FF50C089E30E94AB0B24
:1032E0000E948D1189E30E94C40B0E948D110895E4
:1032F000833859F40E945C0B80FF3FC083E50E9435
:10330000AB0B0E948D1183E5EECF843859F40E94F7
:103310005C0B82FF32C087E40E94AB0B0E948D11D0
:1033200087E4E1CF9CEF980F913AE8F290E2980F92
:10333000983050F4877091E001C0990F8A95EAF7B0
:10334000892F0E940708D1CF9BE5980F933028F46E
:1033500080E090E00E945F0B089598E5980F9B3104
:1033600028F480E090E00E94850B089593E3980F85
:10337000933118F460E00E94F91708950F931F939A
:10338000CF93C82F00E010E0893311F400E510E07E
:103390008C2F0E94CD180115110539F48C2F0E9435
:1033A0006419CF911F910F9108958FE99FE00197C4
:1033B000F1F700C0000001501109EDCFCF9310923A
:1033C0007405C6E0E2EEF1E0DF018C2F1D928A95D4
:1033D000E9F780E090E00E945F0B80E090E00E94BF
:1033E000850B10927C050E948D11E1E6F5E0DF016E
:1033F0001D92CA95E9F710925F0510925E05109232
:1034000060050E94D117CF9108950E94DE192FEF19
:1034100084E39CE0215080409040E1F700C0000030
:1034200088E19AE00FB6F894A895809360000FBEEB
:1034300090936000FFCFAAE2B0E0E1E2FAE10C94E1
:103440006F3489EF91E0FC0101962091F100208317
:1034500022E081309207B9F78091FA01893009F4AE
:1034600056C0C8F4823009F4B3C0833009F482C076
:10347000813071F18091E80083FFE7C08091F9010C
:103480009091FA019A3008F0E0C0E92FF0E0EF5A8D
:10349000F94C0C94B7348A3009F489C08B3051F759
:1034A0008091F901813231F78091FD019091FE0107
:1034B000892B01F78091E800877F8093E8000E94C4
:1034C000920C8091FB01809304010E94DE19D2CFFF
:1034D0008091F901813A71F68091E800877F8093AD
:1034E000E8008091FD019091FE01892B61F060E080
:1034F00080E090E070E00E94390C8091E8008B77CA
:103500008093E800B7CF68E081E092E0F3CF80914C
:10351000F901813209F0AECF8091FD019091FE0159
:103520008D7F892B09F0A6CF8091E800877F80935B
:10353000E8008091E80082FF18C09091F30080912C
:10354000F200029731F48091F100813011F0863061
:1035500021F48091F100809309028091E8008B773B
:103560008093E8000E94920C85CF8091F104811134
:10357000E0CF80CF8091F901813A09F07BCF809133
:10358000FD019091FE01892B09F074CF8091E80034
:10359000877F8093E8008091E80080FFFCCF8091D6
:1035A00004018093F1008091E8008E77D9CF80915B
:1035B000F901813209F05ECF8091E800877F809326
:1035C000E8000E94920C8091FC018093F50152CF9B
:1035D0008091F901813A09F04DCF8091E800877F11
:1035E0008093E8008091E80080FFFCCF8091F50196
:1035F000D8CF803889F0823841F58091FD018F70F5
:10360000873018F58093E9008091EB0085FB8827CF
:1036100080F91092E90006C08091F6019091C304F0
:10362000911182609091E800977F9093E8008093D9
:10363000F1001092F1008091E8008E7723C0811193
:1036400016C08091FB01813011F18091E80083FF69
:103650000AC08091E800877F8093E8008091EB00AA
:1036600080628093EB00AA96E3E00C948B34823066
:1036700061F78091FB01882389F01092E900809125
:10368000E800877F8093E8000E94920CDECF81E003
:10369000933009F080E08093C304EFCF8091FD0167
:1036A0008F702FEF280F263080F68093E90020914D
:1036B000EB0020FFE2CF933031F48091EB00806289
:1036C0008093EB00DACF9091EB0090619093EB0048
:1036D00021E030E0A90102C0440F551F8A95E2F7AE
:1036E0004093EA001092EA008091EB008860E8CFF6
:1036F0008111ABCF1091FB011F778091E30080789F
:10370000812B8093E3008091E800877F8093E8001D
:103710000E94920C8091E80080FFFCCF8091E30032
:1037200080688093E30083E0111101C082E0809300
:10373000F1048BCF8058823008F087CF4091FB0195
:103740005091FC014C3D83E0580799F583E08A8352
:103750008AE289834FB7F894DE01139620E03EE0B9
:1037600051E2E32FF0E050935700849120FF03C013
:1037700082958F703F5F8F708A30C8F0895C90E0CF
:103780008D939D932F5F243161F74FBF8091E800A7
:10379000877F8093E8006AE270E0CE0101960E9484
:1037A000390C8091E8008B778093E8004ECF805DE4
:1037B000E6CF8091FD019091FE01252F3327233024
:1037C000310509F44AC078F52130310509F479C092
:1037D0008BE590E0E1E9F1E02230310509F035CFE9
:1037E0002091E800277F2093E8002091FF0130918D
:1037F00000028217930708F49C0140E0211531056F
:1038000009F064C0411162C08091E80082FDC9CF17
:103810008091F104882329F2853019F28091E80023
:1038200083FFF2CFBECF2132310509F43BC02232F3
:10383000310509F00ACF8330910508F006CFFC016D
:10384000EE0FFF1FEB5AFE4F0190F081E02D8E5AD4
:103850009E4FDC018C9190E011C0CA019927413044
:1038600089F082309105B1F0892B09F0EECEE2E2C9
:10387000F2E0E4918E2F90E0E2E2F2E0009709F4AA
:10388000E4CEAECFECE0F2E0E4918E2F90E0ECE0FD
:10389000F2E0F4CFEEEFF1E0E4918E2F90E0EEEF66
:1038A000F1E0ECCF8330910508F0CFCEFC01EE0FB4
:1038B000FF1FE55AFE4F0190F081E02D89E090E076
:1038C0008FCF82E190E0ECEEF1E08ACF8091F104BD
:1038D000882309F466CF853009F463CF8091E8002E
:1038E00083FD5FCF8091E80082FD8ECF8091E8005C
:1038F00080FF84CF9091F3008091F2002115310573
:1039000019F08830910550F041E0089709F040E047
:103910008091E8008E778093E80070CF44914093C7
:10392000F1003196215031090196E8CF803809F035
:103930008CCE8091E800877F8093E8008091F7012A
:103940008093F10078CE811180CE1091FB0112306E
:1039500008F07BCE8091E800877F8093E800109389
:10396000F7010E94920C1123D1F084E08093F104BE
:1039700042E061EC81E00E94130D42E261EC84E0E0
:103980000E94130D42E261EC82E00E94130D42E2BC
:1039900060EC83E00E94130D8091F10456CE80917B
:1039A000E30087FDE2CF81E0E1CF9C014FB7F894BF
:1039B00080910C0590910D05A0910E05B0910F0519
:1039C0004FBF821B930B08952F923F925F926F928D
:1039D0007F928F929F92AF92BF92CF92DF92EF929F
:1039E000FF920F931F93CF93DF9300D000D000D0AE
:1039F000CDB7DEB78091BA04882309F49FC08091C7
:103A00002E0290912F020E94D51CC29708F458C034
:103A10000E94261790932F0280932E0280E00E942E
:103A2000010D80912C05882309F4A8C060E080EA8C
:103A300095E00E94E716809177050E94060788238B
:103A400041F0813031F160E080E995E00E94E716B5
:103A500005C060E08AE995E00E94F91660E08DE813
:103A600095E00E94E71660E087E895E00E94F9166D
:103A7000809178050E940607823009F477C068F0CB
:103A8000833009F477C060E08FE695E00E94F91674
:103A900009C060E084E995E0DFCF60E081E895E06F
:103AA0000E94E71660E08CE695E00E94E7160E940F
:103AB0005C0B81FB662760F986E695E00E94F916AB
:103AC0008091B4029091B502892BA9F08091BA043B
:103AD000882389F08091B80481110DC00E94F615E9
:103AE0002091B4023091B50280E061E070E02115D0
:103AF000310509F09EC08091B9048823F9F00E9435
:103B0000D10B69837A838B839C838091BB049091D2
:103B1000BC04A091BD04B091BE0429813A814B81BF
:103B20005C81281B390B4A0B5B0BDA01C9018F3F03
:103B30009F4FAF4FBF4710F40E94E4150F900F90B6
:103B40000F900F900F900F90DF91CF911F910F91D9
:103B5000FF90EF90DF90CF90BF90AF909F908F90AD
:103B60007F906F905F903F902F90089560E08BE77B
:103B700095E096CF60E085E795E092CF83E00E94E4
:103B8000010D60E083EA95E00E94F91684E00E944E
:103B9000010D87E00E94010D2091B6023091B7021D
:103BA000C901885B9240285332402130324000F1F5
:103BB00020E032E0281B390B4091B4025091B5024D
:103BC000F6EEEF2EF4E0FF2EDC01A854BD4FBC0151
:103BD000620F731FCC24C394D12C8617970758F01B
:103BE0005093B5024093B4028DE00E94010D68CF5E
:103BF00020E830E0E1CFF70124913D91231799F0BF
:103C00008D0101501109F80120839C01E5E03695F2
:103C10002795EA95E1F7F60102C0EE0FFF1F2A95FE
:103C2000E2F74E2B5F2B0196FFEFEF1AFF0AD5CF7D
:103C30008F5F082F10E01B01082E02C0220C331CDE
:103C40000A94E2F7A10142235323452B89F3909173
:103C5000C00490FD44C09801369527953695279568
:103C6000922F8295880F80763FE1380F809307016D
:103C700020930A013093080190930B0124E630E071
:103C800047E050E065E071E088E70E943732892B19
:103C900009F031CFA80125E0440F551F2A95E1F71F
:103CA0008091C00480FD23C048545D4F04E610E0BD
:103CB00020E230E060E488E70E945E32892B09F060
:103CC0001ACF9101209530958091B4029091B50260
:103CD000282339233093B5022093B4020CCF880FE8
:103CE000880F880F37E0380F20E093E0BFCFEEE079
:103CF000F2E080E2DF011D928A95E9F7E5E6F1E066
:103D0000FE83ED8301E611E089E6C82E81E0D82E1E
:103D100097E0592E77247394AD81BE818D91BE8337
:103D2000AD83F80121918F01240F352F311D2854C7
:103D30003D4FE82FF0E0E25FFD4F80E090E0652C22
:103D4000681A872C082E01C0880C0A94EAF77901BA
:103D5000A12CD701BD907D01B820662D6A1967702E
:103D600070E0BB2D062E01C0BB0F0A94EAF79B2E14
:103D70007195619571096770772701C0B6946A954E
:103D8000EAF79B286081962A9082A39468E0A612A5
:103D9000E0CF019631968830910589F68D819E811C
:103DA000C816D90609F0B8CF04E610E020E230E0EA
:103DB0004EE052E07FCF0F931F93CF93DF93C62F38
:103DC000D42F122F8823A9F0609367050E9426172D
:103DD0009093F3018093F201C77081E001C0880FD6
:103DE000CA95EAF70E94C911DF91CF911F910F91F7
:103DF000089580916705681332C08091F201909117
:103E0000F3010E94D51C883C910548F5CD130CC0E8
:103E1000812F0E94BE19D77081E001C0880FDA950A
:103E2000EAF70E94D311E0CFC77001E0802F01C0F4
:103E3000880FCA95EAF70E94D31180E28D0F88306F
:103E400050F48D2F877001C0000F8A95EAF7802FFC
:103E50000E94C911DDCF812F0E94BE19C5CFC77046
:103E600081E001C0880FCA95EAF7DBCFA8E0B0E097
:103E7000ECE3FFE10C9464346C01DC0114968C914A
:103E8000882309F4ABC061E0C6010E941F118C01B8
:103E9000F6018581882309F494C5980137572038A5
:103EA000310508F083C5003108F087C08FEF93E03B
:103EB0000E948235811181C039EEE32E32E0F32E6B
:103EC00001114AC01A821982FE01339686E0DF0191
:103ED0001D928A95E9F72AE0622E5701BFEFAB1ACF
:103EE000BB0AC7010E94823589831A82882309F49C
:103EF00064C0813009F076C087010E5F1F4FC50195
:103F00000E9482358A83882309F457C09FEF980F57
:103F1000933088F5E3E0EE0EF11CC8010E94823573
:103F20008B83882309F449C01C828E010F5F1F4FC9
:103F3000D8018C91882389F2813009F08EC01196C6
:103F40009C91119712968C91913009F04DC00E5FA3
:103F50001F4F0E94BE194EC0E114F4E0FF0669F144
:103F6000C7010E94823597012F5F3F4F7901811170
:103F7000F3CF0150A5CF8430B9F492E0E92EF12CB3
:103F8000C8010F5F1F4F0E948235E1E0F0E0EC0FA7
:103F9000FD1FEE0DFF1D8083882379F08C3731F4EF
:103FA000FE01EE0DFF1D12827801BFCFFFEFEF1A69
:103FB000FF0A27E0E216F10419F78091790587706E
:103FC000882361F0D60115968C91882339F0809171
:103FD0007B0582FF03C082E00E94EF072896EEE097
:103FE0000C9480347501A1CF923039F40E5F1F4FCD
:103FF0000E94CD180F5F1F4F9BCF933029F40E5FA7
:104000001F4F0E946419F6CF943019F00F5F1F4FB5
:10401000F1CF0E5F1F4F20E030E0A8014F5F5F4FF0
:104020008053990B8A30910560F02115310511F309
:104030008FE99FE00197F1F700C00000215031099E
:10404000F4CF629EB001639E700D11249C01260F77
:10405000371FF80181818A01E0CFE82FF0E0E35BB0
:10406000F24F7490282F26952695269530E0F90179
:10407000E35CF24F94918770F901E35DF24FA490F5
:10408000B12C082E02C0B594A7940A94E2F7A1E0DF
:10409000AA22BB24F901E35EF24F8490912C082EF2
:1040A00002C0959487940A94E2F7B1E08B22992498
:1040B000292F30E002C0359527958A95E2F720FD3B
:1040C0000BC0AB28E9F4872D0E94BE19811491041E
:1040D00009F490CF8CE23DCF81EE0E94CD18AB2841
:1040E00029F4872D0E94BE1981EE11C086EE0E9430
:1040F000CD18872D0E94BE1986EE0E946419F4CF58
:1041000086EE0E94CD18872D0E94BE1986EE0E9471
:104110006419DCCF26E241EE61EE0E94DB1E4DCF3A
:1041200027E245EE65EEF9CF26E241EE60EEF5CFEF
:1041300027E245EE64EEF1CF26E241EE62EEEDCFEE
:1041400027E245EE66EEE9CF28E241E0EBCF1092A0
:104150006705C8019057839708F0CFC084E090E0CE
:104160000E94903590937B0580937A05F801E15089
:10417000F047E232F10520F4E55AF94C0C94B734DB
:1041800080917A05816080937A0560917A057091BB
:104190007B0584E090E00E94C4350E94DE190DCFBB
:1041A00080917B05886080937B05EFCF80917A05B5
:1041B0008260E9CF80917A058460E5CF80917A05AD
:1041C0008860E1CF80917B058160EDCF80917B0598
:1041D0008260E9CF80917A058061D5CF80917A05A0
:1041E0008062D1CF80917A058064CDCF0E94DE19A4
:1041F00080917A058068C7CF80917A058C60C3CFA3
:1042000080917B058360CFCF80917A058E7FBBCF75
:1042100080917B05877FC7CF80917A058D7FB3CF53
:1042200080917A058B7FAFCF80917A05877FABCF66
:1042300080917B058E7FB7CF80917B058D7FB3CF3B
:1042400080917A058F7E9FCF80917A058F7D9BCF5D
:1042500080917A058F7B97CF0E94DE1980917A0535
:104260008F7791CF80917A05837F8DCF80917B0569
:104270008C7F99CF80917A0582FB992790F921E074
:10428000922790FB82F990FB83F97DCF80917B058B
:10429000982F909591708E7F892B90FB81F983CF19
:1042A00090917A05892F8F7B96FF80646CCF0E9456
:1042B000DE1990917A05892F97FB87F9805863CF93
:1042C00061E08EE090E00E94A6355FCF60E0F9CF1C
:1042D00090917A05892F8F7E94FF806154CF9091C1
:1042E0007A05892F8E7F90FF81604DCF90917B055D
:1042F000892F877F93FF886056CF0631FCE71F0721
:1043000009F096C0809174058A7A91E0811101C00C
:1043100090E090936805882331F085E30E94AB0B11
:104320000E948D114ACE89E2F9CF85E35AC380916C
:1043300074058272F801E052F847E531F10508F0A2
:10434000A4C0E358F94C0C94B73480916C0580FFFD
:104350001EC0282F2E7F20936C0530916D05409153
:104360006E0550916F056091700570917105809197
:104370007205909173050E94DA110E94D10A809112
:104380006B05816080936B050E94C40D16CE816021
:1043900080936C0561E0869586950E9459170DCE35
:1043A00043EB57E167EA77E10E94D80A06CE47EA75
:1043B00057E163EB77E1F8CF4BEE52E161EE72E14A
:1043C000F3CF41EE52E16BEE72E1EECF42E053E10A
:1043D00065EF72E1E9CF45EF52E162E073E1E4CFCE
:1043E0004CE153E16FE073E1DFCF4FE053E16CE16B
:1043F00073E1DACF46E352E16CE172E1D5CF4CE1F3
:1044000052E166E372E1D0CF61E081E0C6CF65E0C2
:1044100082E00E94C017D1CD68E086E0FACF6EE05E
:1044200089E0F7CF68E18FE0F4CF6FE18AE1F1CF67
:1044300007372CE7120709F484C082E008373CE70D
:10444000130709F47FC00A359CE7190709F4A3C0D4
:1044500008F086C00130BCE71B0709F49AC003309E
:10446000ECE71E0709F48FC00115FCE71F07B9F43C
:104470000E94DE194FEF84E39CE041508040904061
:10448000E1F700C000000E94240C07374CE7140736
:1044900009F460C008378CE7180709F45FC0F6011B
:1044A0008581E080F180882309F479C0C7010E94EA
:1044B000F410182F682FC7010E949107B701812FB0
:1044C0000E94D5100E940209E82E192FD6011596D8
:1044D000BC9015971696AC90A2948FE0A82280917C
:1044E00079058770882309F1FB2CBB20F9F0892F0F
:1044F000807F803469F080E28E0D8830B0F0892FA3
:10450000807E803229F4B1E0BE1578F4AA2069F0EB
:1045100080917B0582FF09C082E00E94EF078091B5
:1045200079058770FF24F3948111F12CE12FE29536
:10453000EF70103C08F09AC0F0E0EE56F94C0C9485
:10454000B73481E00E941E0743E062E081E00E94F0
:10455000C40733CD81E00E942A07F6CF82E0FBCF6B
:104560000B352CE71207C9F00C353CE7130709F0AF
:1045700096CF80917B0582FB882780F991E089277F
:104580000E945D0F8CCF6FEF7FEF80E090E00E9484
:10459000C4350E94051A81E0F3CF80E0F1CFC70156
:1045A0000E94AB07182F8ACF012F0F70103110F027
:1045B0000295007FBB20B9F0002369F080E28E0DE8
:1045C000883010F0E11009C080917405802B809331
:1045D00074050E948D118E2D41C080917C05802B29
:1045E00080937C05F6CF8E2D0E9464190023F1F193
:1045F00080E28E0D883010F0E11004C0802F0E9400
:10460000070806C0009580917C05802380937C0577
:104610000E948D112BC0012F0F70107F103211F0EE
:104620000295007FEE2051F0E1E0EE1609F46CC037
:10463000BB2009F478C0AA20D1F1CDCF80917B05B1
:1046400082FD31C0BB2069F0002339F080917405F0
:10465000802B809374050E948D1180E00E94CD18FC
:1046600005C080E00E9464190111C8CFFF20B1F09D
:104670008091790580FD12C0D60115961C92869511
:10468000869586950E941E07C6010E94361F80915E
:1046900079058695869586950E942A0760E0C60171
:1046A0000E941F119BCCBB2099F0A11004C0802F49
:1046B0000E94C911DBCFF1E0AF12D8CF8091750510
:1046C000902F9823091791F2802B80937505CECFF8
:1046D000A110CCCF802F0E94D31190917505802F0F
:1046E0008923882329F0802F80958923809375055D
:1046F00080917605902F9823992309F4B7CF0095E0
:10470000082300937605B2CFBB2029F025E02A15B7
:1047100008F4ACCFCCCF34E03A1508F4A7CF802F03
:104720000E94D311A3CFAA20D1F349E3E41209C018
:104730008FEF97EEA3E081509040A040E1F700C0DA
:1047400000008E2D0E94641991CF812F8695869549
:104750008370882369F0813009F088CF8E2D912FE6
:104760009370B11002C080E090E00E94850B7ECF74
:104770008E2D912F9370B11002C080E090E00E94C6
:104780005F0B74CF6B2D8E2D0E94F9176FCF812F89
:104790008370811137C0B1102AC04E2D42954695C5
:1047A0004770440F440F2E2D2F70042E01C0220F8E
:1047B0000A94EAF79E2D9071992341F08FE090E0E2
:1047C00001C0880F4A95EAF7982F9095169516958F
:1047D0001370123091F0892F822B133031F08091B9
:1047E0007705113039F0292B82230E9418070E9487
:1047F0004B0B3CCF822B892BF8CF292B809177054F
:104800008227F3CFBB2069F110FFF1CF4E2D4295E7
:1048100046954770440F440F2E2D2F70042E01C073
:10482000220F0A94EAF79E2D9071992341F08FE0B0
:1048300090E001C0880F4A95EAF7982F9095169559
:1048400016951370123099F0892F822B133031F0A6
:1048500080917805113041F0292B82230E941B079B
:10486000C6CF823020F2D2CF822B892BF7CF292BD3
:10487000809178058227F2CF1F70BB2039F0812FFD
:104880000E941E078E2D0E94C911B1CF8E2D0E944D
:10489000D311812F0E942A07AACFB2EFEB16A9F1FC
:1048A000BE1588F0E0EFEE16D9F0F1EFEF1609F43F
:1048B00043C0BB2009F467C0AA2009F461C08E2D53
:1048C0000E94CD1894CF23EFE21631F134EFE316B6
:1048D00079F1B110F1CFA11065C0812F8F71DACFBE
:1048E000BB2081F044E04A1508F481CF1F7181E0BC
:1048F00090E0012E01C0880F0A94EAF790917805A4
:104900008927ACCF85E0A816EFCF812F8F71B1102A
:10491000C1CF0E941E076BCF80E0BB2009F49ECF61
:104920001F7181E0012E01C0880F0A94EAF796CF2B
:1049300080917B0582FD06C0812F8F71BB2009F419
:10494000A9CFE7CFBB2089F01F71812F0E941E07DE
:1049500080917B0582FF07C0A8E01A9FC001112447
:10496000836080937905812FD4CF81E00E94EF0787
:10497000B1E0BA1508F03BCF82E00E94EF0737CFD5
:10498000812F8F71C6CFAA2009F4A7CFE9E3EE12D9
:1049900009C0FFEF27EE33E0F15020403040E1F74F
:1049A00000C000008E2D0E94641921CFF801E8514B
:1049B000FC47E730F10508F0CACBE256F94C0C94FD
:1049C000B734F801E851FC47E730F105B0F30631A0
:1049D000ECE71E0709F0ABCC809168058111A5CCEE
:1049E00089E20E94C40B9CCC8091BD05803178F493
:1049F0008091BC05882359F0E0917E0520917D05CA
:104A00003091B8054091B70557E02E1301C00895C5
:104A10006E2F70E05E9FF0011124DF01A158BA4FA4
:104A200014968C911497882361F111968C911197AB
:104A3000831327C08C91841324C015968C911597ED
:104A400081111FC012968D919C91A091B905B091D2
:104A5000BA058A1B9B0B883C910598F48091BD0593
:104A60008F7080618093BD05EB57FA4F80818F7006
:104A70008061808387EB95E00E94361F0E94E507E6
:104A80000895FB013196E770C0CFADE0B0E0EBE4F4
:104A9000F5E20C9464348C0186E0F801DE0118968E
:104AA00001900D928A95E1F7F8017080F580A2805F
:104AB000B380848197EB892E95E0992E6090BB0599
:104AC000611018C0882399F0FF2009F413C1C801B0
:104AD0000E944E11882309F40DC187E0F801A7EB6D
:104AE000B5E001900D928A95E1F70E94F424FF242D
:104AF000F39453C0D090BC052091B9053091BA050C
:104B0000A501421B530BDD2009F4C4C0483C5105EC
:104B100008F07AC0882359F38091B805C180E090ED
:104B2000BD05FFE0FE1508F459C0C81215C08091FC
:104B3000B705871111C0F1104BC08E2D8F708061A9
:104B40008093BD0587EB95E00E94361F8091BD05DF
:104B5000F8018683F12C21C0F1103AC040E06C2DA1
:104B6000872D0E94A50D40E06C2D872D0E94A50D7C
:104B7000F82E8111EFCF888599850E943F11292F4A
:104B800022952F70903470F49F702230A0F09923FA
:104B9000B1F0F8019681903190F48F2D2D96EEE0D2
:104BA0000C9480342A5F2F70223068F0C8010E9474
:104BB000361FFD2CF2CF992311F0882371F3805E0C
:104BC000883058F3F3CF803F40F3815F8230F9CFD4
:104BD0008091BD0581608093BD05BCCFC8123CC0EB
:104BE0008091B705871138C0F11036C0F801E68210
:104BF000C8010E94361F87E0F801A7EBB5E00190DD
:104C00000D928A95E1F773CFE090BD05FFE0FE15A8
:104C100050F087EB95E00E94361F87E0F401119277
:104C20008A95E9F797CF882309F461CF9091B80569
:104C3000F8018181981310C08091B70587110CC0CD
:104C4000F1100AC0E682C8010E94361F87E0F40115
:104C500011928A95E9F74BCFC8010E944E11882323
:104C600009F448C0FF2009F445C08091BD05803299
:104C700008F433CF8091B7059091B8059A83898362
:104C8000BC82AB826D821E82EF82CE0101960E94B1
:104C9000361F23CF483C510508F0BFCF882309F4C5
:104CA00026CFFF2039F19091B8058181981318C063
:104CB0008091B705871114C08091BD0580FD9BCF01
:104CC000803108F498CF8683807F803F09F490CFAD
:104CD0008681982F907F905F8F70892B868388CFF5
:104CE000C8010E944E118111F8CE8091BD058160EE
:104CF0008093BD05C8010E94361FF9CEABE1B0E03C
:104D0000E4E8F6E20C946F344E8B5F8B688F798FFA
:104D10008A8F9B8F911110927C051D8A86E0FE017F
:104D20007696DE011F9601900D928A95E1F78B89A8
:104D3000882329F061E0CE010F960E941F1187E0C1
:104D4000FE013F96DE01189601900D928A95E1F7DB
:104D5000CE0108960E94452581112BC087E0FE01F7
:104D60003896DE01119601900D928A95E1F7209117
:104D70007D0540917E058C858823D9F030E0C901FE
:104D800001968770992750E084179507E9F097E01E
:104D9000929FD001939FB00D1124A158BA4FFE01EC
:104DA000319601900D929A95E1F780937D050E94CE
:104DB000E50717E080917E0590917D05891312C06B
:104DC0006B96E3E00C948B340E94DE1910927D0503
:104DD00010927E0587E0E7EBF5E0DF011D928A95F2
:104DE000E9F7E7CF189FC001112481589A4F0E941C
:104DF0004525882329F380917E0590E001968770F0
:104E0000992780937E05D6CFA6E0B0E0EAE0F7E2EE
:104E10000C946E340E9426178C0180912E0590917F
:104E20002F058017910779F019821A820E942617A0
:104E3000BC0149815A8180E090E00E947E26109357
:104E40002F0500932E052696E4E00C948A34ACE0FE
:104E5000B0E0EDE2F7E20C946E34182F8F836623F6
:104E6000D9F00DEF08870E942617BC014F815885A5
:104E700082E091E00E947E2619830A830E94261711
:104E8000682F82E0792F49815A8190E00E947E2626
:104E90002C96E4E00C948A340CEF08870E942617C5
:104EA000BC014F81588583E091E00E947E261983E2
:104EB0000A830E942617682F83E0E4CFA1E0B0E0C8
:104EC000E4E6F7E20C946934EE24E394F12C08E173
:104ED00015E09E012F5F3F4F4EEF54E063E082E00C
:104EE0000E949B13082F882339F1D12C80E01DC02C
:104EF000C090FD04CD0C2C2D30E0A90145505B4F36
:104F00007A01E1E0F0E0EC0FFD1FED0DF11D1081E5
:104F1000FA019081191BB12E1B149CF0912F17FDE3
:104F200090E0191B111118C0D3949091FA04D9166E
:104F3000F8F281110E94210C802F2196E9E00C9457
:104F40008534BA94F70180818F5F808360E08C2D77
:104F50000E942727802FE0CF1F5FF70180818150BB
:104F6000808361E08C2D0E942727802FDBCFABE16F
:104F7000B0E0EDEBF7E20C9463341A821982FE0183
:104F800033968AE0DF011D928A95E9F789E8E82ED9
:104F900081E0F82E8E010F5F1F4F9FE8C92E91E030
:104FA000D92E3801AA24A394B12C36E9832E31E0FE
:104FB000932EF70181917F018F3F09F441C0F8944E
:104FC000E82FE295EF70F0E021A18F70A50102C0FB
:104FD000440F551F8A95E2F7CA01922F982B91A38F
:104FE00092A18095892382A3789400C0EFE8F1E034
:104FF00031E0512C21912F3F09F49AC0A22FA295A4
:10500000AF70A05EB0E08C9190E02F7002C09595DB
:1050100087952A95E2F7817081118AC0832F582ADB
:10502000330F8E169F0631F7F701319780818F3F3E
:1050300011F00E941D0A50EA5A95F1F7D8015C92CE
:105040000F5F1F4FCE14DF0409F0B3CF4CE050E0E8
:10505000B30186EA92E00E946C350091B30210E041
:105060000B511B4F892B09F465C08CE0F301A6EAB4
:10507000B2E001900D928A95E1F781E08093F10111
:105080000E9426179093F0018093EF0180912C05E8
:10509000882309F4A7C01E861D86FE013F9684E082
:1050A000DF011D928A95E9F78091F4018A3008F0BA
:1050B00063C07E01BDE0EB0EF11C4DE254E1B7018F
:1050C000C8010E94230F6701882309F479C04EE5C7
:1050D00057E2B701C8010E94230F882309F470C06A
:1050E00049E554E1B701C8010E94230F882309F460
:1050F00067C040EB54E1B701C8010E94230F882329
:1051000009F45EC01092F4018091B20290E046E092
:1051100050E0B6018B519B4F0E946C3521E02093EB
:10512000EE01892B09F03FC06B96EFE00C947F34C1
:1051300080E075CF8091F101882309F4A7CF809199
:10514000EF019091F0010E94D51C059708F49ECFC5
:1051500046E050E066EA72E0C8010E946C35892B97
:1051600041F086E0E6EAF2E0D80101900D928A95DE
:10517000E1F71092F1018ACF8091EC019091ED015D
:105180000E94D51C843F914008F093CF8091EE019E
:10519000882351F2FE013D9686E0DF011D928A953B
:1051A000E9F71092EE01A091B202B0E0AB51BB4F13
:1051B00086E0FE013D9601900D928A95E1F7B4CF0D
:1051C0008091F4018F3F39F40E9426179093ED01EE
:1051D0008093EC01DBCF8F5F8093F4018A3008F479
:1051E00093CFF2CF86E0F801A1E1B5E001900D92F6
:1051F0008A95E1F766E070E081E195E00E94DF0AC0
:10520000809310054091DD0450E06091DC0470E073
:1052100065507B4FCE010D960E9479358D85809328
:10522000180561E070E0CE010D960E94DF0A8093C0
:105230001705C0901905D0901A05E0901B05F09055
:105240001C058091E8019091E901A091EA01B091DB
:10525000EB01C816D906EA06FB06B1F0C092E801D8
:10526000D092E901E092EA01F092EB010E94D10BA9
:10527000C61AD70AE80AF90AC0922805D092290569
:10528000E0922A05F0922B058BE0EDE1F5E0DE01DE
:105290001D9601900D928A95E1F780911D058695E6
:1052A0008695F0901E05E0901F05D0902005009196
:1052B00026051091270510922705112309F434CFF4
:1052C00010FF0BC09D8590FF1CC090916C059160F4
:1052D00090936C0560E00E94591711FF06C020E012
:1052E0004D2D6E2D8F2D0E94501212FF04C00023F1
:1052F00059F00E943D1713FF17CF81E08093D70428
:1053000013CF0E94640EE9CF0E94D10AF4CFCDB72B
:10531000DEB7A4970FB6F894DEBF0FBECDBF85B73A
:10532000806885BF85B7806885BF84B7877F84BF65
:105330000FB6F894A8958091600088618093600012
:10534000109260000FBE80E890E00FB6F894809352
:105350006100909361000FBE8BE19AE09093DF01B2
:105360008093DE010E94E20C0E944A0D8091E200CF
:1053700084608093E20078948091F104882399F00E
:105380008091E9001091EC001795112717958F7007
:10539000182B1092E9008091E80083FD0E941B1AEF
:1053A0001F701093E90082E084BD93E095BD9AEFF1
:1053B00097BD80936E0010922805109229051092D7
:1053C0002A0510922B050E947411811102C00E94BF
:1053D0005E108091D80080618093D8002AE12A95E0
:1053E000F1F700C08091D90080FD9DC00E94E20CC1
:1053F0001092F10410922C0510922D0510921701B5
:105400008091170191E089278093DC04392F381BA4
:105410003093FD04809117019093DD048091170172
:105420009093FA0425982D9A84988C9A8FE891E0AD
:105430000197F1F700C000002091DD044EED54E02B
:10544000FA018E2F841B821708F477C08091170110
:105450008091170190E0811101C096E09093B30212
:1054600086E0891B8093B20209E811E0BFE8EB2EC9
:10547000B1E0FB2ED8018D918D018F3F11F00E947C
:105480001D0AE016F106B1F70FE811E0A6E9EA2ED1
:10549000A1E0FA2EF80181918F018F3F11F00E9457
:1054A0001D0AE016F106B1F78CE0E5EEF4E0DF014D
:1054B000282F1D922A95E9F7E6EAF2E0DF011D9216
:1054C0008A95E9F780E090E00E949035863E9E4FF5
:1054D00021F40E947411811102C00E94291382E0FC
:1054E00090E00E9482358093C40484E090E00E94A2
:1054F000903590937B0580937A050E94B727EFE360
:10550000FCE93197F1F700C000000E94B7278091B5
:10551000E50480FF1DC06FEF7FEF80E090E00E9408
:10552000C4350E94240C81E080932C0580932D05C6
:10553000809317010E94E93263CF93B18FB18295B6
:105540008170880F95FB992790F9892B819379CFEA
:1055500083E090E00E9482350E94180783E08093E8
:10556000C00480E28093BF040E9492316BE070E03F
:1055700085E09DE00E94B715882309F443C080911F
:10558000C00465E070E081FD4AC180E09DE00E94BA
:10559000B7158823B9F16DE070E08EEE9CE00E94B3
:1055A000B715882379F10E94D10B69A37AA38BA345
:1055B0009CA3DC01CB01805A9541AF4FBF4F809334
:1055C000BB049093BC04A093BD04B093BE04E8EB6D
:1055D000F2E080E092E0DF019C011D92215030401A
:1055E000E1F7F093B702E093B6028FEF9FEF90934D
:1055F000B5028093B40281E08093BA048093B90429
:105600001092B8048091C104811197C080E090E0AD
:105610000E949035863E9E4F21F40E9474118111A4
:1056200004C00E9429130E94001288E090E00E94AA
:105630008A356B017C0184E290E00E948235282F3C
:1056400030E040E050E060E070E080E090E000E2B8
:105650000E94C434E22FA32EB42EB52FA62FF72F0D
:105660009701860140E050E0BA01EC29A12AB22A54
:10567000B32BA42BF52B862B972BE0936C05A092D4
:105680006D05B0926E05B0936F05A0937005F09311
:105690007105809372059093730580916B0583600B
:1056A00080936B05E430C8F50E94001288E090E01A
:1056B0000E948A356B017C0184E290E00E94823571
:1056C000282F30E040E050E060E070E080E090E0C3
:1056D00000E20E94C4345901B42FA52FF62FE72F02
:1056E0009701860140E050E0BA01AC28B12AB22B04
:1056F000A32BF42BE52B862B972BA0926C05B09255
:105700006D05B0936E05A0936F05F0937005E0935F
:10571000710580937205909373050E94C30A0E94DD
:10572000D10A80916C0580FF05C060E08695869562
:105730000E94591781E08093C10480912C0581114A
:1057400002C00E94EC3288E191E090933105809391
:105750003005E8E1CE2ED12C77247394662463942F
:10576000F4E0AF2EB12C8091F104853049F48091A2
:10577000F104853009F456C00E94DE190E944B0BDB
:105780000E94B72705EC14E075EEE72E74E0F72EC3
:1057900021ED34E0D701F80191918D912E173F074B
:1057A00009F492C09817C1F320902C05912CD701D1
:1057B0008D907D01F80131908F01381439F1382432
:1057C000512C44244394832D84218823B9F0222032
:1057D000A9F059829A820E9426179C838B836D823E
:1057E00091E0882D8421811101C090E09E83498140
:1057F0005A816B817C818D810E947E265394440C5A
:10580000F7E05F12E0CFF8013197808293942CE0AB
:105810009212CDCF0E94EE0B552453945AC08BEFB9
:105820009CE0B5CE8091F104843021F10E94E41512
:105830001092C20460E40FB6F894A895C09260007C
:105840000FBE6093600083B7817F846083BF83B79E
:10585000816083BF7894889583B78E7F83BF0FB6AE
:10586000F894A89580916000886180936000109200
:1058700060000FBE8091C304882309F478CF0E9492
:10588000B727E5EEF4E081EF94E02191211104C007
:105890008E179F07D1F76BCF80E189BD82E189BD6B
:1058A00009B400FEFDCF8091D8008F7D8093D80091
:1058B0008091E00082608093E0008091E00081FDB3
:1058C000FCCF0E94DE1953CF98136ECF0E9404279D
:1058D000512C80916A05882309F465C0909169056F
:1058E000E0916C05E695E695E91BE093D6049230CD
:1058F00009F05CC0F0E0E75EF24FE4910E2F10E09B
:105900006CE9862E6EE0962E8091D704882361F094
:105910001092D7040E9432179093D5048093D40438
:105920001092D9041092D8040E9432179C018091E1
:10593000D4049091D504A901481B590B4F3F5F47F0
:1059400090F54091D3044423B1F01092D3044091D8
:10595000D1045091D204241B350B2F3F3F4758F4FC
:10596000405D5A485093D2044093D10420916B0576
:10597000286020936B05E090D804F090D904800F44
:10598000911F9093D5048093D40484ED94E0F401A6
:1059900009958091D8049091D904892B21F4EF289E
:1059A00011F07092D304E12C912C96C0963059F4EA
:1059B000F0E0EA5EF24FE4910E2F10E050EB852EFE
:1059C0005EE0952EA1CF993061F4E695F0E0ED5EB2
:1059D000F24FE4910E2F10E049EF842E4DE0942E0B
:1059E00093CF04EF11E023E2822E2EE0922E993124
:1059F00009F48ACF9A3181F48E2F63E00E949734A4
:105A0000E92FF0E0E05FF24FE4910E2F10E033E277
:105A1000832E35E1932E78CF00ED17E096E3892EA3
:105A20009AE0992E71CF0E2D10E093B18FB182952F
:105A30008170880F95FB992790F9892BD801A25284
:105A4000BB4FEC919E2F9370891709F444C0EE0F61
:105A5000EE0FE82BEC93F090DC04FE0CEF70F0E01E
:105A6000EA56FE4F06521B4F8081D8019C91890F48
:105A70008C93812C84307CF0EF2DF0E0E550FB4FCF
:105A800080818F5F808380902C058820B9F060E052
:105A90008F2D0E942727F80180818D3F8CF4EF2DF8
:105AA000F0E0E550FB4F80818150808380912C0590
:105AB000882321F061E08F2D0E942727882483947A
:105AC000D8018C91082E000C990BB5010E94A334CB
:105AD000F80180839828E3948091DD04E81608F4A7
