:10000000E6C6000001C70000FFC600000C942432C1
:10001000FBC60000F9C60000F7C60000F5C60000E8
:10002000F3C60000F1C600000C94F22E0C94DA2FF7
:100030000C94E116E9C60000E7C60000E5C6000022
:10004000E3C60000E1C60000DFC60000DDC6000018
:10005000DBC600000C94CE2ED7C60000D5C600002B
:10006000D3C60000D1C60000CFC60000CDC6000038
:10007000CBC60000C9C60000C7C60000C5C6000048
:10008000C3C60000C1C60000BFC60000BDC6000058
:10009000BBC60000B9C60000B7C60000B5C6000068
:1000A000B3C60000B1C60000AFC6000005010902DA
:1000B000A10185020901A1000509190129081500FE
:1000C0002501950875018102050109300931158165
:1000D000257F95027508810609381581257F9501D0
:1000E00075088106050C0A38021581257F95017572
:1000F000088106C0C005010980A101850319012AF4
:10010000B700150126B700950175108100C0050CD8
:100110000901A101850419012AA002150126A002E6
:10012000950175108100C00660FF0961A101096297
:10013000150026FF00952075088102096315002629
:10014000FF00952075089102C005010906A101056F
:100150000719E029E7150025019508750181029529
:1001600001750881010507190029FF150026FF0008
:100170009506750881000508190129051500250156
:10018000950575019102950175039101C000AF00BD
:10019000AE09025B00030100A0FA0904000001039C
:1001A000010100092111010001224400070581031A
:1001B00008000109040100020300000009211101E7
:1001C0000001222200070582032000010705030326
:1001D00020000109040200010300000009211101AF
:1001E0000001227B000705840320000112010002A8
:1001F00000000008444D44520001010200010C03BC
:100200005200650064006F0078000000140346008F
:1002100061006C00620061007400650063006800AA
:1002200000000403090400001E001F00200021003C
:10023000220000002B0014001A000800150017000F
:100240002F00290004001600070009000A00000022
:10025000E1001D001B000600190005004E00E30030
:1002600057005600215222522A004C00000027005D
:10027000260025002400230023522E001300120024
:100280000C0018001C003000340033000F000E007A
:100290000D000B000000E5003800370036001000AC
:1002A00011004A004F00520051005000E6002C009F
:1002B0002800000000000000000000000000000016
:1002C000000000000000000000000000000001002D
:1002D0003A003B003C003D003E00010001001E02D0
:1002E0001F022F0230023102010001002002210210
:1002F0002F003000350001000100220223022602F7
:100300002702350201000100010001000100010087
:1003100001000100000043004200410040003F0096
:10032000010000005600610060005F005400010001
:10033000000057005E005D005C00550001000000F9
:1003400058005B005A0059000000010000005800EE
:100350006300620062000100010000000000000074
:10036000000000000000000000000000000000008D
:100370000000000000000100010001000100010078
:100380000100010000000000CD000000D9000000C5
:1003900001000000CF00CE00D000DA000000010014
:1003A000000000000000000000000000010000004C
:1003B000000000000000D100D20001000100010097
:1003C0000100010001000100010000000000000028
:1003D0000000000000000100000000004F0052007B
:1003E000510050000000000000000000000000006C
:1003F00000000100000000000000000000000100FB
:1004000001000000000000000000000000000000EB
:1004100000000000000000000000000000000000DC
:100420003A003B003C003D003E0000000000007C24
:1004300000000000000000000000000000000000BC
:1004400000000000000001000000000000000000AB
:10045000000000000000000000000000000000009C
:1004600000000000000043004200410040003F0047
:10047000000000000000000000000000000000007C
:10048000000000000000000000000000010000006B
:10049000000000000000000000000000000000005C
:1004A000000000000000000000000000000000004C
:1004B000000000000000000000000000000000003C
:1004C000000000000000A900AA004B004E0001003F
:1004D0000100010001002378247825782678277808
:1004E0002878217822780000000000000000000039
:1004F0000080E0F0F0C0103CFCF0E0800000000064
:1005000000000000000000000000000000C0F0FC3F
:100510007E1F8FE3F7FF3FFCF0E38F3FFEFCF0C050
:100520000000000000000000C0E0F87E3F8FC3F133
:10053000FC7E7F777170707073777F7E7871777FC4
:100540007F7E786040000001010101080E0F0F0F4F
:100550000E0E0E0E0E0E0E0E0E0E0E0E0E0E0E0EBB
:100560000E0E0E0C00004350534C4B000A0A00556F
:100570006E646566005261697365004C6F776572E1
:1005800000426173650A004C41594552000A0A0055
:100590004D6F6400436C6D6B0A00517772740A00F2
:1005A0000A0A00534F464C450007087F0807003EE3
:1005B0005B4F5B3E003E6B4F6B3E001C3E7C3E1C27
:1005C00000183C7E3C18001C577D571C001C5E7FA9
:1005D0005E1C0000183C180000FFE7C3E7FF0000A6
:1005E0001824180000FFE7DBE7FF0030483A060E4A
:1005F00000262979292600407F05050700407F0550
:10060000253F005A3CE73C5A007F3E1C1C0800086E
:100610001C1C3E7F0014227F2214005F5F005F5F7E
:100620000006097F017F00006689956A00606060AE
:1006300060600094A2FFA2940008047E04080010E9
:10064000207E20100008082A1C0800081C2A080820
:10065000001E10101010000C1E0C1E0C0030383E36
:10066000383000060E3E0E060000000000000000BC
:10067000005F000000000700070000147F147F14D3
:1006800000242A7F2A120023130864620036495688
:10069000205000000807030000001C224100000059
:1006A00041221C00002A1C7F1C2A0008083E080862
:1006B0000000807030000008080808080000006092
:1006C0006000002010080402003E5149453E000031
:1006D000427F4000007249494946002141494D335B
:1006E000001814127F10002745454539003C4A493F
:1006F0004931004121110907003649494936004670
:100700004949291E00000014000000004034000088
:100710000000081422410014141414140000412293
:100720001408000201590906003E415D594E007C43
:100730001211127C007F49494936003E4141412255
:10074000007F4141413E007F49494941007F0909FD
:100750000901003E41415173007F0808087F0000F5
:10076000417F4100002040413F01007F08142241A9
:10077000007F40404040007F021C027F007F040851
:10078000107F003E4141413E007F09090906003EBD
:100790004151215E007F0919294600264949493205
:1007A0000003017F0103003F4040403F001F204005
:1007B000201F003F4038403F0063140814630003CB
:1007C00004780403006159494D4300007F414141D1
:1007D00000020408102000004141417F0004020192
:1007E0000204004040404040000003070800002091
:1007F00054547840007F2844443800384444442806
:1008000000384444287F0038545454180000087EAF
:1008100009020018A4A49C78007F08040478000052
:10082000447D4000002040403D00007F10284400EF
:100830000000417F4000007C04780478007C0804BC
:10084000047800384444443800FC18242418001864
:10085000242418FC007C0804040800485454542440
:100860000004043F4424003C4040207C001C204005
:10087000201C003C4030403C004428102844004CE0
:100880009090907C004464544C4400000836410031
:10089000000000770000000041360800000201025D
:1008A0000402003C2623263C00000000000000401B
:1008B0004040F0F8F8FF38FFF8F83FF8F8FF38FF4D
:1008C000F8F8F040404000000000000080C0C0C0C8
:1008D000800000C0C08000000080C0C000C0C00018
:1008E0000080C0C00000000000C0C0C0C0C000C088
:1008F000C000000000000000000000000000000038
:1009000000000000000000000000000000000000E7
:1009100000000000000000000000000000000000D7
:100920000000000000000000C0F0F8FC3E1E0601C0
:100930000000007F4141417F007F4141417F000035
:1009400080C0E07E5B4F5BFEC00000C000DCD7DEF5
:10095000DEDED7DC00C00000000000000000000068
:10096000000000000000000000000000000000493E
:100970004949FFFFFFFFE0DFBFBF00BFBFDFE0FF70
:10098000FFFFFF49494900000000001F3F6060E091
:10099000BF1F007F7F071E381E077F7F007F7F0EEF
:1009A0001F3B716000000000007F7F0C0C0C007E7C
:1009B0007E007F7E0303007F7E03037E7E03037F32
:1009C0007E000F3E703C063C703E0F00327B494972
:1009D0003F7E007F7E0303001E3F69696F26000093
:1009E0000000000000000000030F1F3F3C78706013
:1009F0000000007F4141417F007F4141417F003045
:100A00007B7F7830202030787F3B0003000F7F0F02
:100A10000F0F7F0F00030000000000000000000027
:100A200000000000000000000000000000000001C5
:100A30000101070F0F7F0F7F0F0F7E0F0F7F0F7FBB
:100A40000F0F07010101000000000000000000007E
:100A50000101000000000000000000000000000094
:100A60000000000000000000000000000000000086
:100A70000000000000000000000000000000000076
:100A80000000000000000000000000000000000066
:100A90000000000000000000000000000000000056
:100AA0000000000000000000000000000000000046
:100AB0000000000000000000000000000000000036
:100AC0000000000000000000000000000000000026
:100AD0000000000000000000000000000000000016
:100AE0000000000000000000002223252628292AFB
:100AF0002C2D2F3032333536383A3B3D3E40424381
:100B00004547494A4C4E5051535557595A5C5E60BF
:100B100062646668696B6D6F71737577797B7D7FD1
:100B200081838587898A8C8E90929496989A9C9ED0
:100B30009FA1A3A5A7A8AAACAEAFB1B3B4B6B8B9EC
:100B4000BBBCBEBFC1C2C3C5C6C7C9CACBCCCDCE54
:100B5000D0D1D2D2D3D4D5D6D7D7D8D9D9DADADB37
:100B6000DBDBDCDCDCDCDCDDDDDDDDDCDCDCDCDCC3
:100B7000DBDBDBDADAD9D9D8D7D7D6D5D4D3D2D202
:100B8000D1D0CECDCCCBCAC9C7C6C5C3C2C1BFBEEA
:100B9000BCBBB9B8B6B4B3B1AFAEACAAA8A7A5A355
:100BA000A19F9E9C9A98969492908E8C8A89878514
:100BB00083817F7D7B79777573716F6D6B696866F3
:100BC0006462605E5C5A5957555351504E4C4A49C5
:100BD00047454342403E3D3B3A3836353332302F6D
:100BE0002D2C2A292826252322FFAA7F55400001E3
:100BF00001010101010101010202020202020202DD
:100C000002030303030303030304040404040404AE
:100C10000505050505060606060607070707070872
:100C2000080808090909090A0A0A0B0B0B0C0C0C25
:100C30000D0D0D0E0E0E0F0F0F10101111111212BF
:100C400013131414151516161717181819191A1A3C
:100C50001B1B1C1D1D1E1E1F20202122222324249D
:100C6000252626272829292A2B2C2D2D2E2F3031D9
:100C70003232333435363738393A3B3C3D3E3F40EB
:100C80004142434445464748494A4C4D4E4F5051D6
:100C90005354555658595A5B5D5E5F616264656690
:100CA00068696B6C6D6F7072737577787A7B7D7E17
:100CB0008082838587888A8C8E8F91939596989A67
:100CC0009C9EA0A2A3A5A7A9ABADAFB1B3B5B7BA7F
:100CD000BCBEC0C2C4C6C9CBCDCFD1D4D6D8DBDD53
:100CE000DFE2E4E7E9EBEEF0F3F5F8FAFDFF00DA16
:100CF0000281FFD9F1DB20A4A62EAF00A0C0D30053
:100D000000A1C8D30000AED580A81F408D142000DC
:100D10001E0F05643214783C1E1E140A05000000E4
:100D200000000000000000000000000000000000C3
:100D300000000000000000000000000000000000B3
:100D4000007E0F00D4FFFFFFC70000007800000006
:100D500000000000002A2B28000000000000000016
:100D6000000000000000000029000000002C1E34DC
:100D700020212224342627252E362D3738271E1FE2
:100D8000202122232425263333362E37381F04050D
:100D9000060708090A0B0C0D0E0F1011121314157B
:100DA000161718191A1B1C1D2F3130232D35040559
:100DB000060708090A0B0C0D0E0F1011121314155B
:100DC000161718191A1B1C1D2F3130354C00112411
:100DD0001FBECFEFDAE0DEBFCDBF26E0A4E2B2E077
:100DE00001C01D92AF30B207E1F712E0A0E0B1E020
:100DF000E2E0FBE602C005900D92A432B107D9F7FC
:100E00000E9421280C940D35FBC8982F92959F7055
:100E100024E0911102C020E0982F892F86958695B5
:100E2000811511F02E5F982F892F8695820F0895D6
:100E30008093C80508958093C905089521E030E0A6
:100E400001C0220F8A95EAF78091C905822BF3CF62
:100E500021E030E0A90102C0440F551F8A95E2F756
:100E6000CA0180959091C9058923E5CF9B016770E0
:100E700091E001C0990F6A95EAF763E036952795EE
:100E80006A95E1F7B901660F771F260F371FFA0140
:100E9000E20FF31F40E050E0682F70E08191DF0126
:100EA0009B01042E02C0369527950A94E2F7217023
:100EB00021952827292328272E934F5F5F4F433002
:100EC000510561F708959C01A82FA77083E036951E
:100ED00027958A95E1F7C901880F991F820F931F03
:100EE000FB01E80FF91F40E050E080E0219130E085
:100EF0000A2E02C0369527950A94E2F7217033270F
:100F0000042E01C0220F0A94EAF7822B4F5F5F4F35
:100F10004330510559F70895282F862F9C3068F4E7
:100F2000273050F4622F70E027E0929F600D711D12
:100F300011244EE855E09ACF08959C5F9230E0F777
:100F4000622F70E04BE855E0F6CF292F9C3058F423
:100F5000873080F490E06EE875E037E0239F800DE5
:100F6000911D1124B0CF2C5F223020F46BE875E086
:100F700090E0F8CF80E008959091C90521E030E03D
:100F8000F90101C0EE0F8A95EAF7D90102C0AA0F54
:100F9000BB1F6A95E2F7EA2B01C0220F4A95EAF7D8
:100FA000892F8E23E81303C0892F822B44CF2095ED
:100FB000822F8923FBCF8091CF059091CE05981386
:100FC00001C008958F5F8770FACF9091CA05809510
:100FD00089238093CA05282F277021110CC08917F7
:100FE00051F09091CC0592FF06C086958695869526
:100FF0002FDF1092CA050895982F90958091C5050E
:1010000089238093C50508959C01803E910509F4CC
:1010100048C0D8F48133910509F47DC048F4893281
:10102000910509F46DC08A9709F47CC0C90108953F
:101030008933910551F18238910539F1C597B1F79E
:101040008091CB0585FFF2CF29C0843E910509F43C
:1010500047C048F4823E910599F1833E9105A9F17C
:1010600021EE30E0E3CF863E910509F444C0873E8F
:101070009105E1F68091CB0583FD61C09091CC058F
:1010800091FF2BC024EE30E0D1CF8091CB0583704F
:10109000811152C08091CC0583FFC8CF29E230E096
:1010A000C5CF8091CB0580FD33C09091CC0590FFDA
:1010B000BDCF23EE30E084FFB9CF20E030E0B6CFE3
:1010C0008091CB0582FDF5CFB1CF8091CB0582FD1C
:1010D00030C09091CC0590FD2FC084FFA7CFEDCFFD
:1010E0008091CC0581FFA2CF8091CB0527EE30E027
:1010F00084FDE3CF9BCF8091CB0583FDF7CF96CFC7
:101100008091CB0585FD1EC08091CC0583FF8ECFDD
:1011100029E330E08BCF8091CB0586FF87CF2AE291
:1011200030E084CF8091CB0586FF80CF21E330E093
:101130007DCF22EE30E07ACF20EE30E077CF26EE82
:1011400030E074CF25E330E071CF9091CB0592FF72
:1011500010C041E0282F2471243009F040E031E034
:10116000282F2871283009F030E0431711F02CE0C7
:10117000822793FF10C041E0282F2471243109F009
:1011800040E031E0282F2871283109F030E0431782
:1011900011F02CE082273091CC0530FF10C051E0D7
:1011A000282F2171213009F050E041E0282F2871CB
:1011B000283009F040E0541711F029E0822731FF70
:1011C00010C041E0282F2171213109F040E031E0C9
:1011D000282F2871283109F030E0431711F029E059
:1011E000822794FD877E08951F93CF93DF930CDFB2
:1011F000EC01811522E5920708F052C0811540E507
:10120000940708F0CDC0803E910520F58D3C9105F6
:1012100008F0A1C0883A910570F4853A910508F06C
:1012200097C081309105B9F10497813A910598F101
:10123000C0E0D0E030C0885A91094B97C8F7C85A2F
:10124000D0E0CC0FDD1FC954DE4F0990D881C02DEE
:10125000D46421C0811550E49507B0F4C11580E233
:10126000D80708F0B3C0C83ED105A8F0CE019A95C2
:1012700081159F41E8F68D2F68DF182FCE01992741
:10128000C3DEEC01D12B07C09927BEDECC27DF706F
:10129000C82BD92BD06ACE01DF91CF911F91089531
:1012A000803842E59407C8F5803652E5950708F086
:1012B0005BC0C03482E5D807D0F4C03292E5D907CC
:1012C00008F04BC08C2F8695869520E2829FC00146
:1012D0001124C37021E030E0A90102C0440F551F62
:1012E000CA95E2F7EA01C82BD92BDD68D4CF8C2F41
:1012F00086958695877050E2859FC0011124C37042
:1013000021E030E0A90102C0440F551FCA95E2F761
:10131000EA01C82BD92BDC68BECF803C52E595078B
:1013200058F48F71C03AD245A0F590E0982F8827E5
:10133000EC01C46FD06AAFCF805C9245809708F013
:1013400077CFDC2FCC27CC27DF71C06FD06AA3CF3B
:10135000A497D064A0CFD0659ECFCF71D0E0DC2F12
:10136000CC27C16FD06A97CF86958695877020E28B
:10137000829FC0011124C37021E030E0A90102C0A6
:10138000440F551FCA95E2F7EA01C82BD92BDA683A
:1013900082CFDBDEC82FD0E0DC2FCC27D0627BCF22
:1013A0008F71D3DE93E0CC0FDD1F9A95E1F7CC2748
:1013B000DF70282F30E084FF05C050E1859F900149
:1013C00011243327C22BD32BD06965CF8D2F8F717A
:1013D000BCDE182FCE01992717DEEC01D12BDECF12
:1013E00080E00895F894E82FE295EF70F0E041A1D5
:1013F0008F7021E030E0B90102C0660F771F8A9537
:10140000E2F7CB01962F9095942391A392A1892B7B
:1014100082A37894089581E080934A050895089501
:10142000CF92DF92EF92FF921F93CF93DF93172F0C
:10143000E82FF0E0E251F44F71110CC0E4918E2FCF
:101440007E2F6E2FDF91CF911F91FF90EF90DF9055
:10145000CF900895E62EF12CC72ED12CF491EF2FCA
:1014600086E0689F90011124CFEFD0E0C901BE0152
:101470000E943333AB01EE0CFF1C65E5649FC00195
:10148000659F900D1124E81AF90A6E2D660F6E0DF6
:101490007E01EC18FD08FE9DD001FF9DB00D1124CA
:1014A0008B2F169F70011124EF2CFF246E01CE1894
:1014B000DF087601FE9D6001FF9DD00C11247E01A6
:1014C000E61AF108B701169F7001179FF00C11245E
:1014D000EF2CFF24CE19DF09FC9F7001FD9FF00C5B
:1014E00011247F2D43305105C1F02C3F334058F477
:1014F00041305105B1F04230510509F0A2CFEB2F38
:101500008F2D7F2F9ECF4430510571F0463051050D
:1015100009F497CF7B2F8D2D94CF7D2DEB2F8F2F1F
:1015200090CF7F2FED2D8DCFEF2D7B2FF8CFCF9349
:10153000982F762F842FC22F692F72DF472F282FE5
:101540008C2F90E03DD1CF9108958091BD058430DE
:1015500028F4837084608093BD05089587FFFDCFD4
:1015600083708C67F8CFCF93DF938091BD0580FDAA
:101570000BC0C0E0D0E020E040E060E0CE0120D130
:101580002196CE30D105B9F7E0D3DF91CF91089500
:10159000FF920F931F93CF93DF93182F062FF42EF4
:1015A0008091BD0580FF0CC0C0E0D0E02F2D402F02
:1015B000612FCE0105D12196CE30D105B9F7D3DF09
:1015C000CDB7DEB7E5E00C947033982F762F842FDB
:1015D0002091BD0520FF07C0692F22DF962F672FBE
:1015E000482F892FD5CF0895CF93DF93EC01EDEBF2
:1015F000F5E0438162818C81E8DF8C818F5F8C8391
:10160000DF91CF910895EAEBF5E011828281846049
:1016100082830895EDEBF5E080818E7F8083F3DF98
:10162000EAEBF5E08281816082839DCFCF93DF93E7
:10163000EC01EC81F0E0E751F54F4491EDEBF5E082
:1016400062818181C2DF8C818F5F8C83DF91CF913A
:101650000895FF920F931F93CF93DF93EC01F12C2A
:1016600000E010E08C8198014091C0056091BF05B9
:101670008F0D5DDF0F5F1F4F82E1F80E0E301105F9
:1016800089F771DF8C819A8190FF07C08F5F8C830F
:10169000CDB7DEB7E5E00C9470338150F8CF0F93EF
:1016A0001F93CF93DF93EC0120E030E06091BF0502
:1016B0008091BE059C8189010F5F1F4F2730310546
:1016C0003CF4911541F04091C00531DF9801EECF17
:1016D0004091C005911140E02ADF98010E301105BC
:1016E00029F741DF8C8190E00196817099278C83E6
:1016F000DF91CF911F910F91089590912405292F8B
:1017000030E070912505A9014F5F5F4F4370552769
:101710007417150689F02E5D3A4F60FB87F9F901C1
:1017200084839F5F937090932405809122058F5F3F
:101730008093220581E0089580E0089590E061158E
:10174000E9F0865E9E4FFC0180818F3FB1F0E82F6B
:10175000E295EF70F0E041A18F7021E030E0B90137
:1017600002C0660F771F8A95E2F7CB01962F9095FE
:10177000942391A392A1892B82A30895855E9E4F05
:10178000E2CF90E06115A9F0865E9E4FFC012081BA
:101790002F3F91F0E22FE295EF70E05EF0E0808164
:1017A00090E02F7002C0959587952A95E2F7817099
:1017B0000895855E9E4FEACF80E00895539A08957C
:1017C000FC01EE0FFF1FE80FF91FEA5AFD4F61837E
:1017D000408322830895FC01680F791F8FEF41E356
:1017E0009191892728E030E0982F990F87FF09C051
:1017F000892F842721503040B9F7E617F70781F782
:101800000895892FF7CF282F35EB2303C00111242A
:1018100097FF04C080589109892F089580589F4FE1
:10182000FBCF8091B10580FD14C081FD14C082FD05
:1018300016C08091B005811581F08E3180F420E5CD
:10184000829FC00111246EE170E00E948A33862FCE
:10185000089584E1089588E2089588E0089580E578
:1018600008958091B10580FD17C081FD17C082FDEC
:1018700019C08091AF05811599F0883298F428E05D
:10188000829FC001112468E270E00E948A336115D2
:10189000710551F0862F089562E0FCCF64E0FACF25
:1018A00061E0F8CF68E0F6CF81E0089580917D0592
:1018B000811569F0E0918105F0918205309739F04A
:1018C0000190F081E02D309711F00995089580E0A6
:1018D0000895ECCF0895A3E0B0E0E1E7FCE00C94BC
:1018E00057339C01809154029091550282179307BF
:1018F000B1F03093550220935402E0918105F091AC
:101900008205309761F00084F185E02D309739F041
:1019100083E089833B832A83CE0101960995239630
:10192000E2E00C947333A3E0B0E0E9E9FCE00C944E
:1019300057339C0180915202909153028217930772
:10194000B1F03093530220935202E0918105F0915F
:101950008205309761F00084F185E02D309739F0F1
:1019600084E089833B832A83CE01019609952396DF
:10197000E2E00C947333A8E2B2E0EFEF90E02D9137
:10198000821751F0EF3F19F4211101C0E92F9F5F39
:101990009630A9F7EF3F09F408950E2E000CFF0BC7
:1019A000EA5DFD4F82830895E8E2F2E091918913A8
:1019B00002C0DF011E9292E0EE32F907B9F70895F6
:1019C0008091170108952FB7F89460914E0270919D
:1019D0004F0280915002909151022FBF0895CF92F3
:1019E000DF92EF92FF9280917D05811551F0EBDF40
:1019F0006B017C01C701B601FF90EF90DF90CF90A3
:101A00000895E1DFC0907905D0907A05E0907B05DC
:101A1000F0907C05C60ED71EE81EF91EEBCF87E7B7
:101A200097E7909301088093000888E19AE00FB649
:101A3000F894A895809360000FBE90936000FFCF4C
:101A40000895FC019B018091440290914502861704
:101A5000970740F0672B29F48091E8008E778093F8
:101A6000E800C90140E0009741F4411106C08091AF
:101A7000E80082FF2FC080E00895209141052115E4
:101A8000A9F12530A9F12091E80023FD2DC0209176
:101A9000E80022FDECCF2091E80020FFE4CF309158
:101AA000F3002091F200009719F02830310558F02A
:101AB00041E02830310509F040E02091E8002E7720
:101AC0002093E800D0CF41914093F10001972F5F20
:101AD0003F4FE9CF80914105811541F0853041F0BC
:101AE0008091E80083FFC3CF81E0089582E00895EC
:101AF00083E0089580913E0287FF13C08091E80043
:101B000082FF06C08091E8008B778093E8000895FB
:101B1000809141058111F2CF089580914105811591
:101B2000D9F38091E80080FFF8CF8091E8008E77AC
:101B3000ECCF2091E4003091E50095E6A9012091D9
:101B4000EC00822F817020FF06C08091E80080FFAA
:101B500006C080E008952091E80022FD1AC080911F
:101B60004105811589F0853089F08091EB0085FD74
:101B70000FC02091E4003091E50042175307F9F2BD
:101B80009A95E1F684E0089582E0089583E008954F
:101B900081E00895E8EDF0E080818E7F80831092EF
:101BA000E2001092DA001092E100A0EEB0E08C9119
:101BB00081608C9380818F77808319BCA7EDB0E022
:101BC0008C918E7F8C9380818F7E808310923D02DA
:101BD000089520910705382F3203C0011124811583
:101BE00022E0920714F080E090E080509D4F9093A7
:101BF000FF028093FE020895982F9093E9008917C1
:101C000071F07091EC002091ED005091F00021FDF9
:101C100009C09F5F973089F78093E9000895762F78
:101C2000242F50E03091EB003E7F3093EB00309159
:101C3000ED003D7F3093ED003091EB00316030934B
:101C4000EB007093EC002093ED005093F000209196
:101C5000EE0027FDDECF0895A0E0B0E0E2E3FEE075
:101C60000C945133C8EDD0E088818F7E8883E7EDF6
:101C7000F0E080818160808384E082BF81E0809396
:101C80003D0288818E7F888302EE10E0F801108289
:101C90001092DA0081EEC82ED12CF60110828881D4
:101CA0008F77888388818068888388818F7D888307
:101CB00019BC1092410510923C0210920B05109233
:101CC0003B0290EEE92EF12CF70180818B7F80831F
:101CD00088818160888342E060E080E08DDFF601EA
:101CE00080818E7F8083F801808181608083808104
:101CF00088608083F70180818E7F80838881806106
:101D00008883CDB7DEB7E8E00C946D33E091CF0562
:101D10009091CE0527E0E91302C080E00895AE2F30
:101D2000B0E02E9FF0011124E053FA4F31813613B9
:101D300006C03081381303C03581341304C0FD015F
:101D40003196E770E8CF81E008953BB1377F2BB142
:101D500028604FB7F89486E592E0FC010196508127
:101D600068E02BB9000000C057FF3BB9550F0000D9
:101D700000C000C000C03BB900C06A9591F752E0B6
:101D80008038950751F74FBF8FE594E00197F1F741
:101D900000C0000008950F931F93CF93DF938B0132
:101DA000EA0190914105943051F58093E9008FEF5D
:101DB0009091E80095FD06C095ED9A95F1F7000029
:101DC0008A95B1F78091E80085FF19C0B2DE8111D4
:101DD00011C08091E80085FD06C08091E8008E77F3
:101DE0008093E800F3CFF80181918F018093F10097
:101DF000219779F78091E8008E778093E800DF9152
:101E0000CF911F910F910895792F603229F440E20C
:101E100050E0682F82E0BFCF0895CF93DF93D82F93
:101E2000C92F48E050E0682F792F81E0B4DF88E0C7
:101E3000ED2FFC2FA6E4B2E001900D928A95E1F718
:101E4000DF91CF910895BC0146E050E084E0A3CF3C
:101E5000BC0143E050E084E09ECFA0E0B0E0E3E3CB
:101E6000FFE00C944F33182F092FB62EA72E7A01BE
:101E7000809138029AE0C92ED12C8A3018F0CC24F7
:101E8000C394D12CC1E0D0E06B2D7A2D812F902FFF
:101E9000F7010995811116C02196CC16DD0694F044
:101EA000CC9FC001CD9F900D900D112420E030E01B
:101EB00045E34A95F1F700002F5F3F4F2817390798
:101EC000B9F7E2CFCDB7DEB7EAE00C946B3390916F
:101ED000CC0592FB222720F9281771F080FB92F99C
:101EE0009093CC056091CB057091CC0584E090E097
:101EF0000E949C3482E069C808951F93CF93DF93BA
:101F0000962F122F632F8430D8F49C30C8F44730BA
:101F1000B8F4C42FD0E0CC0FDD1F2EE0929FC00D8F
:101F2000D11D112498EA899FC00DD11D1124CE0125
:101F300089960E948234612FCE018A960E94823453
:101F4000DF91CF911F9108950F931F93CF93DF934C
:101F5000962F142F022F632F843018F5923008F536
:101F600028E0829FE001112434E0939FC0011124F6
:101F7000C80FD91FC753DD4F81E084279E01280F6A
:101F8000311D280F311DC9010E94823481E090E08B
:101F9000111102C083E090E0602F8C0F9D1F0E9402
:101FA0008234DF91CF911F910F9108958F929F926C
:101FB000BF92CF92DF92EF92FF920F931F93CF9336
:101FC000DF9306EC14E0E12CF12CC0E04701D0E0F7
:101FD00014C0F601259134914B2D6D2F8C2F8DDF80
:101FE00022E0C20ED11CB39437E0B312F2CF87E0E7
:101FF000880E911CDF5FDC3049F0C401880F991F07
:102000009C012A5D3D4F6901B12CE3CFF801259178
:10201000349141E060E08C2F97DFF80132962591F2
:10202000349140E060E08C2F8FDFF80134962591E9
:10203000349141E061E08C2F87DFF80136962591DD
:10204000349140E061E08C2F7FDF085F1F4FCF5F4E
:1020500034E5E30EF11CC43009F0B8CFDF91CF9125
:102060001F910F91FF90EF90DF90CF90BF909F90C6
:102070008F9008958091C5059091CD05892B409151
:10208000C605411589F090E028E232E0F90150815F
:102090002F5F3F4F51119F5F52E02E323507B1F74E
:1020A00091111092C605842B8093260248E050E0DF
:1020B00063E875E086E292E00E944B34892BB9F028
:1020C00088E0E6E2F2E0A3E8B5E001900D928A959F
:1020D000E1F7E0918105F0918205309741F00280AF
:1020E000F381E02D309719F086E292E0099508958A
:1020F000811531F09091C505892B8093C505BACF24
:102100000895811519F00E94FC07B4CF0895A1E04D
:10211000B0E0EDE8F0E10C944733362E4A01222E70
:10212000C32E5701682E880F7708C3010E94C5325D
:10213000D82E811509F468C0C30133E0880F991FB8
:102140003A95E1F7FC01E75DFE4F2381422F50E015
:10215000211511F041E050E0875D9E4FFC01648144
:102160007581665A7A4FCE0101960E945834F40167
:10217000408051806280738026DC6419750986096D
:102180009709643671058105910530F4B501C801E0
:1021900022DB99818917C1F1E32C032C000CFF0885
:1021A000C7010E94C532D82E811106C0D12C8D2DB9
:1021B0002196E2E10C946333C70123E0880F991F55
:1021C0002A95E1F7FC01E75DFE4F2381422F50E0A5
:1021D000A216B10408F4A501875D9E4FFC0164813D
:1021E0007581665A7A4F822D9C2D0E945834B50114
:1021F000C801F1DA99818913D9CFE5DBF401608355
:10220000718382839383D3CFA501B801822D9C2D46
:102210000E945834CCCFA6E0B0E0E1E1F1E10C94AB
:1022200051336B0186E0E82EF12C0BE515E09E01A1
:102230002F5F3F4F46E555E061E080E068DF8115A4
:1022400049F096E0FE013196A0E5B5E001900D92CF
:102250009A95E1F796E0E0E5F5E0D60101900D9260
:102260009A95E1F72696E8E00C946D33A8E0B0E08B
:10227000ECE3F1E10C94533388E0E82EF12C02E614
:1022800015E09E012F5F3F4F4CE455E063E082E094
:102290003EDF182F811581F19091610580914B05EA
:1022A000981751F100E090916505809164058917B8
:1022B000E9F0E92FF0E0E25AFA4F808587FB6627C4
:1022C00060F99F5F937090936505909163059F5FA0
:1022D000909363058F7711DA082F8111E4CF84E0A2
:1022E00090E00E94C532102F182302C00111F7CFD1
:1022F0008091610580934B05812F2896E6E00C9430
:102300006F33CF92DF92EF92FF921F93CF93DF93C1
:1023100000D000D0CDB7DEB7C0904605D0904705BD
:10232000E0904805F09049054EDB6C197D098E0957
:102330009F0911E0643671058105910568F14FDB55
:10234000DC01CB010296A11DB11D89839A83AB8369
:10235000BC838091520190915301865A9A4F2091EB
:102360005101422F50E0253010F044E050E0BE0112
:102370006F5F7F4F0E94583485E090E00E94C53225
:10238000182F811549F01FDB6093460570934705B0
:102390008093480590934905812F0F900F900F90DF
:1023A0000F90DF91CF911F91FF90EF90DF90CF9032
:1023B00008958F929F92AF92BF92FF920F931F93B7
:1023C000CF93DF93CDB7DEB72B970FB6F894DEBF70
:1023D0000FBECDBF88E0EDEBF5E08E010F5F1F4F24
:1023E000D80101900D928A95E1F78091BA059091FC
:1023F000BB05A091BC0589879A87AB87F090BC0587
:102400008090420590904305A0904405B09045050A
:10241000DADA681979098A099B09E02F312F6436C5
:1024200071058105910510F4F11409F180915A01AB
:1024300090915B01865A9A4F20915901422F50E0AA
:102440002C3010F04BE050E06E2F732F0E94583468
:1024500086E090E00E94C532811561F0B4DA6093A5
:10246000420570934305809344059093450510926F
:10247000BC0581E02B960FB6F894DEBF0FBECDBF32
:10248000DF91CF911F910F91FF90BF90AF909F90E0
:102490008F9008950F931F93CF93DF93843030F57F
:1024A0006C3020F5473010F5C42FD0E0CC0FDD1F85
:1024B0002EE0629FC00DD11D112438EA839FC00D0C
:1024C000D11D1124CE0189960E946134082F10E09D
:1024D000102F0027CE018A960E9461349801282B84
:1024E000C901DF91CF911F910F91089580E090E095
:1024F000F8CFFF920F931F93CF93DF93F42E843086
:1025000070F5623060F528E0829FE001112434E02C
:10251000639FB0011124C60FD71FC753DD4F81E061
:1025200084279E01280F311D280F311DC9010E94EB
:102530006134082F10E0102F002781E090E0F110A7
:1025400002C083E090E08C0F9D1F0E9461349801CF
:10255000282BC901CDB7DEB7E5E00C94703380E0DD
:1025600090E0F8CF7C3038F4673060F4843050F479
:10257000462F672F8FCF7D3F41F4623018F441E042
:10258000843050F080E090E008957C3FD9F76230CD
:10259000C8F78430B8F740E0ACCFA0E0B0E0E3ED9E
:1025A000F2E10C9452337C010091C9058091C80579
:1025B000082BC3E0D0E010E0C8010C2E02C09595B6
:1025C00087950A94E2F780FD09C02197A8F7D12CDE
:1025D0008D2DCDB7DEB7E7E00C946E33DC2EB7015E
:1025E0008C2FC0DF0E94F408019779F3F1CF0F938D
:1025F0001F93CF93FC01858100811181811581F0AA
:10260000611571F0C801C9DFC82F682FC8010E9489
:102610008C07B8018C2FA6DFCF911F910F910895E1
:10262000C8010E94A507C82FF4CFCF93DF93D82FFE
:10263000C92FB3DF6D2F7C2F95DF0E94F408DF9147
:10264000CF910895FC018481811599F08081918159
:10265000ECDF282F92959F70963099F060F4925F8E
:102660009F70923030F4203FB1F038F481E0283E82
:1026700038F080E008959A5FF3CF81E0243FC9F7F6
:10268000089591E0213F09F090E081E0283E08F0B4
:1026900080E0892B089581E008950F931F938B01AB
:1026A0009C01073111402105310540F4CB018751D0
:1026B0009D4F0E9461341F910F91089580E0FBCFE0
:1026C000CF92DF92EF92FF92CF93DF93EC01C8801D
:1026D000D980EA80FB80C701B601DFDF9FEFC91A0E
:1026E000D90AE90AF90AC882D982EA82FB82DF9113
:1026F000CF91FF90EF90DF90CF90089585E290E02A
:102700000E946134853289F486E290E00E9461344F
:10271000883059F487E290E00E94613491E089307A
:1027200009F090E0892F8170089580E0FCCFA0E04F
:10273000B0E0EDE9F3E10C944B33FC01828064805E
:1027400081E08483E9EEFAE09490E8E6FBE0E4912E
:102750000091C0050695015810E0000F111F012FD0
:102760001127C8EAD2E0C12CD12CAA24AA94B12CFA
:1027700077247A94E919EE2EF12C83E0881630F450
:102780008091BE0588838091BF058983611017C041
:102790001B821A8296014A81698188810E94970A68
:1027A0008FEFC81AD80A25968EE0C816D10429F7EB
:1027B0000E94B30ACDB7DEB7EEE00C9467338B818D
:1027C0008115E9F081508B83789EC00111246C81C2
:1027D00070E00E943333FB01FF27E751F54F8491EE
:1027E000E82FE9197E9EC0011124B7010E943333FE
:1027F0008091C005689FB00111247A83CBCF0E94DD
:102800002734B5010E948A33801791070CF0C2CF9C
:1028100083E0881688F00E942734B5010E948A332D
:1028200088830E9427342091BF052695622F70E08F
:102830000E948A33280F29831A828091C005893C1F
:1028400020F088EC8C838B83A5CF8431D8F784E18A
:10285000F9CF0F93CF93DF93CDEBD5E0488159812A
:102860006A817B8188E090E00E94943428813981DC
:102870004A815B816C817D818E819F8100E20E9413
:10288000C533622F83E290E00E948234DF91CF91C2
:102890000F910895EDEBF5E085E0808311828FEFD5
:1028A000828383831482EAEBF5E0828183608283F2
:1028B0008DEB95E0CECF8091C105833018F48F5F0A
:1028C0008093C1058DEB95E0C4CF8091C105811542
:1028D00019F081508093C1058DEB95E0BACFA0E04F
:1028E000B0E0E5E7F4E10C944C33182FF62E042FFA
:1028F000E22E2091BD0520FF35C08091BE058113D9
:1029000008C09091BF05961304C09091C00594171C
:1029100029F09091BC0592609093BC05E22FE6955A
:10292000E695AE2FB0E0A858BE4F9C919093BA05A3
:102930002C7F2430E1F4612F7F2D802F0E94100A1C
:10294000962F672F482F892F0E94C80A812F8093C6
:10295000BE05F092BF050093C005E11419F08DEBA0
:1029600095E077DFCDB7DEB7EDE00C9468339230B9
:1029700019F40091C005EACF963049F3993039F344
:102980009F3021F7EF508E2F8170782EE695F0E082
:10299000E751F44FE491CE2FD0E0A12CB12CC12C03
:1029A000D12C8EE0882E912CC501B4010E943333C6
:1029B000812F711012C0860F9601402F6F2D0E943B
:1029C000970A8FEFC81AD80AAC0EBD1E8EE0C81643
:1029D000D10451F70E94B30AB9CF861BEDCFEDEBBE
:1029E000F5E0818121E043816281885F78CFEDEB62
:1029F000F5E0818121E043816281885070CFEDEB69
:102A0000F5E0628128E0620F08F46FEF21E0438176
:102A1000818165CFEDEBF5E0628128E0621B08F46F
:102A200060E021E0438181815ACFEDEBF5E0438105
:102A300028E0420F08F44FEF21E0628181814FCFFF
:102A4000EDEBF5E0438128E0421B08F440E021E093
:102A50006281818144CFAB0124E630E0BC0188E78C
:102A60000E94F9309C0181E0232B09F080E0089559
:102A700080910205811561F080910105811541F079
:102A800062E070E08FE891E0E6DF811110920105CD
:102A90000895809102058115F1F00E94E30CDC019C
:102AA000CB01805A9541AF4FBF4F80930305909360
:102AB0000405A0930505B0930605809101058111D9
:102AC0000AC062E070E08DE891E0C5DF811519F081
:102AD00081E08093010508951F93CF93DF93982F92
:102AE000162F81E09A3019F09D3031F480E084D0C7
:102AF000DF91CF911F910895C091FE02D091FF0206
:102B000086E0FE01A2EAB2E001900D928A95E1F71B
:102B1000903E90F186E0FE0111928A95E9F7C0910E
:102B2000FE02D091FF02111133C046E050E0BE0119
:102B300082EA92E00E944B349E0120503340892B60
:102B400091F52A5F3F4F40910705642F70E0C9015E
:102B50000E943333481B463010F4240F311D2115D9
:102B600072E0370710F020E030E020503D4F309306
:102B7000FF022093FE02BCCFF6E09F9FB00111241C
:102B800067557A4F46E050E0CE010E943534C7CFFA
:102B90009E012A5F3F4FFE012E173F0731F28081D1
:102BA00080958193F9CFC90145E0969587954A951F
:102BB000E1F741E050E0BA0102C0660F771F8A9545
:102BC000E2F7CB016091FC027091FD02862B972BFE
:102BD000B9016B5F7F4FE5E076956795EA95E1F780
:102BE00002C0440F551F6A95E2F7842B952B9093F2
:102BF000FD028093FC02A5CFCF93382FE091FE0217
:102C0000F091FF02E050F34020910705622F70E041
:102C1000CF010E943333281B822F311561F066E00B
:102C20000E947E33C82FC15010F4CF91089560E008
:102C300080E252DFF8CF8E0F9F2F911D811522E089
:102C4000920710F080E090E080509D4F9093FF023B
:102C50008093FE02EACF1F93CF93DF93EC01162FF0
:102C6000FE018491811104C0DF91CF911F910895DD
:102C7000612F32DF2196F4CFEEDF81E0BDCFA0E1FE
:102C8000B0E0E5E4F6E10C944933FE01319680E1D1
:102C9000DF011D928A95E9F702E110E099EEA92E75
:102CA00092E0B92E27E1422E55245394612C712CC9
:102CB0004F0173016201B1E14B16510461047104CB
:102CC0001CF080E1C82ED12CA601B501C4010E94E0
:102CD0007334AC0CBD1C0D2C000CEE08FF084C1816
:102CE0005D086E087F080150104019F76096E0E11A
:102CF0000C9465336FEF85E290E00E9482346FEFB1
:102D000086E290E00E9482346FEF87E290E00E94BA
:102D1000823460E088E290E00E94823447D9AFDFDD
:102D200065E285E290E00E94823468E086E290E00D
:102D30000E94823469E087E290E00C9482348F92A2
:102D40009F92AF92BF92CF92DF92EF92FF920F933A
:102D5000CF93DF9388E090E00E9469344B015C01DF
:102D6000CDEBD5E068839982AA82BB821C821D824A
:102D70001E821F8283E290E00E946134282F30E09F
:102D800040E050E060E070E080E090E000E20E940F
:102D9000AA33282939294A295B29288339834A8378
:102DA0005B836C837D838E839F83DF91CF910F91B3
:102DB000FF90EF90DF90CF90BF90AF909F908F905B
:102DC00008951F921FB61F9211248F939F93AF9364
:102DD000BF9380910A05811113C080914E0290919A
:102DE0004F02A0915002B09151024196A11DB11D18
:102DF00080934E0290934F02A0935002B0935102E1
:102E0000BF91AF919F918F911F901FBE1F901895FA
:102E10002FB7F89480914E0290914F02A0915002EA
:102E2000B09151022FBF0895CF93DF9380917D051C
:102E3000811521F0EDDFDF91CF9108950E94EF0C15
:102E4000EB01862F9D2FF7CF6091BD0566956695A6
:102E500070E04BE050E08BE091E00E943E34892B23
:102E600019F481E08093BB05DFDF90931D0580930B
:102E70001C058091BC0584608093BC0508959091E9
:102E8000BD0590FF31C0811581F1803280F58F73CF
:102E9000880F880F9091BD059370892B8093BD0595
:102EA0008091BC0581608093BC05611519F08DEBA4
:102EB00095E0CFDC6091BD056695669570E04BE0CE
:102EC00050E08BE091E00E943E34892B91F00E940B
:102ED000030B81E080931F0520E04091C0056091C5
:102EE000BF058091BE05FBCC089581E0D1CF8FE175
:102EF000CFCFAADFEECF8091BD05869586958F5FF7
:102F0000803208F081E061E0BACF8091BD058695FE
:102F100086958A9509F48FE161E0B1CFCF93DF9375
:102F2000EC0176DF8C1B9D0BDF91CF9108952F92E2
:102F30003F925F926F927F928F929F92AF92BF92D9
:102F4000CF92DF92EF92FF920F931F93CF93DF9375
:102F500080910205811509F477C0C091A002D0913B
:102F6000A10256DF8C1B9D0BC29708F44EC050DFA8
:102F70009093A1028093A00280E00E94E90D8091CD
:102F80007D05811509F47AC060E080EA95E063DE92
:102F90008091C8050E940507811539F0813009F13B
:102FA00060E080E995E057DE04C060E08AE995E0E2
:102FB00063DE60E08DE895E04EDE60E087E895E056
:102FC0005BDE8091C9050E940507823009F44EC07E
:102FD00060F0833009F44EC060E08FE695E04CDE8F
:102FE00008C060E084E995E0E3CF60E081E895E027
:102FF00032DE60E08CE695E02EDE0E94690C81FBFB
:10300000662760F986E695E037DE8091FC029091B4
:10301000FD02892B09F07FC0809101058115A1F087
:103020000E94E30C00910305109104052091050511
:1030300030910605601B710B820B930B6F3F7F4F26
:103040008F4F9F4708F414DDDF91CF911F910F91AF
:10305000FF90EF90DF90CF90BF90AF909F908F90B8
:103060007F906F905F903F902F90089560E08BE786
:1030700095E0BECF60E085E795E0BACF83E00E949F
:10308000E90D60E083EA95E0F7DD84E00E94E90D58
:1030900087E00E94E90DA091FE02B091FF029D0120
:1030A00020503340BD0160587240613082E07807A3
:1030B00010F060E072E04091FC025091FD02E6EEFB
:1030C000F4E0EE24E394F12C2617370740F05093F8
:1030D000FD024093FC028DE00E94E90D96CF8491A1
:1030E0009D918917A1F08D0101501109E801888394
:1030F000C901C5E096958795CA95E1F7E70102C039
:10310000CC0FDD1F8A95E2F7CE014C2B592B2F5F98
:103110003F4F3196D9CF80910205811509F47CCFBC
:1031200080910005811178CFB4DC2091FC023091B0
:10313000FD022115310509F46FCF10E041E050E0A8
:10314000812F90E01A01012E02C0220C331C0A9438
:10315000E2F7B10162237323672B11F41F5FF0CFF5
:103160002091080520FF94C0912F990F990F990F76
:1031700037E0390F80E023E0909306018093090146
:103180003093070120930A0124E630E047E050E045
:1031900064E071E088E70E94AF30892B09F03CCFF2
:1031A000D0E21D9FA00111248091080580FF7CC002
:1031B000E0E8F2E080E2DF011D928A95E9F7A4E7FA
:1031C000B1E000E711E088E7C82E81E0D82E97E053
:1031D000592E772473948D91E80129918E01240F43
:1031E000352F311D20503D4FE82FF0E0E058FD4FC6
:1031F00080E090E0652C681A872C082E01C0880CAE
:103200000A94EAF77901A12CE701B9907E01B82070
:10321000662D6A19677070E0DB2D062E01C0DD0F88
:103220000A94EAF79D2E7195619571096770772769
:1032300001C0B6946A95EAF79B286081962A90822D
:10324000A39468E0A612E0CF0196319688309105EC
:1032500089F6CA16DB0609F0BECF04E610E020E2CC
:1032600030E040E852E060E488E70E943F31892B7B
:1032700009F0D2CEE101C095D0958091FC029091E9
:10328000FD028C239D239093FD028093FC02C4CE0B
:103290009695879596958795282F912F9295990FBA
:1032A00090763FE1390F68CF40505D4F04E610E063
:1032B00020E230E0D8CFACDD2091B4053091B505E7
:1032C000232B211521F08093320590933305209113
:1032D000B6053091B705232B211521F080933005D9
:1032E00090933105E0918105F0918205309759F076
:1032F0000680F781E02D309731F082E08093B205AF
:1033000082EB95E009950895611509F449C0E3E35E
:10331000E80FE33150F4F0E0E15FFA4C0C949D3398
:103320000E94110C81958093B505C5CF0E94110CA8
:10333000FACF0E94110C81958093B405F6CF0E94BC
:10334000110CFACF0E94310C8093B605EECF0E948B
:10335000310C8195F9CF0E94310C81958093B7058E
:10336000E4CF0E94310CFACF815D990B21E030E06F
:1033700001C0220F8A95EAF78091B305822B8093D2
:10338000B305D3CF8091B10581608093B105CDCFD6
:103390008091B1058260F9CF8091B1058460F5CF4D
:1033A0004091B4058D3C59F48091B50587FF0DC05F
:1033B0001092B505411559F41092B00508C08E3C25
:1033C00081F48091B50518169CF3411581F0809128
:1033D000B6059091B705892B8111A7CF1092AF0543
:1033E000A4CF8F3C41F447FFF0CF1092B4058091F9
:1033F000B5058115E0CF803D19F41416B4F3E5CF7F
:103400009091B605893D29F41916FCF61092B6057F
:10341000DCCF8A3D19F497FFD8CFF8CF9091B7054C
:103420008B3D29F497FFD1CF1092B705CECF8C3DBD
:1034300019F41916CCF3C9CF9FE2980F983090F485
:10344000815D990B21E030E0B90102C0660F771F62
:103450008A95E2F7CB0180959091B30589238093FB
:10346000B305B3CF8D3D31F48091B1058E7F80934C
:10347000B105ABCF8E3D21F48091B1058D7FF7CFA3
:103480008F3D09F0A2CF8091B1058B7FF0CFCF9314
:10349000C82F8115C9F08238C9F40E94690C81FDDA
:1034A00013C089E30E94BB0C0E943A102FEF37EE45
:1034B00083E0215030408040E1F700C0000089E304
:1034C0000E94D40C0E943A10CF9108958338A1F441
:1034D0000E94690C80FDF8CF83E50E94BB0C0E941E
:1034E0003A109FEF21EE34E0915020403040E1F758
:1034F00000C0000083E5E4CF8438A1F40E94690C89
:1035000082FDE2CF87E40E94BB0C0E943A108FEF4D
:1035100091EE24E0815090402040E1F700C000008F
:1035200087E4CECF8CEF8C0F813A70F4E8E2F2E0C2
:103530008EE292E02191C217D1F18E179F07D1F749
:103540008C2F0E94BB0CBECF80E28C0F883068F4B9
:10355000C77021E030E001C0220FCA95EAF78091E0
:10356000C505822B8093C505ADCF8BE58C0F8330CD
:1035700038F42C2F2452330BC9010E946B0CA4CFBA
:10358000E8E5EC0FEB3150F4F0E0EE0FFF1FE351F4
:10359000FE4F808191810E94930C96CF83E38C0F24
:1035A000833108F091CF61E08C2FAEDE8DCF8C2F70
:1035B0000E94D40C0E943A10C3CF811509F452C066
:1035C000823871F40E94690C81FF4CC089E30E942B
:1035D000BB0C0E943A1089E30E94D40C0C943A1060
:1035E000833859F40E94690C80FF3CC083E50E9437
:1035F000BB0C0E943A1083E5EFCF843859F40E9447
:10360000690C82FF2FC087E40E94BB0C0E943A1015
:1036100087E4E2CF9CEF980F913AF0F290E2980F96
:10362000983050F4877091E001C0990F8A95EAF7BD
:10363000892F0E94FC07D2CF9BE5980F933020F48E
:1036400080E090E00C946B0C98E5980F9B3120F48F
:1036500080E090E00C94930C93E3980F933110F476
:1036600060E052CE08950F931F93CF93C82F8B0124
:103670000EDF0115110531F48C2F9FDFCF911F91C3
:103680000F9108958FE99FE00197F1F700C00000C6
:1036900001501109EECFCF931092C505C6E0E8E2C4
:1036A000F2E0DF018C2F1D928A95E9F780E090E02F
:1036B0000E946B0C80E090E00E94930C1092CD056C
:1036C0000E943A10E2EBF5E0DF011D92CA95E9F79E
:1036D0001092B0051092AF051092B105ECDDCF91BC
:1036E0000895D9DF2FEF84E39CE021508040904083
:1036F000E1F700C0000088E19AE00FB6F894A895C1
:10370000809360000FBE90936000FFCFAAE2B0E00C
:10371000ECE8FBE10C9456338EE392E0FC01019659
:103720002091F100208322E086349207B9F780913E
:103730003F02893009F459C0C8F4823009F4B6C098
:10374000833009F485C0813089F18091E80083FFDE
:10375000EAC080913E0290913F029A3008F0E3C0A7
:10376000E92FF0E0EE5DFA4C0C949D338A3009F4B9
:103770008CC08B3051F780913E02813231F78091BD
:10378000420290914302892B01F78091E800877FE4
:103790008093E8000E947A0D81E09091400291119F
:1037A00001C080E08093180176DFCFCF80913E0288
:1037B000813A59F68091E800877F8093E8008091F4
:1037C000420290914302892B61F060E080E090E03A
:1037D00070E00E94210D8091E8008B778093E800D3
:1037E000B4CF68E086E492E0F3CF80913E0281326C
:1037F00009F0ABCF80914202909143028D7F892BDB
:1038000009F0A3CF8091E800877F8093E800809142
:10381000E80082FF18C09091F3008091F2000297B7
:1038200031F48091F100813011F0863021F48091E3
:10383000F100809317018091E8008B778093E80076
:103840000E947A0D82CF809141058111E0CF7DCF1A
:1038500080913E02813A09F078CF809142029091A6
:103860004302892B09F071CF8091E800877F809314
:10387000E8008091E80080FFFCCF809118018093E0
:10388000F1008091E8008E77D9CF80913E0281329D
:1038900009F05BCF8091E800877F8093E8000E9469
:1038A0007A0D80914102809316014FCF80913E02A4
:1038B000813A09F04ACF8091E800877F8093E80041
:1038C0008091E80080FFFCCF80911601D8CF80382E
:1038D00089F0823841F5809142028F70873018F567
:1038E0008093E9008091EB0085FB882780F9109296
:1038F000E90006C080910B05880F90913B02892B4F
:103900009091E800977F9093E8008093F1001092E7
:10391000F1008091E8008E7723C0811116C080915C
:103920004002813011F18091E80083FF0AC080914C
:10393000E800877F8093E8008091EB0080628093AD
:10394000EB00AA96E3E00C947233823061F7809129
:103950004002811589F01092E9008091E800877F8C
:103960008093E8000E947A0DDECF81E0933009F069
:1039700080E080930B05EFCF809142028F702FEF94
:10398000280F263080F68093E9002091EB0020FF7D
:10399000E2CF933031F48091EB0080628093EB00B2
:1039A000DACF9091EB0090619093EB0021E030E052
:1039B000A90102C0440F551F8A95E2F74093EA001F
:1039C0001092EA008091EB008860E8CF8111ABCFC4
:1039D000109140021F778091E3008078812B8093C3
:1039E000E3008091E800877F8093E8000E947A0DD1
:1039F0008091E80080FFFCCF8091E3008068809395
:103A0000E30083E0111101C082E0809341058BCF78
:103A10008058823008F087CF809140029091410217
:103A20008C3D53E0950799F583E08A838AE2898388
:103A30004FB7F894DE01139620E03EE051E2E32F09
:103A4000F0E050935700849120FF03C082958F705F
:103A50003F5F8F708A30C8F0895C90E08D939D93B2
:103A60002F5F243161F74FBF8091E800877F8093FB
:103A7000E8006AE270E0CE0101960E94210D80917B
:103A8000E8008B778093E8004ECF805DE6CF292F4A
:103A900033272330310509F44EC078F52130310544
:103AA00009F47DC08BE590E0E1E9F1E022303105D9
:103AB00009F039CF2091E800277F2093E80020917A
:103AC0004402309145028217930708F49C0140E0BC
:103AD0002115310509F068C0411166C08091E800E8
:103AE00082FDCDCF80914105811549F2853039F2B3
:103AF0008091E80083FFF2CFC2CF80914202909183
:103B000043022132310509F43BC02232310509F06C
:103B10000ACF8330910508F006CFFC01EE0FFF1F9E
:103B2000EC59FE4F0190F081E02D8F599E4FDC0142
:103B30008C9190E011C09C013327813089F02230B4
:103B40003105B1F0232B09F0EECEE2E2F2E0E49190
:103B50008E2F90E0E2E2F2E0009709F4E4CEAACFE3
:103B6000ECE0F2E0E4918E2F90E0ECE0F2E0F4CFB4
:103B7000EEEFF1E0E4918E2F90E0EEEFF1E0ECCF8C
:103B80008330910508F0CFCEFC01EE0FFF1FE65900
:103B9000FE4F0190F081E02D89E090E08BCF82E133
:103BA00090E0ECEEF1E086CF80914105811509F4BB
:103BB00066CF853009F463CF8091E80083FD5FCF45
:103BC0008091E80082FD8ACF8091E80080FF80CF5D
:103BD0009091F3008091F2002115310519F08830A1
:103BE000910550F041E0089709F040E08091E8002D
:103BF0008E778093E8006CCF44914093F10031962A
:103C0000215031090196E8CF803809F08CCE80919F
:103C1000E800877F8093E80080913C028093F10068
:103C200078CE811180CE10914002123008F07BCE08
:103C30008091E800877F8093E80010933C020E9407
:103C40007A0D1115F9F084E08093410542E061ECB2
:103C500081E00E94FC0D42E261EC84E00E94FC0DD8
:103C600042E261EC82E00E94FC0D42E260EC83E003
:103C70000E94FC0D80914105843051F482E08093D4
:103C8000190151CE8091E30087FDDDCF81E0DCCFCB
:103C900081E0F5CFEF92FF920F931F93CF93DF93C5
:103CA000C62FD42F122F8115A1F06093B805B0D87C
:103CB00090933A0280933902C77081E001C0880F67
:103CC000CA95EAF70E947810CDB7DEB7E6E00C940B
:103CD0006F338091B805681332C0E0903902F090DC
:103CE0003A0296D88E199F09883C910540F500E26A
:103CF0000D0FCD17A9F0C770FF24F3948F2D01C0CD
:103D0000880FCA95EAF70E948110083048F48D2F79
:103D1000877001C0FF0C8A95EAF78F2D0E947810FA
:103D200060E070E0812F9FDC083070F6D77081E092
:103D300001C0880FDA95EAF70E948110C5CFC770DD
:103D400081E001C0880FCA95EAF7F6CFA4E0B0E0A1
:103D5000ECEAFEE10C944C336C01FC01848181158A
:103D600009F489C061E0C6010E94F7128C01F601D6
:103D70008581811509F4F1C0980137572038310544
:103D800008F0F9C4003108F066C066E171E080E037
:103D900090E00E944D1381115EC0812C912C540142
:103DA000011122C089829A82AB82BC828E010F5F90
:103DB0001F4FC8010E946013A02E912E811509F497
:103DC0004AC0813009F072C0C8010E94601381307E
:103DD000F9F4C8010E94601360E570E0893311F0C6
:103DE00060E070E040DCE5CFF7E18F16F1E09F0680
:103DF000A104B10481F1C501B4010E944D132FEF5C
:103E0000821A920AA20AB20A8111EECF0150C8CFDB
:103E1000823029F4C8010E94601339DBCACF833095
:103E200029F4C8010E946013C8DBC3CF843089F431
:103E3000C8010E946013E12CF12C3AE0B32E482F08
:103E40004053550B9A014A305105C8F0E114F10472
:103E500019F58111AECF8091CA058770811559F08F
:103E6000F6018581811539F08091CC0582FF03C070
:103E700082E00E94E5072496EDE00C946833BE9C36
:103E8000C001BF9C900D11247901E80EF91E8A2D06
:103E9000992D0E946013D3CFEFE9FFE03197F1F73E
:103EA00000C00000F1E0EF1AF108D0CFE82FF0E0F9
:103EB000E35BF24F7490282F26952695269530E0E7
:103EC000F901E35CF24FE4908770F12C082E02C0F8
:103ED000F594E7940A94E2F7E0FAEE24FF24E0F880
:103EE000F901E35DF24FA490B12C082E02C0B59405
:103EF000A7940A94E2F7A0FAAA24BB24A0F8F90137
:103F0000E35EF24F8490912C02C0959487948A9539
:103F1000E2F780FA8824992480F8E114F10411F082
:103F200081EEB5DAA114B10411F086EEB0DA60E0EA
:103F300070E0872D98DBA114B10411F086EE3DDB13
:103F4000E114F10411F081EE38DB8114910409F4DD
:103F500030CF60E070E08CE245CFF801E851FC47DB
:103F6000E730F10508F0E2C3E45DFA4C0C949D33B0
:103F700026E241EE61EE8EDE6ECF27E245EE65EE83
:103F8000FACF26E241EE60EEF6CF27E245EE64EE90
:103F9000F2CF26E241EE62EEEECF27E245EE66EE8C
:103FA000EACF28E241E0EBCF8091CB05816080939E
:103FB000CB056091CB057091CC0584E090E00E9428
:103FC0009C3469DB48CF8091CC0588608093CC0518
:103FD000F0CF8091CB058260EACF8091CB058460E1
:103FE000E6CF8091CB058860E2CF8091CC058160DF
:103FF000EDCF8091CC058260E9CF8091CB058061C7
:10400000D6CF8091CB058062D2CF8091CB058064E2
:10401000CECF41DB8091CB058068C9CF8091CB05A5
:104020008C60C5CF8091CC058360D0CF8091CB05CB
:104030008E7FBDCF8091CC05877FC8CF8091CB0587
:104040008D7FB5CF8091CB058B7FB1CF8091CB0594
:10405000877FADCF8091CC058E7FB8CF8091CC0586
:104060008D7FB4CF8091CB058F7EA1CF8091CB0582
:104070008F7D9DCF8091CB058F7B99CF0CDB80917D
:10408000CB058F7794CF8091CB05837F90CF8091A4
:10409000CC058C7F9BCF8091CB05992782FF939590
:1040A00090FB82F990FB83F982CF8091CC05982F09
:1040B000909590FB80F990FB81F988CF9091CB058A
:1040C000892F8F7B96FF806472CFE5DA9091CB05C4
:1040D000892F97FB87F980586ACF61E08EE090E0E6
:1040E0000E94823466CF60E0F9CF9091CB05892F92
:1040F0008F7E94FF80615BCF9091CB05892F8E7F5F
:1041000090FF816054CF9091CC05892F877F93FFDA
:1041100088605CCF89E215C307372CE7120709F0E6
:1041200064C081E00E94280782C09272F801E052C8
:10413000F847EB30F10508F054C0ED5CFA4C0C94F4
:104140009D338091BD0580FF11C08E7F8093BD059A
:104150008DEB95E00E9429140E94030B8091BC0511
:1041600081608093BC050E94B30A75CE8160809304
:10417000BD0561E0869586950E943F176CCE91152E
:1041800029F00E94851767CE9115D9F30E947B17FD
:1041900062CE911529F00E94F7145DCE9115D9F3E6
:1041A0000E94EF1458CE911529F00E940A1553CEA3
:1041B0009115D9F30E94FF144ECE911529F00E945B
:1041C000201549CE9115D9F30E94151544CE9115AD
:1041D00029F00E9465143FCE9115D9F30E945B141B
:1041E0003ACE07373CE71307F9F008374CE71407D6
:1041F00021F19801205E32452032310520F58111F0
:1042000039C00F7181E090E0FC0102C0EE0FFF1F8A
:104210000A95E2F78F016E2F83E090E00E948234CE
:10422000802F0E94180717CE81E00E941E0743E0EE
:1042300062E081E00E94BC070ECE811511F082E0A1
:10424000F4CF82E06FCF8115A9F00A35FCE71F0794
:1042500009F481C008F05BC001303CE7130709F4A2
:1042600079C003304CE7140709F46EC001151C47F0
:1042700009F45EC0F6018581E080F180811509F4C2
:104280006EC0C7010E94CD12182F682FC7010E946F
:104290008C07B701812F0E94B2120E94F4088C0192
:1042A000F601B580A680A2942FE0A2228091CA05D3
:1042B0008770811501F1EB2CB114F1F0812F807F13
:1042C000803461F080E2800F8830A8F0812F807EFA
:1042D000803221F4023078F0A11469F08091CC058D
:1042E00082FF09C082E00E94E5078091CA058770BD
:1042F000EE24E3948111E12CE12FE295EF70103C64
:1043000008F095C0F0E0E25CFA4C0C949D330B355C
:104310008CE7180711F18091CC05002482FF0394EB
:10432000802D0C351C4709F0A5CF0E94670FA2CF46
:10433000B2D9EFEFF4E32CE0E150F0402040E1F798
:1043400000C000000E940F0D6FEF7FEF80E090E053
:104350000E949C34C6D981E0E8CF80E0E6CFC70157
:104360000E94A507182F95CFF12FFF70FF2E103157
:1043700018F0F29490EFF922B114B9F0F11469F049
:1043800080E2800F883010F0011109C08091C505CE
:104390008F298093C5050E943A10802F42C08091DA
:1043A000CD058F298093CD05F6CF802F06D9F11446
:1043B00009F43DC080E2800F883010F0011104C084
:1043C0008F2D0E94FC0706C0F0948091CD058F21AF
:1043D0008093CD050E943A102AC0212F2F70F22E13
:1043E000107F103219F0F29480EFF822011549F095
:1043F000013009F465C0B11409F471C0A11499F138
:10440000CCCF8091CC0582FD2AC0B11461F0F114AB
:1044100039F08091C5058F298093C5050E943A1017
:1044200080E035D804C080E0C8D8F110C9CFE114CD
:1044300009F4B4C08091CA0580FDB0C0F6011582B0
:104440008695869586950E941E07C6017FDC809121
:10445000CA058695869586950E9428079FC0B11447
:1044600099F0A11004C08F2D0E947810E0CF31E0A8
:10447000A312DDCF8091C6059F2D9823F916B9F2BE
:104480008F298093C605D3CFA110D1CF8F2D0E9445
:1044900081109091C6058F2D8923811529F08F2DCC
:1044A000809589238093C6058091C7059F2D982309
:1044B000911509F4BCCFF094F822F092C705B7CF5C
:1044C000B11429F046E0A41608F0B1CFCCCF55E0E6
:1044D000A51608F0ACCF8F2D0E948110A8CFA11493
:1044E000D1F3093349F48FEF97EEE3E08150904028
:1044F000E040E1F700C00000802F5FD898CF812F07
:10450000869586958370811561F0813009F08FCF93
:10451000C8019370B11002C080E090E00E94930C3B
:1045200086CFC8019370B11002C080E090E00E9475
:104530006B0C7DCF6B2D802F0E94841978CF812F3B
:104540008370811138C0B11027C0402F4295469525
:104550004770440F440F802F8F70042E01C0880FC6
:104560000A94EAF7202F207104FF07C02FE030E003
:1045700001C0220F4A95EAF72095169516951370FB
:104580001230A1F0133081F03091C805113059F08C
:10459000822B83230E9418070E94560C60E0C601FC
:1045A0000E94F71268CC832B822BF4CF822B909140
:1045B000C8058927EFCFB11451F110FFEDCF402F7F
:1045C000429546954770440F440F802F8F70042EFC
:1045D00001C0880F0A94EAF7202F207104FF07C05A
:1045E0002FE030E001C0220F4A95EAF7209516959A
:1045F00016951370123089F0133069F03091C905A7
:10460000113041F0822B83230E941B07C5CF8230DB
:1046100018F2D5CF832B822BF7CF822B9091C9052F
:104620008927F2CF1F70B11439F0812F0E941E0725
:10463000802F0E947810B0CF802F0E948110812F90
:104640000E942807A9CF023F71F170F4003FC9F022
:10465000013F91F0B11409F455C0A11409F44FC001
:10466000802F0E94471A98CF033F21F1043F91F712
:104670009091CC0592FD2AC0812F8F71B11401F366
:1046800016C0B11469F0F5E0AF1608F085CF1F71C0
:1046900081E090E0012E01C0880F0A94EAF7BECFB6
:1046A00026E0A216F2CF812F8F71B110C9CF0E94E0
:1046B0001E0772CF80E0B11409F4A6CF1F7181E00C
:1046C000012E01C0880F0A94EAF79ECFB11461F061
:1046D000812F8F7192FFEBCF982F990F990F990F20
:1046E00093609093CA05E3CF81E00E94E50732E032
:1046F000A31608F451CF82E00E94E5074DCF812F29
:104700008F71D5CFA11479F0093349F44FEF57EEEB
:1047100083E0415050408040E1F700C00000802F0E
:104720000E94DD1A39CF812F8F718ACF0631FCE7C5
:104730001F0709F0F1CC8091B905811509F4EACC85
:1047400085E30E94D40C14C09091C50506312CE776
:10475000120709F0EACC9A7A81E0911101C080E059
:104760008093B90585E3911101C089E20E94BB0CD9
:104770000E943A1070CBF801E851FC47E730F10590
:1047800008F4F2CB1092B805980130572332310566
:10479000D8F684E090E00E946E349093CC0580932C
:1047A000CB05F801E150F047E232F10508F0FCCB0F
:1047B000E65BFA4C0C949D3380910E06803178F4C0
:1047C00080910D06811559F0E091CF052091CE051D
:1047D000309109064091080657E02E1301C0089554
:1047E0006E2F70E05E9FF0011124DF01A053BA4FDD
:1047F00014968C911497811551F111968C91119703
:10480000831325C08C91841322C015968C91159723
:1048100081111DC012968D919C91A0910A06B091B4
:104820000B068A1B9B0B883C910588F480910E0631
:104830008F70806180930E06EA52FA4F80818F70EC
:104840008061808388E096E081DA0C94DB07FB01CD
:104850003196E770C2CFADE0B0E0E1E3F4E20C9452
:104860004B338C0186E0F801DE01189601900D9221
:104870008A95E1F7F801F580848198E0892E96E029
:10488000992E60900C06611017C0811591F0F114FB
:1048900009F40EC1C8010E942213811509F408C150
:1048A00087E0F801A8E0B6E001900D928A95E1F763
:1048B00083DFFF24F39455C07080A280B380D09032
:1048C0000D0620910A0630910B06A501421B530BE1
:1048D000D11409F4BDC0483C510508F076C08115DB
:1048E00041F380910906C180E0900E0650E1E51683
:1048F00008F057C0C81214C080910806871110C074
:10490000F11049C08E2D8F70806180930E0688E073
:1049100096E01CDA80910E06F8018683F12C21C006
:10492000F11039C040E06C2D872D0E94860E40E0CA
:104930006C2D872D0E94860EF82E8111EFCF888571
:1049400099850E941513292F22952F70903470F4A9
:104950009F70223098F09115A9F0F801968190315E
:1049600088F48F2D2D96EEE00C9467332A5F2F701C
:10497000223060F0C801EAD9FD2CF3CF911511F077
:10498000811579F3805E883060F3F4CF803F48F37F
:10499000815F8330F9CF80910E06816080930E068F
:1049A000BDCFC81238C080910806871134C0F110FD
:1049B00032C0E682C801CAD987E0F801A8E0B6E0B3
:1049C00001900D928A95E1F774CFE0900E06F0E128
:1049D000EF1648F488E096E0B9D987E0F401119227
:1049E0008A95E9F79BCF811509F463CF9091090669
:1049F000F801818198130FC08091080687110BC0C0
:104A0000F11009C0E682C801A1D987E0F401119232
:104A10008A95E9F74ECFC8010E942213811509F447
:104A200047C0F11409F444C080910E06803208F4A6
:104A300037CF80910806909109069A838983BC82BA
:104A4000AB826D821E82EF82CE0101967FD928CF84
:104A5000483C510508F0C1CF811509F42ACFF11463
:104A600039F1909109068181981318C08091080648
:104A7000871114C080910E0680FD9ECF803108F40E
:104A80009BCF8683807F803F09F494CF8681982FC7
:104A9000907F905F8F70892B86838CCFC8010E9496
:104AA00022138111FDCE80910E06816080930E0647
:104AB000C8014CD9FECEABE1B0E0E1E6F5E20C94E2
:104AC00055334E8B5F8B688F798F8A8F192F9B8F11
:104AD00091111092CD051D8A86E0FE017696DE01C9
:104AE0001F9601900D928A95E1F70A8D011561F0EC
:104AF0000B8B1C8B61E0CE010F960E94F71261E0D8
:104B0000CE010F960E94F7120B8B1C8B87E0FE01E3
:104B10003F96DE01189601900D928A95E1F7CE013D
:104B2000089699DE811128C02091CE053091CF05DD
:104B300087E0FE013896DE01119601900D928A956C
:104B4000E1F78C858115C1F0822F90E00196877086
:104B5000992738171906D9F097E0929FD0011124B0
:104B6000A053BA4FFE01319601900D929A95E1F74C
:104B70008093CE050E94DB0717E08091CF059091CE
:104B8000CE05891312C06B96E4E00C9471330E9439
:104B90004B1B1092CE051092CF0587E0E8E0F6E0BF
:104BA000DF011D928A95E9F7E7CF189FC001112414
:104BB00080539A4F50DE811531F38091CF0590E0FC
:104BC0000196877099278093CF05D7CFA6E0B0E0F4
:104BD000ECEEF5E20C9455330E9408178C0180919D
:104BE0007F05909180058017910771F019821A82D4
:104BF0000E940817BC0149815A8180E090E05BDF88
:104C00001093800500937F052696E4E00C947133A1
:104C1000ACE0B0E0EEE0F6E20C94513380E01CEF43
:104C20000DEFFF24F3949091250520912405291779
:104C300009F441C0E92FF0E0EA5DFA4F808187FB7B
:104C4000CC24C0F8D82EE894D7F89F5F9370909347
:104C50002505909123059F5F9093230587FD07C04D
:104C6000DF8218870E94081723E0E22E06C0DF8249
:104C700008870E94081732E0E32EBC0189879A87D3
:104C8000EB86FC864F8158858E2D91E014DFD9820A
:104C9000C11479F00A830E940817BC018B839C839E
:104CA000ED821E8249815A818E2D90E004DF81E0E1
:104CB000BACF1A83F0CF2C96E8E00C946D33A7E1BD
:104CC000B0E0E5E6F6E20C944833FE0131968CE064
:104CD000DF011D928A95E9F788E9E82E81E0F82E38
:104CE0008F019EE9692E91E0792E2F01AA24A394C9
:104CF000B12C35EA832E31E0932EF70181917F01AB
:104D00008F3F09F43EC0F894E82FE295EF70F0E091
:104D100021A18F70A50102C0440F551F8A95E2F7AB
:104D2000CA01922F982B91A392A18095892382A3E7
:104D3000789400C0EEE9F1E031E0312C21912F3F71
:104D400079F0A22FA295AF70A05EB0E08C9190E0B8
:104D50002F7002C0959587952A95E2F780FF88C04D
:104D600080E0382A330F8E169F0641F7F7018291B3
:104D70008F3F11F00E94F20950EA5A95F1F7D801DD
:104D80003C920F5F1F4F6E147F0409F0B6CF4CE0CA
:104D900050E0B2018EEE92E00E944B346C01892B00
:104DA00041F08CE0F201AEEEB2E001900D928A95F6
:104DB000E1F70091FB0210E00B5C1A4FC114D10423
:104DC00009F458C081E0809337020E94081790933D
:104DD00036028093350280917D05811509F4A4C0C7
:104DE0007E01BDE0EB0EF11C86E0F70111928A9581
:104DF000E9F7809138028A3008F060C04BE051E159
:104E0000B701C8010E942D0F811509F47BC046E34C
:104E100051E1B701C8010E942D0F811509F472C03C
:104E200041E851E1B701C8010E942D0F811509F435
:104E300069C049ED51E1B701C8010E942D0F8115EC
:104E400009F460C0109238028091FA0290E046E0C6
:104E500050E0B7018B5C9A4F0E944B3421E02093C5
:104E60003402892B09F041C06796E1E10C94643368
:104E7000832F77CF80913702811509F4ACCFE09072
:104E80003502F09036020E9408178E199F09059787
:104E900008F4A1CF46E050E06EEE72E0C8010E9437
:104EA0004B34892B41F086E0EEEEF2E0D801019020
:104EB0000D928A95E1F7109237028DCFC0903202A1
:104EC000D09033020E9408178C199D09843F9140AD
:104ED00008F094CF80913402811531F286E0D70139
:104EE0001D928A95E9F710923402A091FA02B0E07F
:104EF000AB5CBA4F86E0FE013D9601900D928A951B
:104F0000E1F7B2CF809138028F3F39F40E94081741
:104F10009093330280933202DDCF8F5F809338020B
:104F20008A3008F491CFF2CF86E0F801ABE5B5E026
:104F300001900D928A95E1F766E070E08BE595E0CF
:104F40000E94EB0B80935A0588E0E2E2F5E0A2E6CE
:104F5000B5E001900D928A95E1F768E070E082E695
:104F600095E00E94EB0B80936105C0906A05D0909C
:104F70006B05E0906C05F0906D0580912E0290918C
:104F80002F02A0913002B0913102C816D906EA066C
:104F9000FB06B1F0C0922E02D0922F02E0923002B6
:104FA000F09231020E94E30CC61AD70AE80AF90A05
:104FB000C0927905D0927A05E0927B05F0927C054B
:104FC0008BE0EEE6F5E0DE011D9601900D928A95EC
:104FD000E1F7F0906F05E0907005D09071050091B9
:104FE00077051091780510927805111509F43CCFDA
:104FF00010FF0DC08D8580FF1EC09091BD05916092
:105000009093BD0560E0869586950E943F1711FF3D
:1050100006C020E04D2D6E2D8F2D0E946F1412FFC3
:1050200004C0011559F00E94241713FF1DCF81E021
:1050300080931F0519CF0E940A0BE9CF0E94030B32
:10504000F4CFCDB7DEB7A4970FB6F894DEBF0FBE8E
:10505000CDBF85B7806885BF85B7806885BF84B7B9
:10506000877F84BF0FB6F894A8958091600088610F
:1050700080936000109260000FBE80E890E00FB651
:10508000F89480936100909361000FBE81E080935B
:10509000190180EF99E090932502809324020E94E9
:1050A000CA0D0E942C0E8091E20084608093E20081
:1050B0007894809141058115A1F08091E900F090EC
:1050C000EC008F70F794FF24F794F82A1092E9000F
:1050D0008091E80083FD0E94861B8F2D8F70809346
:1050E000E90082E084BD93E095BD9AEF97BD80937F
:1050F0006E001092790510927A0510927B0510923D
:105100007C050E947E13811102C00E947A16809154
:10511000D80080618093D8002AE12A95F1F700C079
:105120008091D900382F3170F32E80FD04C00E9489
:10513000CA0D10924105F0927D05F0927E05F09225
:105140001C01F1100E94E031E2E2F5E088E0DF01AD
:105150001D928A95E9F780911C0191E0892780933F
:105160002C0580911C0190932F0580911C0180914A
:105170001C01811106C084EF80931B0185E380939D
:105180001A0160E080E00E949E0B61E080E00E94D6
:105190009E0BEFE8F1E03197F1F700C00000F12C31
:1051A00080912F05F81608F498C080911C01809119
:1051B0001C0190E0811101C096E09093FB0286E013
:1051C000891B8093FA0288E9E82E81E0F82E9EE997
:1051D000C92E91E0D92ED7018D917D018F3F11F01D
:1051E0000E94F209CE14DF04B1F71EE9E12E11E0AE
:1051F000F12E05EAC02E01E0D02EF70181917F014A
:105200008F3F11F00E94F209CE14DF04B1F78CE059
:10521000E5E3F5E0DF01282F1D922A95E9F7EEEE90
:10522000F2E0DF011D928A95E9F780E090E00E94AC
:105230006E34833E9E4F21F40E947E1381112BC059
:1052400063EE7EEF80E090E00E949C3460E082E0BC
:1052500090E00E94823481E08093C80561E083E0A1
:1052600090E00E94823460E074E184E090E00E946B
:105270009C340E944A140E947A1640E050E0BA0121
:105280008FE090E00E94943440E050E0BA0183E166
:1052900090E00E94943482E090E00E946134809318
:1052A0000C0584E090E00E946E349093CC058093CE
:1052B000CB0505DDEFE3FCE93197F1F700C0000015
:1052C000FEDC8091350580FF1AC06FEF7FEF80E034
:1052D00090E00E949C340E940F0D60E08F2D0E9490
:1052E000C10BE82E61E08F2D0E94C10BEF2DF0E085
:1052F000E35DFA4F880F8E298083F39451CF83E0CA
:1053000090E00E9461340E94180783E080930805B2
:1053100080E280930705EDD66BE070E085E09DE0CC
:105320000E942B15811509F43FC08091080565E0A6
:1053300070E081FDC4C080E09DE00E942B158115C6
:1053400099F16DE070E08EEE9CE00E942B158115C6
:1053500059F10E94E30CDC01CB01805A9541AF4F1B
:10536000BF4F8093030590930405A0930505B09368
:105370000605E0E0F3E080E092E0DF019C011D9291
:1053800021503040E1F7F093FF02E093FE028FEFEF
:105390009FEF9093FD028093FC0281E080930205D1
:1053A000809301051092000580910905811125C0A7
:1053B0008DEB95E00E949F168091BC0583608093E1
:1053C000BC058091BD05843030F40E944A148DEBF9
:1053D00095E00E949F160E94A50A0E94030B0E945E
:1053E000DE0B8091BD0580FF05C060E08695869547
:1053F0000E943F1781E08093090580917D0581110E
:1054000001C0E1D78DE191E0909382058093810501
:1054100080914105B0E4FB2E853009F486C04FDC55
:10542000FDE0EF2EF5E0FF2EA5E3CA2EA5E0DA2E73
:10543000D601F70191918D9129E135E02E173F07B3
:1054400009F47DC09817B1F340907D05B12CD601C9
:10545000AD906D01F70181917F018A1539F1582EC8
:105460005A24712C66246394862D85218115B9F008
:105470004114A9F07982BA820E9408179C838B8319
:10548000F1E0FD8391E0862D8A21811101C090E039
:105490009E8349815A816B817C818D810CDB739461
:1054A000660C27E07212E0CFF701A292B3943CE0C1
:1054B000B312CDCF0E94EF0C7724739444C08BEFCE
:1054C0009CE03BCF80914105843029F10E94381542
:1054D00010920A0548E150E00FB6F894A895409361
:1054E00060000FBEF092600083B7817F846083BF4D
:1054F00083B7816083BF7894889583B78E7F83BF9D
:105500000FB6F894A8958091600088618093600040
:10551000109260000FBED3DBE5E3F5E081918111CD
:1055200020C455E0E134F507C9F780914105853085
:1055300009F4C8CF0E944B1B0E94560C70CF9813E1
:1055400083CF44DB712C8091BB05811509F467C0C2
:105550009091BA05E091BD05E695E695E91BE093CB
:105560001E05923009F071C0F0E0E75EF24FE49161
:10557000EE2EF12CE6E1CE2EEBE0DE2E80911F0523
:10558000811561F010921F050E94141790931D055C
:1055900080931C0510922105109220050E9414177B
:1055A0008C0180911C0590911D059801281B390BD9
:1055B0002F3F3F47A0F520911B052115B9F0109210
:1055C0001B052091190530911A05A801421B530BA8
:1055D0004F3F5F4758F4205D3A4830931A052093B7
:1055E00019052091BC0528602093BC05A0902005DA
:1055F000B09021058E0D9F1D90931D0580931C0575
:105600008CE195E0F60109958091200590912105A6
:10561000892B29F4AB2819F0F1E0F0931B05D09009
:105620007D05D11411F0F4DAD82E80914A05811548
:1056300051F010924A0580912405809325058091B0
:10564000220580932305C12C7CC0963059F4F0E0EC
:10565000EA5EF24FE491EE2EF12C74EFC72E7AE061
:10566000D72E8CCF993061F4E695F0E0ED5EF24FE5
:10567000E491EE2EF12C69E2C62E6BE0D62E7ECFA1
:1056800034EFE32EFF24F3944FE4C42E4BE0D42EEA
:10569000993109F473CF9A3181F48E2F63E00E941F
:1056A0007E33E92FF0E0E05FF24FE491EE2EF12C33
:1056B00057E9C52E53E1D52E61CF90EDE92E97E045
:1056C000F92E2FE0C22E2AE0D22E58CF61E08C2D89
:1056D0000E94C10BF82E60E08C2D0E94C10BFF0CC4
:1056E0008F292C2D30E0D901A35DBA4FEC919E2F6C
:1056F0009370891729F1EE0FEE0FE82BEC93809150
:105700002C058C0DEF70F0E0EB55FE4FA901465DC6
:105710005A4F7A01B080DA019C91B90EB2E060E094
:10572000BB1624F4EFEFBE161CF461E00E947D0B63
:105730008B2DBB0C990B62E070E0ECD7D7018C93FA
:10574000C39480912F05C81608F4C0CF80917D05C1
:10575000811511F05DDAD82AD11439F00E94EF0CCE
:105760000E9497170E94491504C00E949717711054
:10577000F9CF86E0E2EBF5E0DE01119601900D92A3
:105780008A95E1F77090B305B090B405D090B50557
:10579000A090B605C090B7051092B4051092B5055B
:1057A0001092B6051092B7058D2D8B29811509F43D
:1057B00041C0E0903205F09033050E9408179C012B
:1057C0002E193F099091B005911509F4C5C22531F4
:1057D000310580F19F3F19F09F5F9093B005B114A0
:1057E00059F00E94110C91E01B140CF09FEF899F5F
:1057F000802D11248093B405D11459F00E94110C0E
:1058000091E01D140CF09FEF899F802D112480934F
:10581000B5058091B405811569F0F090B505F114D6
:1058200049F00E94030C8093B4058F2D0E94030C55
:105830008093B5058C2D8A29811509F441C0E0902B
:105840003005F09031050E9408179C012E193F0980
:105850009091AF05911509F47AC22135310580F197
:105860009F3F19F09F5F9093AF05A11459F00E94DC
:10587000310C91E01A140CF09FEF899F802D1124B8
:105880008093B605C11459F00E94310C91E01C14AC
:105890000CF09FEF899F802D11248093B705809194
:1058A000B605811569F0F090B705F11449F00E9432
:1058B000030C8093B6058F2D0E94030C8093B705CF
:1058C0008091B305871119C08091B405811511F03D
:1058D0008B1113C02091B505211511F0D2120DC006
:1058E0009091B705911511F09C1107C03091B60544
:1058F000311103C0822B892B81110E945B1986E034
:10590000FE013196A2EBB5E001900D928A95E1F788
:105910000E94560C90913405891721F0809334052C
:105920000E94E30C80914105843009F071CD83E041
:105930008093E9008091E80082FF6ACD8091E800C1
:1059400090E085FF05C00E94990D811591F091E0CE
:105950008091E8008B778093E800911509F458CD89
:105960008981EFEFE80FE53170F5F0E0E459FA4C8A
:10597000E4C680E2E82EF12CFE0131966F018091A1
:10598000E80085FD0AC08091E8008B778093E800ED
:105990000E94990D811599F3DACF8091F100D6011B
:1059A0008D936D01B1E0EB1AF10849F7D0CF1A825F
:1059B0008CE08B8319C08A81833081F138F4813087
:1059C00061F0823019F18FEF89830EC08430D9F7EE
:1059D0001B821C821D821E8207C00E94E30CB3D66C
:1059E0006B837C838D839E83E0918105F09182059A
:1059F000309709F40DCD0284F385E02D309709F43A
:105A000007CD60E2CE010196099502CD88E290E0D3
:105A100058D71B821C821D828E83E6CF8B8190E03B
:105A2000FE0134968C309105FCF6DC01AB5CBA4F7C
:105A30002C9121930196F6CF8A81823051F08530E6
:105A400009F0C1CF8091BD0580FF0CC00E940A0BF8
:105A5000CBCF6B817C818D819E8175D688E290E071
:105A600051D7C2CF81608093BD0560E08695869551
:105A70000E943F17B9CF4C816B818A810E944A12E4
:105A80009827892798279E838D83AECF2D813E81CD
:105A90003227232732274C816B818A810E947D0F18
:105AA000A3CF0E94D60FA0CF9A81923009F08BCF5E
:105AB000883099F1893009F453C08B81833049F1E2
:105AC000B0F48130E9F0823009F08ECF8C818115FD
:105AD00009F4BCCF8091BD0581608093BD0560E075
