:10000000E6C6000001C70000FFC600000C949B324A
:10001000FBC60000F9C60000F7C60000F5C60000E8
:10002000F3C60000F1C600000C94692F0C94513007
:100030000C944D17E9C60000E7C60000E5C60000B5
:10004000E3C60000E1C60000DFC60000DDC6000018
:10005000DBC600000C94452FD7C60000D5C60000B3
:10006000D3C60000D1C60000CFC60000CDC6000038
:10007000CBC60000C9C60000C7C60000C5C6000048
:10008000C3C60000C1C60000BFC60000BDC6000058
:10009000BBC60000B9C60000B7C60000B5C6000068
:1000A000B3C60000B1C60000AFC6000005010902DA
:1000B000A10185020901A1000509190129081500FE
:1000C0002501950875018102050109300931158165
:1000D000257F95027508810609381581257F9501D0
:1000E00075088106050C0A38021581257F95017572
:1000F000088106C0C005010980A101850319012AF4
:10010000B700150126B700950175108100C0050CD8
:100110000901A101850419012AA002150126A002E6
:10012000950175108100C00660FF0961A101096297
:10013000150026FF00952075088102096315002629
:10014000FF00952075089102C005010906A101056F
:100150000719E029E7150025019508750181029529
:1001600001750881010507190029FF150026FF0008
:100170009506750881000508190129051500250156
:10018000950575019102950175039101C000AF00BD
:10019000AE09025B00030100A0FA0904000001039C
:1001A000010100092111010001224400070581031A
:1001B00008000109040100020300000009211101E7
:1001C0000001222200070582032000010705030326
:1001D00020000109040200010300000009211101AF
:1001E0000001227B000705840320000112010002A8
:1001F00000000008444D44520001010200010C03BC
:100200005200650064006F0078000000140346008F
:1002100061006C00620061007400650063006800AA
:1002200000000403090400001E001F00200021003C
:10023000220000002B0014001A000800150017000F
:100240002F00290004001600070009000A00000022
:10025000E1001D001B000600190005004E00E30030
:1002600057005600215222522A004C000400000080
:100270000000000000000000000000002700260031
:1002800025002400230023522E00130012000C002E
:1002900018001C003000340033000F000E000D0069
:1002A0000B000000E5003800370036001000110098
:1002B0004A004F00520051005000E6002C00280078
:1002C0000500000000000000000000000000010028
:1002D0003A003B003C003D003E00010001001E02D0
:1002E0001F022F0230023102010001002002210210
:1002F0002F003000350001000100220223022602F7
:100300002702350201000100010001000100010087
:1003100001000100040000000000000000000000D7
:100320000000000043004200410040003F00010087
:1003300000005600610060005F00540001000000F2
:1003400057005E005D005C00550001000000580091
:100350005B005A00590000000100000058006300D3
:1003600062006200010001000500000000000000C2
:100370000000000000000100010001000100010078
:100380000100010000000000CD000000D9000000C5
:1003900001000000CF00CE00D000DA000000010014
:1003A000000000000000000000000000010000004C
:1003B000000000000000D100D20001000400000095
:1003C000000000000000000000000100010001002A
:1003D0000100010001000100000000000000000019
:1003E000000000000100000000004F00520051001A
:1003F00050000000000000000000000000000000AD
:1004000001000000000000000000000001000100E9
:1004100005000000000000000000000000000000D7
:100420003A003B003C003D003E0000000000007C24
:1004300000000000000000000000000000000000BC
:1004400000000000000001000000000000000000AB
:10045000000000000000000000000000000000009C
:100460000000000004000000000000000000000088
:100470000000000043004200410040003F00000037
:10048000000000000000000000000000000000006C
:10049000000000000000000000000100000000005B
:1004A000000000000000000000000000000000004C
:1004B0000000000000000000050000000000000037
:1004C000000000000000A900AA004B004E0001003F
:1004D0000100010001002378247825782678277808
:1004E0002878217822780000000000000000000039
:1004F0000080E0F0F0C0103CFCF0E0800000000064
:1005000000000000000000000000000000C0F0FC3F
:100510007E1F8FE3F7FF3FFCF0E38F3FFEFCF0C050
:100520000000000000000000C0E0F87E3F8FC3F133
:10053000FC7E7F777170707073777F7E7871777FC4
:100540007F7E786040000001010101080E0F0F0F4F
:100550000E0E0E0E0E0E0E0E0E0E0E0E0E0E0E0EBB
:100560000E0E0E0C00004350534C4B000A0A00556F
:100570006E646566005261697365004C6F776572E1
:1005800000426173650A004C41594552000A0A0055
:100590004D6F6400436C6D6B0A00517772740A00F2
:1005A0000A0A00534F464C450007087F0807003EE3
:1005B0005B4F5B3E003E6B4F6B3E001C3E7C3E1C27
:1005C00000183C7E3C18001C577D571C001C5E7FA9
:1005D0005E1C0000183C180000FFE7C3E7FF0000A6
:1005E0001824180000FFE7DBE7FF0030483A060E4A
:1005F00000262979292600407F05050700407F0550
:10060000253F005A3CE73C5A007F3E1C1C0800086E
:100610001C1C3E7F0014227F2214005F5F005F5F7E
:100620000006097F017F00006689956A00606060AE
:1006300060600094A2FFA2940008047E04080010E9
:10064000207E20100008082A1C0800081C2A080820
:10065000001E10101010000C1E0C1E0C0030383E36
:10066000383000060E3E0E060000000000000000BC
:10067000005F000000000700070000147F147F14D3
:1006800000242A7F2A120023130864620036495688
:10069000205000000807030000001C224100000059
:1006A00041221C00002A1C7F1C2A0008083E080862
:1006B0000000807030000008080808080000006092
:1006C0006000002010080402003E5149453E000031
:1006D000427F4000007249494946002141494D335B
:1006E000001814127F10002745454539003C4A493F
:1006F0004931004121110907003649494936004670
:100700004949291E00000014000000004034000088
:100710000000081422410014141414140000412293
:100720001408000201590906003E415D594E007C43
:100730001211127C007F49494936003E4141412255
:10074000007F4141413E007F49494941007F0909FD
:100750000901003E41415173007F0808087F0000F5
:10076000417F4100002040413F01007F08142241A9
:10077000007F40404040007F021C027F007F040851
:10078000107F003E4141413E007F09090906003EBD
:100790004151215E007F0919294600264949493205
:1007A0000003017F0103003F4040403F001F204005
:1007B000201F003F4038403F0063140814630003CB
:1007C00004780403006159494D4300007F414141D1
:1007D00000020408102000004141417F0004020192
:1007E0000204004040404040000003070800002091
:1007F00054547840007F2844443800384444442806
:1008000000384444287F0038545454180000087EAF
:1008100009020018A4A49C78007F08040478000052
:10082000447D4000002040403D00007F10284400EF
:100830000000417F4000007C04780478007C0804BC
:10084000047800384444443800FC18242418001864
:10085000242418FC007C0804040800485454542440
:100860000004043F4424003C4040207C001C204005
:10087000201C003C4030403C004428102844004CE0
:100880009090907C004464544C4400000836410031
:10089000000000770000000041360800000201025D
:1008A0000402003C2623263C00000000000000401B
:1008B0004040F0F8F8FF38FFF8F83FF8F8FF38FF4D
:1008C000F8F8F040404000000000000080C0C0C0C8
:1008D000800000C0C08000000080C0C000C0C00018
:1008E0000080C0C00000000000C0C0C0C0C000C088
:1008F000C000000000000000000000000000000038
:1009000000000000000000000000000000000000E7
:1009100000000000000000000000000000000000D7
:100920000000000000000000C0F0F8FC3E1E0601C0
:100930000000007F4141417F007F4141417F000035
:1009400080C0E07E5B4F5BFEC00000C000DCD7DEF5
:10095000DEDED7DC00C00000000000000000000068
:10096000000000000000000000000000000000493E
:100970004949FFFFFFFFE0DFBFBF00BFBFDFE0FF70
:10098000FFFFFF49494900000000001F3F6060E091
:10099000BF1F007F7F071E381E077F7F007F7F0EEF
:1009A0001F3B716000000000007F7F0C0C0C007E7C
:1009B0007E007F7E0303007F7E03037E7E03037F32
:1009C0007E000F3E703C063C703E0F00327B494972
:1009D0003F7E007F7E0303001E3F69696F26000093
:1009E0000000000000000000030F1F3F3C78706013
:1009F0000000007F4141417F007F4141417F003045
:100A00007B7F7830202030787F3B0003000F7F0F02
:100A10000F0F7F0F00030000000000000000000027
:100A200000000000000000000000000000000001C5
:100A30000101070F0F7F0F7F0F0F7E0F0F7F0F7FBB
:100A40000F0F07010101000000000000000000007E
:100A50000101000000000000000000000000000094
:100A60000000000000000000000000000000000086
:100A70000000000000000000000000000000000076
:100A80000000000000000000000000000000000066
:100A90000000000000000000000000000000000056
:100AA0000000000000000000000000000000000046
:100AB0000000000000000000000000000000000036
:100AC0000000000000000000000000000000000026
:100AD0000000000000000000000000000000000016
:100AE0000000000000000000002223252628292AFB
:100AF0002C2D2F3032333536383A3B3D3E40424381
:100B00004547494A4C4E5051535557595A5C5E60BF
:100B100062646668696B6D6F71737577797B7D7FD1
:100B200081838587898A8C8E90929496989A9C9ED0
:100B30009FA1A3A5A7A8AAACAEAFB1B3B4B6B8B9EC
:100B4000BBBCBEBFC1C2C3C5C6C7C9CACBCCCDCE54
:100B5000D0D1D2D2D3D4D5D6D7D7D8D9D9DADADB37
:100B6000DBDBDCDCDCDCDCDDDDDDDDDCDCDCDCDCC3
:100B7000DBDBDBDADAD9D9D8D7D7D6D5D4D3D2D202
:100B8000D1D0CECDCCCBCAC9C7C6C5C3C2C1BFBEEA
:100B9000BCBBB9B8B6B4B3B1AFAEACAAA8A7A5A355
:100BA000A19F9E9C9A98969492908E8C8A89878514
:100BB00083817F7D7B79777573716F6D6B696866F3
:100BC0006462605E5C5A5957555351504E4C4A49C5
:100BD00047454342403E3D3B3A3836353332302F6D
:100BE0002D2C2A292826252322FFAA7F55400001E3
:100BF00001010101010101010202020202020202DD
:100C000002030303030303030304040404040404AE
:100C10000505050505060606060607070707070872
:100C2000080808090909090A0A0A0B0B0B0C0C0C25
:100C30000D0D0D0E0E0E0F0F0F10101111111212BF
:100C400013131414151516161717181819191A1A3C
:100C50001B1B1C1D1D1E1E1F20202122222324249D
:100C6000252626272829292A2B2C2D2D2E2F3031D9
:100C70003232333435363738393A3B3C3D3E3F40EB
:100C80004142434445464748494A4C4D4E4F5051D6
:100C90005354555658595A5B5D5E5F616264656690
:100CA00068696B6C6D6F7072737577787A7B7D7E17
:100CB0008082838587888A8C8E8F91939596989A67
:100CC0009C9EA0A2A3A5A7A9ABADAFB1B3B5B7BA7F
:100CD000BCBEC0C2C4C6C9CBCDCFD1D4D6D8DBDD53
:100CE000DFE2E4E7E9EBEEF0F3F5F8FAFDFF00DA16
:100CF00002815AD9F1DB20A4A62EAF00A0C0D300F8
:100D000000A1C8D30000AED580A81F408D142000DC
:100D10001E0F05643214783C1E1E140A05000000E4
:100D200000000000000000000000000000000000C3
:100D300000000000000000000000000000000000B3
:100D4000007E0F00D4FFFFFFC70000007800000006
:100D500000000000002A2B28000000000000000016
:100D6000000000000000000029000000002C1E34DC
:100D700020212224342627252E362D3738271E1FE2
:100D8000202122232425263333362E37381F04050D
:100D9000060708090A0B0C0D0E0F1011121314157B
:100DA000161718191A1B1C1D2F3130232D35040559
:100DB000060708090A0B0C0D0E0F1011121314155B
:100DC000161718191A1B1C1D2F3130354C00112411
:100DD0001FBECFEFDAE0DEBFCDBF26E0A0E3B2E07A
:100DE00001C01D92A532B207E1F712E0A0E0B1E028
:100DF000E0EFFBE602C005900D92A033B107D9F7F2
:100E00000E9487280C948435FBC8982F92959F7078
:100E100024E0911102C020E0982F892F86958695B5
:100E2000811511F02E5F982F892F8695820F0895D6
:100E30008093DE0508958093DF05089521E030E07A
:100E400001C0220F8A95EAF78091DF05822BF3CF4C
:100E500021E030E0A90102C0440F551F8A95E2F756
:100E6000CA0180959091DF058923E5CF9B016770CA
:100E700091E001C0990F6A95EAF763E036952795EE
:100E80006A95E1F7B901660F771F260F371FFA0140
:100E9000E20FF31F40E050E0682F70E08191DF0126
:100EA0009B01042E02C0369527950A94E2F7217023
:100EB00021952827292328272E934F5F5F4F433002
:100EC000510561F708959C01A82FA77083E036951E
:100ED00027958A95E1F7C901880F991F820F931F03
:100EE000FB01E80FF91F40E050E080E0219130E085
:100EF0000A2E02C0369527950A94E2F7217033270F
:100F0000042E01C0220F0A94EAF7822B4F5F5F4F35
:100F10004330510559F70895282F862F9C3068F4E7
:100F2000273050F4622F70E027E0929F600D711D12
:100F3000112444EA55E09ACF08959C5F9230E0F77F
:100F4000622F70E041EA55E0F6CF292F9C3058F42B
:100F5000873080F490E064EA75E037E0239F800DED
:100F6000911D1124B0CF2C5F223020F461EA75E08E
:100F700090E0F8CF80E008959091DF0521E030E027
:100F8000F90101C0EE0F8A95EAF7D90102C0AA0F54
:100F9000BB1F6A95E2F7EA2B01C0220F4A95EAF7D8
:100FA000892F8E23E81303C0892F822B44CF2095ED
:100FB000822F8923FBCF8091E5059091E40598135A
:100FC00001C008958F5F8770FACF9091E0058095FA
:100FD00089238093E005282F277021110CC08917E1
:100FE00051F09091E20592FF06C086958695869510
:100FF0002FDF1092E0050895982F90958091DB05E2
:1010000089238093DB0508959C01803E910509F4B6
:1010100048C0D8F48133910509F47DC048F4893281
:10102000910509F46DC08A9709F47CC0C90108953F
:101030008933910551F18238910539F1C597B1F79E
:101040008091E10585FFF2CF29C0843E910509F426
:1010500047C048F4823E910599F1833E9105A9F17C
:1010600021EE30E0E3CF863E910509F444C0873E8F
:101070009105E1F68091E10583FD61C09091E20563
:1010800091FF2BC024EE30E0D1CF8091E105837039
:10109000811152C08091E20583FFC8CF29E230E080
:1010A000C5CF8091E10580FD33C09091E20590FFAE
:1010B000BDCF23EE30E084FFB9CF20E030E0B6CFE3
:1010C0008091E10582FDF5CFB1CF8091E10582FDF0
:1010D00030C09091E20590FD2FC084FFA7CFEDCFE7
:1010E0008091E20581FFA2CF8091E10527EE30E0FB
:1010F00084FDE3CF9BCF8091E10583FDF7CF96CFB1
:101100008091E10585FD1EC08091E20583FF8ECFB1
:1011100029E330E08BCF8091E10586FF87CF2AE27B
:1011200030E084CF8091E10586FF80CF21E330E07D
:101130007DCF22EE30E07ACF20EE30E077CF26EE82
:1011400030E074CF25E330E071CF9091E10592FF5C
:1011500010C041E0282F2471243009F040E031E034
:10116000282F2871283009F030E0431711F02CE0C7
:10117000822793FF10C041E0282F2471243109F009
:1011800040E031E0282F2871283109F030E0431782
:1011900011F02CE082273091E20530FF10C051E0C1
:1011A000282F2171213009F050E041E0282F2871CB
:1011B000283009F040E0541711F029E0822731FF70
:1011C00010C041E0282F2171213109F040E031E0C9
:1011D000282F2871283109F030E0431711F029E059
:1011E000822794FD877E08951F93CF93DF930CDFB2
:1011F000EC01811522E5920708F052C0811540E507
:10120000940708F0CDC0803E910520F58D3C9105F6
:1012100008F0A1C0883A910570F4853A910508F06C
:1012200097C081309105B9F10497813A910598F101
:10123000C0E0D0E030C0885A91094B97C8F7C85A2F
:10124000D0E0CC0FDD1FCC53DE4F0990D881C02DEC
:10125000D46421C0811550E49507B0F4C11580E233
:10126000D80708F0B3C0C83ED105A8F0CE019A95C2
:1012700081159F41E8F68D2F68DF182FCE01992741
:10128000C3DEEC01D12B07C09927BEDECC27DF706F
:10129000C82BD92BD06ACE01DF91CF911F91089531
:1012A000803842E59407C8F5803652E5950708F086
:1012B0005BC0C03482E5D807D0F4C03292E5D907CC
:1012C00008F04BC08C2F8695869520E2829FC00146
:1012D0001124C37021E030E0A90102C0440F551F62
:1012E000CA95E2F7EA01C82BD92BDD68D4CF8C2F41
:1012F00086958695877050E2859FC0011124C37042
:1013000021E030E0A90102C0440F551FCA95E2F761
:10131000EA01C82BD92BDC68BECF803C52E595078B
:1013200058F48F71C03AD245A0F590E0982F8827E5
:10133000EC01C46FD06AAFCF805C9245809708F013
:1013400077CFDC2FCC27CC27DF71C06FD06AA3CF3B
:10135000A497D064A0CFD0659ECFCF71D0E0DC2F12
:10136000CC27C16FD06A97CF86958695877020E28B
:10137000829FC0011124C37021E030E0A90102C0A6
:10138000440F551FCA95E2F7EA01C82BD92BDA683A
:1013900082CFDBDEC82FD0E0DC2FCC27D0627BCF22
:1013A0008F71D3DE93E0CC0FDD1F9A95E1F7CC2748
:1013B000DF70282F30E084FF05C050E1859F900149
:1013C00011243327C22BD32BD06965CF8D2F8F717A
:1013D000BCDE182FCE01992717DEEC01D12BDECF12
:1013E00080E00895F894E82FE295EF70F0E041A1D5
:1013F0008F7021E030E0B90102C0660F771F8A9537
:10140000E2F7CB01962F9095942391A392A1892B7B
:1014100082A37894089581E08093560508950895F5
:10142000CF92DF92EF92FF921F93CF93DF93172F0C
:10143000E82FF0E0E251F44F71110CC0E4918E2FCF
:101440007E2F6E2FDF91CF911F91FF90EF90DF9055
:10145000CF900895E62EF12CC72ED12CF491EF2FCA
:1014600086E0689F90011124CFEFD0E0C901BE0152
:101470000E94AA33AB01EE0CFF1C65E5649FC0011E
:10148000659F900D1124E81AF90A6E2D660F6E0DF6
:101490007E01EC18FD08FE9DD001FF9DB00D1124CA
:1014A0008B2F169F70011124EF2CFF246E01CE1894
:1014B000DF087601FE9D6001FF9DD00C11247E01A6
:1014C000E61AF108B701169F7001179FF00C11245E
:1014D000EF2CFF24CE19DF09FC9F7001FD9FF00C5B
:1014E00011247F2D43305105C1F02C3F334058F477
:1014F00041305105B1F04230510509F0A2CFEB2F38
:101500008F2D7F2F9ECF4430510571F0463051050D
:1015100009F497CF7B2F8D2D94CF7D2DEB2F8F2F1F
:1015200090CF7F2FED2D8DCFEF2D7B2FF8CFCF9349
:10153000982F762F842FC22F692F72DF472F282FE5
:1015400080911A01C81B8C2F90E059D1CF9108953A
:101550008091D305843028F4837084608093D30510
:10156000089587FFFDCF83708C67F8CFCF9380916C
:10157000D30580FF03C009D4CF910895C0911C0109
:1015800080911D01C817B8F780911A019C2F981BF4
:10159000892F20E040E060E090E031D1CF5FF0CFD4
:1015A0000F931F93CF93DF93D82F162F042F809183
:1015B000D305C0911C0180FD10C0DF91CF911F9118
:1015C0000F91089580911A019C2F981B892F202F2D
:1015D000412F6D2F90E013D1CF5F80911D01C8176F
:1015E00088F3C4DFEACF982F762F842F2091D3057C
:1015F00020FF07C0692F14DF962F672F482F892FF0
:10160000CFCF0895CF93DF93EC01E3EDF5E0438175
:1016100062818C81E8DF8C818F5F8C83DF91CF9139
:101620000895E0EDF5E0118282818460828308955F
:10163000E3EDF5E080818E7F8083F3DFE0EDF5E080
:1016400082818160828392CFCF93DF93EC01EC8122
:10165000F0E0E751F54F4491E3EDF5E062818181DF
:10166000C2DF8C818F5F8C83DF91CF910895EF92E1
:10167000FF921F93CF93DF93EC0110E0EE24EA94E6
:10168000F12C60911E01161768F070DF8C819A8131
:1016900090FF1DC08F5F8C83DF91CF911F91FF90D2
:1016A000EF90089520911C01210F3327331F70E024
:1016B000C7010E940134962F8C814091D60560911C
:1016C000D505199F800D112432DF1F5FDACF8150BD
:1016D000E2CF0F931F93CF93DF938C01C0E0D0E054
:1016E00090911E01C917D1056CF040DFF80184818B
:1016F00090E00196817099278483DF91CF911F91AB
:101700000F910895F801448180911C019E01280FDA
:10171000311D6091D5058091D4059695C917D105E5
:101720003CF4411539F04091D60501DF2196D8CF20
:101730004115C9F340E0F9CF90913005292F30E0F1
:1017400070913105A9014F5F5F4F437055277417A2
:10175000150689F0225D3A4F60FB87F9F901848311
:101760009F5F93709093300580912E058F5F8093DB
:101770002E0581E0089580E0089590E06115E9F07C
:10178000815E9E4FFC0180818F3FB1F0E82FE29592
:10179000EF70F0E041A18F7021E030E0B90102C0AC
:1017A000660F771F8A95E2F7CB01962F90959423C9
:1017B00091A392A1892B82A30895805E9E4FE2CFD0
:1017C00090E06115A9F0815E9E4FFC0120812F3FC2
:1017D00091F0E22FE295EF70E05EF0E0808190E022
:1017E0002F7002C0959587952A95E2F7817008952C
:1017F000805E9E4FEACF80E00895539A0895FC01E1
:10180000EE0FFF1FE80FF91FEE59FD4F6183408374
:1018100022830895FC01680F791F8FEF41E39191B6
:10182000892728E030E0982F990F87FF09C0892F7A
:10183000842721503040B9F7E617F70781F708955C
:10184000892FF7CF282F35EB2303C001112497FFF1
:1018500004C080589109892F089580589F4FFBCF6D
:101860008091C70580FD14C081FD14C082FD16C0A3
:101870008091C605811581F08E3180F420E5829F2C
:10188000C00111246EE170E00E940134862F08959A
:1018900084E1089588E2089588E0089580E5089538
:1018A0008091C70580FD17C081FD17C082FD19C05A
:1018B0008091C505811599F0883298F428E0829FBF
:1018C000C001112468E270E00E94013461157105C5
:1018D00051F0862F089562E0FCCF64E0FACF61E01A
:1018E000F8CF68E0F6CF81E00895809193058115E7
:1018F00069F0E0919705F0919805309739F00190E3
:10190000F081E02D309711F00995089580E0089559
:10191000A3E0B0E0EEE8FCE00C94CE339C018091B3
:1019200060029091610282179307B1F030936102D7
:1019300020936002E0919705F0919805309761F04F
:101940000084F185E02D309739F083E089833B8373
:101950002A83CE01019609952396E2E00C94EA339E
:10196000A3E0B0E0E6EBFCE00C94CE339C01809168
:101970005E0290915F0282179307B1F030935F028D
:1019800020935E02E0919705F0919805309761F001
:101990000084F185E02D309739F084E089833B8322
:1019A0002A83CE01019609952396E2E00C94EA334E
:1019B0009C01FC0132968FEF90E04191461751F067
:1019C0008F3F19F4411101C0892F9F5F9630A9F70D
:1019D0008F3F09F40895280F311D87FD3A95F901CD
:1019E000628308959C01FC013296285F3F4F8191EC
:1019F000861302C0DF011E92E217F307C1F70895B4
:101A00008091170108952FB7F89460915A02709150
:101A10005B0280915C0290915D022FBF0895CF928E
:101A2000DF92EF92FF9280919305811551F0EBDFE9
:101A30006B017C01C701B601FF90EF90DF90CF9062
:101A40000895E1DFC0908F05D0909005E09091055A
:101A5000F0909205C60ED71EE81EF91EEBCF87E761
:101A600097E7909301088093000888E19AE00FB609
:101A7000F894A895809360000FBE90936000FFCF0C
:101A80000895FC019B0180915002909151028617AC
:101A9000970740F0672B29F48091E8008E778093B8
:101AA000E800C90140E0009741F4411106C080916F
:101AB000E80082FF2FC080E0089520914D05211598
:101AC000A9F12530A9F12091E80023FD2DC0209136
:101AD000E80022FDECCF2091E80020FFE4CF309118
:101AE000F3002091F200009719F02830310558F0EA
:101AF00041E02830310509F040E02091E8002E77E0
:101B00002093E800D0CF41914093F10001972F5FDF
:101B10003F4FE9CF80914D05811541F0853041F06F
:101B20008091E80083FFC3CF81E0089582E00895AB
:101B300083E0089580914A0287FF13C08091E800F6
:101B400082FF06C08091E8008B778093E8000895BB
:101B500080914D058111F2CF089580914D05811539
:101B6000D9F38091E80080FFF8CF8091E8008E776C
:101B7000ECCF2091E4003091E50095E6A901209199
:101B8000EC00822F817020FF06C08091E80080FF6A
:101B900006C080E008952091E80022FD1AC08091DF
:101BA0004D05811589F0853089F08091EB0085FD28
:101BB0000FC02091E4003091E50042175307F9F27D
:101BC0009A95E1F684E0089582E0089583E008950F
:101BD00081E00895E8EDF0E080818E7F80831092AF
:101BE000E2001092DA001092E100A0EEB0E08C91D9
:101BF00081608C9380818F77808319BCA7EDB0E0E2
:101C00008C918E7F8C9380818F7E8083109249028D
:101C1000089520911305382F3203C0011124811536
:101C200022E0920714F080E090E0845F9C4F909354
:101C30000B0380930A030895982F9093E900891766
:101C400071F07091EC002091ED005091F00021FDB9
:101C500009C09F5F973089F78093E9000895762F38
:101C6000242F50E03091EB003E7F3093EB00309119
:101C7000ED003D7F3093ED003091EB00316030930B
:101C8000EB007093EC002093ED005093F000209156
:101C9000EE0027FDDECF0895A0E0B0E0E2E5FEE033
:101CA0000C94C833C8EDD0E088818F7E8883E7ED3F
:101CB000F0E080818160808384E082BF81E0809356
:101CC000490288818E7F888302EE10E0F80110823D
:101CD0001092DA0081EEC82ED12CF6011082888194
:101CE0008F77888388818068888388818F7D8883C7
:101CF00019BC10924D0510924802109217051092CF
:101D0000470290EEE92EF12CF70180818B7F8083D2
:101D100088818160888342E060E080E08DDFF601A9
:101D200080818E7F8083F8018081816080838081C3
:101D300088608083F70180818E7F808388818061C5
:101D40008883CDB7DEB7E8E00C94E433E091E50595
:101D50009091E40527E0E91302C080E00895AE2FDA
:101D6000B0E02E9FF0011124EA51FA4F3181361371
:101D700006C03081381303C03581341304C0FD011F
:101D80003196E770E8CF81E008953BB1377F2BB102
:101D900028604FB7F89482E692E0FC0101965081EA
:101DA00068E02BB9000000C057FF3BB9550F000099
:101DB00000C000C000C03BB900C06A9591F752E076
:101DC0008C38950751F74FBF8FE594E00197F1F7F5
:101DD00000C0000008950F931F93CF93DF938B01F2
:101DE000EA0190914D05943051F58093E9008FEF11
:101DF0009091E80095FD06C095ED9A95F1F70000E9
:101E00008A95B1F78091E80085FF19C0B2DE811193
:101E100011C08091E80085FD06C08091E8008E77B2
:101E20008093E800F3CFF80181918F018093F10056
:101E3000219779F78091E8008E778093E800DF9111
:101E4000CF911F910F910895792F603229F440E2CC
:101E500050E0682F82E0BFCF0895CF93DF93D82F53
:101E6000C92F48E050E0682F792F81E0B4DF88E087
:101E7000ED2FFC2FA2E5B2E001900D928A95E1F7DB
:101E8000DF91CF910895BC0146E050E084E0A3CFFC
:101E9000BC0143E050E084E09ECFA0E0B0E0E3E589
:101EA000FFE00C94C633182F092FB62EA72E7A0107
:101EB000809144029AE0C92ED12C8A3018F0CC24AB
:101EC000C394D12CC1E0D0E06B2D7A2D812F902FBF
:101ED000F7010995811116C02196CC16DD0694F004
:101EE000CC9FC001CD9F900D900D112420E030E0DB
:101EF00045E34A95F1F700002F5F3F4F2817390758
:101F0000B9F7E2CFCDB7DEB7EAE00C94E2339091B7
:101F1000E20592FB222720F9281771F080FB92F945
:101F20009093E2056091E1057091E20584E090E014
:101F30000E94133582E049C808951F93CF93DF9321
:101F4000962F122F632F8430D8F49C30C8F447307A
:101F5000B8F4C42FD0E0CC0FDD1F2EE0929FC00D4F
:101F6000D11D112498EA899FC00DD11D1124CE01E5
:101F700089960E94F934612FCE018A960E94F93425
:101F8000DF91CF911F9108950F931F93CF93DF930C
:101F9000962F142F022F632F843018F5923008F5F6
:101FA00028E0829FE001112434E0939FC0011124B6
:101FB000C80FD91FC753DD4F81E084279E01280F2A
:101FC000311D280F311DC9010E94F93481E090E0D4
:101FD000111102C083E090E0602F8C0F9D1F0E94C2
:101FE000F934DF91CF911F910F9108958F929F92B5
:101FF000BF92CF92DF92EF92FF920F931F93CF93F6
:10200000DF9306EC14E0E12CF12CC0E04701D0E0B6
:1020100014C0F601259134914B2D6D2F8C2F8DDF3F
:1020200022E0C20ED11CB39437E0B312F2CF87E0A6
:10203000880E911CDF5FDC3049F0C401880F991FC6
:102040009C012A5D3D4F6901B12CE3CFF801259138
:10205000349141E060E08C2F97DFF80132962591B2
:10206000349140E060E08C2F8FDFF80134962591A9
:10207000349141E061E08C2F87DFF801369625919D
:10208000349140E061E08C2F7FDF085F1F4FCF5F0E
:1020900034E5E30EF11CC43009F0B8CFDF91CF91E5
:1020A0001F910F91FF90EF90DF90CF90BF909F9086
:1020B0008F9008958091DB059091E305892B4091E5
:1020C000DC05411589F090E024E332E0F90150810C
:1020D0002F5F3F4F51119F5F52E02A333507B1F711
:1020E00091111092DC05842B8093320248E050E07D
:1020F00069E975E082E392E00E94C234892BB9F06D
:1021000088E0E2E3F2E0A9E9B5E001900D928A955A
:10211000E1F7E0919705F0919805309741F0028042
:10212000F381E02D309719F082E392E0099508954C
:10213000811531F09091DB05892B8093DB05BACFB7
:102140000895811519F00E94FC07B4CF0895A0E00E
:10215000B0E0EDEAF0E10C94C833FA0169017801CE
:10216000C82F880FDD0B3097B9F0DE0193E0AA0F7E
:10217000BB1F9A95E1F7A25DBE4F11968D919C9180
:10218000129786599A4F2C91422F50E0E217F10591
:1021900008F4AF010E94CF34CE010E943C33182FC7
:1021A0008115D9F0E114F104C1F083E0CC0FDD1FFB
:1021B0008A95E1F7FE01E25DFE4F8381482F50E0F2
:1021C000E816F10408F4A701C25DDE4F6C817D8141
:1021D00066597A4FC6010E94CF34812FCDB7DEB742
:1021E000E8E00C94E433A1E0B0E0E9EFF0E10C9416
:1021F000BE33762E4A015901680101E010E09E01CC
:102200002F5F3F4F40E050E060E070E0A0DF182F0C
:10221000811599F1F4012080318042805380F3DBF5
:10222000698062197309840995096436710581050D
:10223000910528F4B701C601EDDA8615F1F08701A2
:10224000950140E050E060E070E0872D80DF082FCE
:10225000B701C601DFDA10E086110AC0102F117035
:1022600000FF06C0D0DBF401608371838283938317
:10227000812F2196E2E10C94DA33A701B601C50162
:102280000E94CF34F5CFA6E0B0E0E9E4F1E10C9490
:10229000C8336B0186E0E82EF12C0BE615E09E01B9
:1022A0002F5F3F4F46E655E061E080E09CDF8115FF
:1022B00049F096E0FE013196A0E6B5E001900D925E
:1022C0009A95E1F796E0E0E6F5E0D60101900D92EF
:1022D0009A95E1F72696E8E00C94E4334F925F92EA
:1022E0006F927F92AF92BF92CF92DF92EF92FF9266
:1022F0000F931F93CF93DF93F82EEB01A42ED22ED2
:10230000E32EB02EC12E488059806A807B807BDB13
:102310006419750986099709643671058105910567
:1023200010F4A11489F000E010E020E030E04B2D23
:102330005C2D6D2D7E2D8F2D0ADF811531F063DB35
:10234000688379838A839B8381E0DF91CF911F919A
:102350000F91FF90EF90DF90CF90BF90AF907F9064
:102360006F905F904F9008950F931F93CF93DF93DB
:10237000D82FC92F46E050E061E775E00E94C234D3
:1023800041E0892B09F440E006E010E02D2F3C2FBE
:102390006CE575E082E0A2DFDF91CF911F910F9194
:1023A0000895ABE0B0E0E7EDF1E10C94CC3328E028
:1023B000E3EDF5E0CE010196DC0101900D922A9546
:1023C000E1F73091D0052091D1055091D2053987A0
:1023D0002A875B8741E09C01511101C040E00BE07E
:1023E00010E06EE475E087E079DF81111092D2058C
:1023F0002B96E4E00C94E833A8E0B0E0E2E0F2E1F0
:102400000C94CA3388E0E82EF12C08E715E09E0111
:102410002F5F3F4F48E555E064E083E0E4DE182F8E
:102420008115B1F19091770580915705981781F149
:10243000F12C90917B0580917A05891719F1E92F8C
:10244000F0E0E259FA4F868587FB662760F99F5FC7
:10245000937090937B05909179059F5F9093790598
:102460008F776AD9F82E8111E4CF00E010E020E0E8
:1024700030E040E050E060E070E085E068DE1F2D75
:10248000182302C0F110F1CF809177058093570592
:10249000812F2896E6E00C94E633A4E0B0E0E3E573
:1024A000F2E10C94C833C0905205D0905305E090EF
:1024B0005405F0905505A7DA6C197D098E099F091E
:1024C00011E0643671058105910508F1A8DADC0197
:1024D000CB010296A11DB11D89839A83AB83BC8376
:1024E00000E010E020E030E044E050E0BE016F5F2B
:1024F0007F4F86E02CDE182F811549F084DA609337
:102500005205709353058093540590935505812F80
:102510002496E8E00C94E4330F931F93CF93DF935A
:10252000843030F56C3020F5473010F5C42FD0E002
:10253000CC0FDD1F2EE0629FC00DD11D112438EAA3
:10254000839FC00DD11D1124CE0189960E94D834DD
:10255000082F10E0102F0027CE018A960E94D83451
:102560009801282BC901DF91CF911F910F910895F8
:1025700080E090E0F8CFFF920F931F93CF93DF930B
:10258000F42E843070F5623060F528E0829FE0011F
:10259000112434E0639FB0011124C60FD71FC75325
:1025A000DD4F81E084279E01280F311D280F311D4A
:1025B000C9010E94D834082F10E0102F002781E0B5
:1025C00090E0F11002C083E090E08C0F9D1F0E940C
:1025D000D8349801282BC901CDB7DEB7E5E00C94BB
:1025E000E73380E090E0F8CF7C3038F4673060F477
:1025F000843050F4462F672F8FCF7D3F41F46230F7
:1026000018F441E0843050F080E090E008957C3F81
:10261000D9F76230C8F78430B8F740E0ACCFA0E01B
:10262000B0E0E5E1F3E10C94C9337C010091DF05F2
:102630008091DE05082BC3E0D0E010E0C8010C2E2D
:1026400002C0959587950A94E2F780FD09C021970D
:10265000A8F7D12C8D2DCDB7DEB7E7E00C94E5338C
:10266000DC2EB7018C2FC0DF0E94F408019779F3AC
:10267000F1CF0F931F93CF93FC01858100811181CE
:10268000811581F0611571F0C801C9DFC82F682F6D
:10269000C8010E948C07B8018C2FA6DFCF911F9133
:1026A0000F910895C8010E94A507C82FF4CFCF93BA
:1026B000DF93D82FC92FB3DF6D2F7C2F95DF0E94BA
:1026C000F408DF91CF910895FC018481811599F080
:1026D00080819181ECDF282F92959F70963099F040
:1026E00060F4925F9F70923030F4203FB1F038F484
:1026F00081E0283E38F080E008959A5FF3CF81E0D2
:10270000243FC9F7089591E0213F09F090E081E06E
:10271000283E08F080E0892B089581E008950F930A
:102720001F938B019C01073111402105310540F4B5
:10273000CB0187519D4F0E94D8341F910F9108956E
:1027400080E0FBCFCF92DF92EF92FF92CF93DF93A7
:10275000EC01C880D980EA80FB80C701B601DFDFC9
:102760009FEFC91AD90AE90AF90AC882D982EA820E
:10277000FB82DF91CF91FF90EF90DF90CF90089593
:1027800085E290E00E94D834853289F486E290E0B8
:102790000E94D834883059F487E290E00E94D834FF
:1027A00091E0803209F090E0892F8170089580E0F7
:1027B000FCCFA0E0B0E0EFEDF3E10C94C033FC01FE
:1027C0006280448081E08483E9EEFAE07490E8E678
:1027D000FBE0E491C091D605C695C158D0E0CC0F7E
:1027E000DD1FCD2FDD27812C25E0922EAA24AA946F
:1027F000B12C55245A94E719EE2EF12C80911E012C
:10280000881638F00E94B60ACDB7DEB7E0E10C9426
:10281000DC33C82CD12C83E0681658F4989CF00166
:102820001124EC54FD4F8091D40580838091D5050F
:10283000818341101CC09C9CF0019D9CF00D1124D3
:10284000EC54FD4F1382128280911C019601280FD7
:10285000311D9C9CF0019D9CF00D1124EC54FD4F0A
:102860004281618180810E94970A8394C7CF9C9C9A
:1028700080019D9C100D11240C541D4FF801838183
:102880008115F1F081508383589EC0011124648129
:1028900070E00E94AA33FB01FF27E751F54F8491B6
:1028A000E82FE7195E9EC0011124B7010E94AA33E8
:1028B0008091D605689FB0011124F8017283C4CFBE
:1028C0000E949E34B5010E9401348C179D070CF0C4
:1028D000BBCFF3E06F1698F00E949E34B5010E94C2
:1028E0000134F80180830E949E342091D5052695FD
:1028F000622F70E00E940134280FF80121839C9C14
:10290000F0019D9CF00D1124EC54FD4F128280913A
:10291000D605893C58F088EC9C9CF0019D9CF00DFC
:102920001124EC54FD4F848383838ECF8431A0F730
:1029300084E1F2CF0F93CF93DF93C3EDD5E04881CD
:1029400059816A817B8188E090E00E940B35288163
:1029500039814A815B816C817D818E819F8100E21A
:102960000E943C34622F83E290E00E94F934DF91B0
:10297000CF910F910895E3EDF5E085E0808311821A
:102980008FEF828383831482E0EDF5E082818360A0
:10299000828383ED95E0CECF8091D705833018F404
:1029A0008F5F8093D70583ED95E0C4CF8091D705E5
:1029B000811519F081508093D70583ED95E0BACF4A
:1029C000A0E0B0E0E6EEF4E10C94C933D82F062F76
:1029D000142FE22E3091D30530FF35C08091D405FD
:1029E0008D1308C09091D505961304C09091D6051B
:1029F000941729F09091D20592609093D205E32F1D
:102A0000E695E695AE2FB0E0AB57BE4F9C91909304
:102A1000D0053C7F3430E1F46D2F702F812F0E9460
:102A2000100A962F672F482F892F0E94D00A8D2FCA
:102A30008093D4050093D5051093D605E11419F0C1
:102A400083ED95E077DFCDB7DEB7E7E00C94E533B3
:102A5000923019F41091D605EACF963049F39930A7
:102A600039F39F3021F7EF508E2F8170D82EE695E5
:102A7000F0E0E751F44FC491F12C60911E01F6167D
:102A800018F00E94B60AD3CFFC9EC001112470E05A
:102A90000E94AA338D2FD1100CC0860F20911C01EB
:102AA0002F0D3327331F412F602F0E94970AF39475
:102AB000E4CF861BF3CFE3EDF5E0818121E0438194
:102AC0006281885F7DCFE3EDF5E0818121E0438184
:102AD0006281885075CFE3EDF5E0628128E0620FF6
:102AE00008F46FEF21E0438181816ACFE3EDF5E0E7
:102AF000628128E0621B08F460E021E0438181816B
:102B00005FCFE3EDF5E0438128E0420F08F44FEF9B
:102B100021E06281818154CFE3EDF5E0438128E03B
:102B2000421B08F440E021E06281818149CFAB0182
:102B300024E630E0BC0188E70E9470319C0181E00E
:102B4000232B09F080E0089580910E05811561F036
:102B500080910D05811541F062E070E08FE891E011
:102B6000E6DF811110920D05089580910E05811503
:102B7000F1F00E94030DDC01CB0180529C46AB4F6B
:102B8000BF4F80930F0590931005A0931105B0934C
:102B9000120580910D0581110AC062E070E08DE898
:102BA00091E0C5DF811519F081E080930D0508954E
:102BB0001F93CF93DF93982F162F81E09A3019F04F
:102BC0009D3031F480E084D0DF91CF911F91089542
:102BD000C0910A03D0910B0386E0FE01AEEAB2E099
:102BE00001900D928A95E1F7903E90F186E0FE010A
:102BF00011928A95E9F7C0910A03D0910B03111144
:102C000033C046E050E0BE018EEA92E00E94C2343A
:102C10009E012C503340892B91F52A5F3F4F409104
:102C20001305642F70E0C9010E94AA33481B463087
:102C300010F4240F311D211572E0370710F020E049
:102C400030E0245F3C4F30930B0320930A03BCCF4A
:102C5000F6E09F9FB001112467557A4F46E050E09F
:102C6000CE010E94AC34C7CF9E012A5F3F4FFE01C8
:102C70002E173F0731F2808180958193F9CFC901EA
:102C800045E0969587954A95E1F741E050E0BA0115
:102C900002C0660F771F8A95E2F7CB0160910803A7
:102CA00070910903862B972BB9016B5F7F4FE5E08D
:102CB00076956795EA95E1F702C0440F551F6A952E
:102CC000E2F7842B952B9093090380930803A5CFFB
:102CD000CF93382FE0910A03F0910B03EC50F340AF
:102CE00020911305622F70E0CF010E94AA33281BA8
:102CF000822F311561F066E00E94F533C82FC15074
:102D000010F4CF91089560E080E252DFF8CF8E0F8B
:102D10009F2F911D811522E0920710F080E090E036
:102D2000845F9C4F90930B0380930A03EACF1F9319
:102D3000CF93DF93EC01162FFE018491811104C023
:102D4000DF91CF911F910895612F32DF2196F4CF4B
:102D5000EEDF81E0BDCFA0E1B0E0E1EBF6E10C9465
:102D6000C033FE01319680E1DF011D928A95E9F7BB
:102D700002E110E099EEA92E92E0B92E27E1422E51
:102D800055245394612C712C4F0173016201B1E100
:102D90004B165104610471041CF080E1C82ED12C43
:102DA000A601B501C4010E94EA34AC0CBD1C0D2C77
:102DB000000CEE08FF084C185D086E087F080150F3
:102DC000104019F76096E0E10C94DC336FEF85E278
:102DD00090E00E94F9346FEF86E290E00E94F934AF
:102DE0006FEF87E290E00E94F93460E088E290E0C3
:102DF0000E94F934FBD8AFDF65E285E290E00E94E3
:102E0000F93468E086E290E00E94F93460E287E2FB
:102E100090E00C94F9348F929F92AF92BF92CF9230
:102E2000DF92EF92FF920F93CF93DF9388E090E0D1
:102E30000E94E0344B015C01C3EDD5E068839982C8
:102E4000AA82BB821C821D821E821F8283E290E0C6
:102E50000E94D834282F30E040E050E060E070E07D
:102E600080E090E000E20E942134282939294A2993
:102E70005B29288339834A835B836C837D838E83BC
:102E80009F83DF91CF910F91FF90EF90DF90CF90D4
:102E9000BF90AF909F908F9008951F921FB61F9282
:102EA00011248F939F93AF93BF9380911605811147
:102EB00013C080915A0290915B02A0915C02B09184
:102EC0005D024196A11DB11D80935A0290935B0251
:102ED000A0935C02B0935D02BF91AF919F918F91DF
:102EE0001F901FBE1F9018952FB7F89480915A021B
:102EF00090915B02A0915C02B0915D022FBF08959A
:102F0000CF93DF9380919305811521F0EDDFDF9161
:102F1000CF9108950E940F0DEB01862F9D2FF7CFC3
:102F20006091D3056695669570E04BE050E08BE0CC
:102F300091E00E94B534892B19F481E08093D1058A
:102F4000DFDF90932905809328058091D205846066
:102F50008093D20508959091D30590FF31C08115DB
:102F600081F1803280F58F73880F880F9091D3059F
:102F70009370892B8093D3058091D20581608093D3
:102F8000D205611519F083ED95E0D4DC6091D3058D
:102F90006695669570E04BE050E08BE091E00E9412
:102FA000B534892B91F00E94110B81E080932B05A1
:102FB00020E04091D6056091D5058091D40500CDE3
:102FC000089581E0D1CF8FE1CFCFAADFEECF8091FE
:102FD000D305869586958F5F803208F081E061E0A9
:102FE000BACF8091D305869586958A9509F48FE1AD
:102FF00061E0B1CFCF93DF93EC0176DF8C1B9D0BAB
:10300000DF91CF9108952F923F925F926F927F92BE
:103010008F929F92AF92BF92CF92DF92EF92FF92E8
:103020000F931F93CF93DF9380910E05811509F4C1
:1030300077C0C091AC02D091AD0256DF8C1B9D0BC6
:10304000C29708F44EC050DF9093AD028093AC025B
:1030500080E00E94090E80919305811509F47AC0E1
:1030600060E080EA95E063DE8091DE050E9405075E
:10307000811539F0813009F160E080E995E057DE93
:1030800004C060E08AE995E063DE60E08DE895E0E9
:103090004EDE60E087E895E05BDE8091DF050E9410
:1030A0000507823009F44EC060F0833009F44EC049
:1030B00060E08FE695E04CDE08C060E084E995E0D2
:1030C000E3CF60E081E895E032DE60E08CE695E0F9
:1030D0002EDE0E94750C81FB662760F986E695E07E
:1030E00037DE8091080390910903892B09F07FC096
:1030F00080910D058115A1F00E94030D00910F052F
:10310000109110052091110530911205601B710B73
:10311000820B930B6F3F7F4F8F4F9F4708F414DD57
:10312000DF91CF911F910F91FF90EF90DF90CF90A3
:10313000BF90AF909F908F907F906F905F903F90E7
:103140002F90089560E08BE795E0BECF60E085E7C3
:1031500095E0BACF83E00E94090E60E083EA95E033
:10316000F7DD84E00E94090E87E00E94090EA0911D
:103170000A03B0910B039D012C503340BD016C58E4
:103180007240613082E0780710F060E072E04091B8
:10319000080350910903E6EEF4E0EE24E394F12CE9
:1031A0002617370740F050930903409308038DE03A
:1031B0000E94090E96CF84919D918917A1F08D01EF
:1031C00001501109E8018883C901C5E096958795EA
:1031D000CA95E1F7E70102C0CC0FDD1F8A95E2F73F
:1031E000CE014C2B592B2F5F3F4F3196D9CF809179
:1031F0000E05811509F47CCF80910C05811178CFE3
:10320000B4DC20910803309109032115310509F43C
:103210006FCF10E041E050E0812F90E01A01012EC5
:1032200002C0220C331C0A94E2F7B101622373231B
:10323000672B11F41F5FF0CF2091140520FF94C07D
:10324000912F990F990F990F37E0390F80E023E004
:1032500090930601809309013093070120930A019E
:1032600024E630E047E050E064E071E088E70E9447
:103270002631892B09F03CCFD0E21D9FA0011124FB
:103280008091140580FF7CC0ECE8F2E080E2DF0171
:103290001D928A95E9F7A1E8B1E00DE711E085E814
:1032A000C82E81E0D82E97E0592E772473948D9103
:1032B000E80129918E01240F352F311D245F3C4FE9
:1032C000E82FF0E0E457FD4F80E090E0652C681AAD
:1032D000872C082E01C0880C0A94EAF77901A12CEA
:1032E000E701B9907E01B820662D6A19677070E019
:1032F000DB2D062E01C0DD0F0A94EAF79D2E719595
:10330000619571096770772701C0B6946A95EAF7ED
:103310009B286081962A9082A39468E0A612E0CF51
:10332000019631968830910589F6CA16DB0609F0B8
:10333000BECF04E610E020E230E04CE852E060E46A
:1033400088E70E94B631892B09F0D2CEE101C09501
:10335000D09580910803909109038C239D2390932D
:10336000090380930803C4CE969587959695879513
:10337000282F912F9295990F90763FE1390F68CFC2
:10338000445F5C4F04E610E020E230E0D8CFACDDD3
:103390002091CA053091CB05232B211521F0809374
:1033A0003E0590933F052091CC053091CD05232B10
:1033B000211521F080933C0590933D05E091970500
:1033C000F0919805309759F00680F781E02D3097FD
:1033D00031F082E08093C80588EC95E00995089566
:1033E000611509F449C0E3E3E80FE33150F4F0E07C
:1033F000EA57FA4C0C9414340E94300C8195809357
:10340000CB05C5CF0E94300CFACF0E94300C8195BD
:103410008093CA05F6CF0E94300CFACF0E94500C60
:103420008093CC05EECF0E94500C8195F9CF0E947D
:10343000500C81958093CD05E4CF0E94500CFACFBB
:10344000815D990B21E030E001C0220F8A95EAF7F7
:103450008091C905822B8093C905D3CF8091C70580
:1034600081608093C705CDCF8091C7058260F9CF79
:103470008091C7058460F5CF4091CA058D3C59F411
:103480008091CB0587FF0DC01092CB05411559F4F3
:103490001092C60508C08E3C81F48091CB051816A9
:1034A0009CF3411581F08091CC059091CD05892B3D
:1034B0008111A7CF1092C505A4CF8F3C41F447FFDF
:1034C000F0CF1092CA058091CB058115E0CF803DE9
:1034D00019F41416B4F3E5CF9091CC05893D29F485
:1034E0001916FCF61092CC05DCCF8A3D19F497FF33
:1034F000D8CFF8CF9091CD058B3D29F497FFD1CF50
:103500001092CD05CECF8C3D19F41916CCF3C9CF4E
:103510009FE2980F983090F4815D990B21E030E0A4
:10352000B90102C0660F771F8A95E2F7CB0180953B
:103530009091C90589238093C905B3CF8D3D31F49E
:103540008091C7058E7F8093C705ABCF8E3D21F458
:103550008091C7058D7FF7CF8F3D09F0A2CF809175
:10356000C7058B7FF0CFCF93C82F8115B1F08CEFBB
:103570008C0F813AA0F4E4E3F2E08AE392E0219137
:10358000C21709F43EC08E179F07C9F76C2F82E35C
:1035900092E00E94D80C0E945A10CF91089580E2C8
:1035A0008C0F883068F4C77021E030E001C0220F32
:1035B000CA95EAF78091DB05822B8093DB05EBCF80
:1035C0008BE58C0F833038F42C2F2452330BC90138
:1035D0000E94880CE2CFE8E5EC0FEB3150F4F0E00C
:1035E000EE0FFF1FE650FE4F808191810E94B00CCC
:1035F000D4CF83E38C0F833180F661E08C2FF0DE33
:10360000CCCF6C2F82E392E00E94F20C0E945A1001
:10361000BDCF811579F19CEF980F913A38F4682F5E
:1036200082E392E00E94F20C0C945A1090E2980F00
:10363000983050F4877091E001C0990F8A95EAF7AD
:10364000892F0E94FC07F0CF9BE5980F933020F460
:1036500080E090E00C94880C98E5980F9B3120F462
:1036600080E090E00C94B00C93E3980F933110F449
:1036700060E0B6CE08950F931F93CF93C82F8B01B0
:1036800072DF0115110531F48C2FC3DFCF911F912B
:103690000F9108958FE99FE00197F1F700C00000B6
:1036A00001501109EECFCF931092DB05C6E0E4E3A1
:1036B000F2E0DF018C2F1D928A95E9F780E090E01F
:1036C0000E94880C80E090E00E94B00C1092E3050C
:1036D0000E945A10E8ECF5E0DF011D92CA95E9F767
:1036E0001092C6051092C5051092C70550DECF9105
:1036F0000895D9DF2FEF84E39CE021508040904073
:10370000E1F700C0000088E19AE00FB6F894A895B0
:10371000809360000FBE90936000FFCFAAE2B0E0FC
:10372000E4E9FBE10C94CD338AE492E0FC010196DC
:103730002091F100208322E082359207B9F7809131
:103740004B02893009F459C0C8F4823009F4B6C07C
:10375000833009F485C0813089F18091E80083FFCE
:10376000EAC080914A0290914B029A3008F0E3C07F
:10377000E92FF0E0E756FA4C0C9414348A3009F43F
:103780008CC08B3051F780914A02813231F78091A1
:103790004E0290914F02892B01F78091E800877FBC
:1037A0008093E8000E949A0D81E090914C02911163
:1037B00001C080E08093180176DFCFCF80914A026C
:1037C000813A59F68091E800877F8093E8008091E4
:1037D0004E0290914F02892B61F060E080E090E012
:1037E00070E00E94410D8091E8008B778093E800A3
:1037F000B4CF68E082E592E0F3CF80914A02813253
:1038000009F0ABCF80914E0290914F028D7F892BB2
:1038100009F0A3CF8091E800877F8093E800809132
:10382000E80082FF18C09091F3008091F2000297A7
:1038300031F48091F100813011F0863021F48091D3
:10384000F100809317018091E8008B778093E80066
:103850000E949A0D82CF80914D058111E0CF7DCFDE
:1038600080914A02813A09F078CF80914E0290917E
:103870004F02892B09F071CF8091E800877F8093F8
:10388000E8008091E80080FFFCCF809118018093D0
:10389000F1008091E8008E77D9CF80914A02813281
:1038A00009F05BCF8091E800877F8093E8000E9459
:1038B0009A0D80914D02809316014FCF80914A025C
:1038C000813A09F04ACF8091E800877F8093E80031
:1038D0008091E80080FFFCCF80911601D8CF80381E
:1038E00089F0823841F580914E028F70873018F54B
:1038F0008093E9008091EB0085FB882780F9109286
:10390000E90006C080911705880F90914702892B26
:103910009091E800977F9093E8008093F1001092D7
:10392000F1008091E8008E7723C0811116C080914C
:103930004C02813011F18091E80083FF0AC0809130
:10394000E800877F8093E8008091EB00806280939D
:10395000EB00AA96E3E00C94E933823061F78091A2
:103960004C02811589F01092E9008091E800877F70
:103970008093E8000E949A0DDECF81E0933009F039
:1039800080E080931705EFCF80914E028F702FEF6C
:10399000280F263080F68093E9002091EB0020FF6D
:1039A000E2CF933031F48091EB0080628093EB00A2
:1039B000DACF9091EB0090619093EB0021E030E042
:1039C000A90102C0440F551F8A95E2F74093EA000F
:1039D0001092EA008091EB008860E8CF8111ABCFB4
:1039E00010914C021F778091E3008078812B8093A7
:1039F000E3008091E800877F8093E8000E949A0DA1
:103A00008091E80080FFFCCF8091E3008068809384
:103A1000E30083E0111101C082E080934D058BCF5C
:103A20008058823008F087CF80914C0290914D02EF
:103A30008C3D53E0950799F583E08A838AE2898378
:103A40004FB7F894DE01139620E03EE051E2E32FF9
:103A5000F0E050935700849120FF03C082958F704F
:103A60003F5F8F708A30C8F0895C90E08D939D93A2
:103A70002F5F243161F74FBF8091E800877F8093EB
:103A8000E8006AE270E0CE0101960E94410D80914B
:103A9000E8008B778093E8004ECF805DE6CF292F3A
:103AA00033272330310509F44EC078F52130310534
:103AB00009F47DC08BE590E0E1E9F1E022303105C9
:103AC00009F039CF2091E800277F2093E80020916A
:103AD0005002309151028217930708F49C0140E094
:103AE0002115310509F068C0411166C08091E800D8
:103AF00082FDCDCF80914D05811549F2853039F297
:103B00008091E80083FFF2CFC2CF80914E02909166
:103B10004F022132310509F43BC02232310509F050
:103B20000ACF8330910508F006CFFC01EE0FFF1F8E
:103B3000EF58FE4F0190F081E02D82599E4FDC013D
:103B40008C9190E011C09C013327813089F02230A4
:103B50003105B1F0232B09F0EECEE2E2F2E0E49180
:103B60008E2F90E0E2E2F2E0009709F4E4CEAACFD3
:103B7000ECE0F2E0E4918E2F90E0ECE0F2E0F4CFA4
:103B8000EEEFF1E0E4918E2F90E0EEEFF1E0ECCF7C
:103B90008330910508F0CFCEFC01EE0FFF1FE958EE
:103BA000FE4F0190F081E02D89E090E08BCF82E123
:103BB00090E0ECEEF1E086CF80914D05811509F49F
:103BC00066CF853009F463CF8091E80083FD5FCF35
:103BD0008091E80082FD8ACF8091E80080FF80CF4D
:103BE0009091F3008091F2002115310519F0883091
:103BF000910550F041E0089709F040E08091E8001D
:103C00008E778093E8006CCF44914093F100319619
:103C1000215031090196E8CF803809F08CCE80918F
:103C2000E800877F8093E800809148028093F1004C
:103C300078CE811180CE10914C02123008F07BCEEC
:103C40008091E800877F8093E800109348020E94EB
:103C50009A0D1115F9F084E080934D0542E061EC76
:103C600081E00E941C0E42E261EC84E00E941C0E86
:103C700042E261EC82E00E941C0E42E260EC83E0D2
:103C80000E941C0E80914D05843051F482E0809397
:103C9000190151CE8091E30087FDDDCF81E0DCCFBB
:103CA00081E0F5CFEF92FF920F931F93CF93DF93B5
:103CB000C62FD42F122F8115A1F06093CE0514D9F1
:103CC0009093460280934502C77081E001C0880F3F
:103CD000CA95EAF70E949810CDB7DEB7E6E00C94DB
:103CE000E6338091CE05681332C0E0904502F09033
:103CF0004602FAD88E199F09883C910540F500E2EA
:103D00000D0FCD17A9F0C770FF24F3948F2D01C0BC
:103D1000880FCA95EAF70E94A110083048F48D2F49
:103D2000877001C0FF0C8A95EAF78F2D0E949810CA
:103D30006AE070E0812F9FDC083070F6D77081E078
:103D400001C0880FDA95EAF70E94A110C5CFC770AD
:103D500081E001C0880FCA95EAF7F6CFA4E0B0E091
:103D6000E4EBFEE10C94C3336C01FC01848181150A
:103D700009F498C061E0C6010E9439138C01F60174
:103D80008581811509F41FC1980137572038310505
:103D900008F033C5003108F075C066E171E080E0DD
:103DA00090E00E948F1381116DC0812C912C5401E1
:103DB000011128C089829A82AB82BC828E010F5F7A
:103DC0001F4FC8010E94A213A02E912E811509F445
:103DD00059C0813009F081C0C8010E94A21381300E
:103DE00029F5C8010E94A21360E570E0893311F043
:103DF0006AE070E040DC8FE39CE90197F1F700C0D6
:103E00000000DFCFF7E18F16F1E09F06A104B104B7
:103E1000C9F1C501B4010E948F132FEF821A920AD3
:103E2000A20AB20A8111EECF0150C2CF823049F40A
:103E3000C8010E94A21397DBEFE3FCE93197F1F789
:103E4000DECF833029F4C8010E94A213E2DBD3CF76
:103E5000843081F4C8010E94A213E12CF12C3AE0D5
:103E6000B32EE82FE053FF0B9F013A97F8F0E114CF
:103E7000F10449F5EFE3FCE93197F1F700C00000E8
:103E800081119FCF8091E0058770811559F0F6016F
:103E90008581811539F08091E20582FF03C082E0BF
:103EA0000E94E5072496EDE00C94DF33BE9CC00130
:103EB000BF9C900D11247901E80EF91E8A2D992DD1
:103EC0000E94A213CECFEFE9FFE03197F1F700C0D7
:103ED0000000F1E0EF1AF108CACFE82FF0E0E35B51
:103EE000F24F7490282F26952695269530E0F901FB
:103EF000E35CF24FE4908770F12C082E02C0F59439
:103F0000E7940A94E2F7E0FAEE24FF24E0F8F901DE
:103F1000E35DF24FA490B12C082E02C0B594A79493
:103F20000A94E2F7A0FAAA24BB24A0F8F901E35E00
:103F3000F24F8490912C02C0959487948A95E2F771
:103F400080FA8824992480F8E114F10441F081EE8C
:103F50000ADB8FE39CE90197F1F700C00000A11490
:103F6000B10441F086EEFFDAEFE3FCE93197F1F7B7
:103F700000C000006AE070E0872D7DDB8FE39CE9E4
:103F80000197F1F700C00000A114B10441F086EEE2
:103F900040DBEFE3FCE93197F1F700C00000E114EA
:103FA000F10441F081EE35DB8FE39CE90197F1F7F5
:103FB00000C000008114910409F403CF6AE070E0AE
:103FC0008CE259DB39CFF801E851FC47E730F105C5
:103FD00008F0EAC3ED55FA4C0C94143426E241EE95
:103FE00061EE60DE4FCF27E245EE65EEFACF26E2C6
:103FF00041EE60EEF6CF27E245EE64EEF2CF26E228
:1040000041EE62EEEECF27E245EE66EEEACF28E221
:1040100041E0EBCF8091E10581608093E105609103
:10402000E1057091E20584E090E00E9413353BDBEE
:1040300029CF8091E20588608093E205F0CF8091DE
:10404000E1058260EACF8091E1058460E6CF80914E
:10405000E1058860E2CF8091E2058160EDCF80913B
:10406000E2058260E9CF8091E1058061D6CF809141
:10407000E1058062D2CF8091E1058064CECF13DB71
:104080008091E1058068C9CF8091E1058C60C5CF42
:104090008091E2058360D0CF8091E1058E7FBDCF16
:1040A0008091E205877FC8CF8091E1058D7FB5CFF4
:1040B0008091E1058B7FB1CF8091E105877FADCF06
:1040C0008091E2058E7FB8CF8091E2058D7FB4CFDD
:1040D0008091E1058F7EA1CF8091E1058F7D9DCFFD
:1040E0008091E1058F7B99CFDEDA8091E1058F77B2
:1040F00094CF8091E105837F90CF8091E2058C7F02
:104100009BCF8091E105992782FF939590FB82F9DF
:1041100090FB83F982CF8091E205982F909590FBD8
:1041200080F990FB81F988CF9091E105892F8F7BF1
:1041300096FF806472CFB7DA9091E105892F97FBE3
:1041400087F980586ACF61E08EE090E00E94F934F0
:1041500066CF60E0F9CF9091E105892F8F7E94FFC3
:1041600080615BCF9091E105892F8E7F90FF816008
:1041700054CF9091E205892F877F93FF88605CCFB1
:104180000737FCE71F0709F064C081E00E94280799
:1041900082C09272F801E052F847EB30F10508F066
:1041A00054C0E655FA4C0C9414348091D30580FF2A
:1041B00011C08E7F8093D30583ED95E00E949A1401
:1041C0000E94110B8091D20581608093D2050E94DC
:1041D000B60A58CE81608093D30561E086958695B6
:1041E0000E94AB174FCE911529F00E94F1174ACECD
:1041F0009115D9F30E94E71745CE911529F00E9439
:10420000631540CE9115D9F30E945B153BCE9115F5
:1042100029F00E94761536CE9115D9F30E946B15C0
:1042200031CE911529F00E948C152CCE9115D9F321
:104230000E94811527CE911529F00E94D61422CE16
:104240009115D9F30E94CC141DCE07372CE7120725
:10425000F9F008373CE7130721F19801205E324559
:104260002032310520F5811139C00F7181E090E0D5
:10427000AC0102C0440F551F0A95E2F78A01642F72
:1042800083E090E00E94F934802F0E941807FACD55
:1042900081E00E941E0743E062E081E00E94BC07CB
:1042A000F1CD811511F082E0F4CF82E06FCF81155E
:1042B000A9F00A355CE7150709F481C008F05BC076
:1042C00001309CE7190709F479C00330ECE71E07B9
:1042D00009F46EC001151C4709F45EC0F601858122
:1042E000E080F180811509F46EC0C7010E940F13B0
:1042F000182F682FC7010E948C07B701812F0E94D9
:10430000F4120E94F4088C01F601B580A680A294F4
:104310002FE0A2228091E0058770811501F1EB2C3E
:10432000B114F1F0812F807F803461F080E2800F42
:104330008830A8F0812F807E803221F4023078F01E
:10434000A11469F08091E20582FF09C082E00E9419
:10435000E5078091E0058770EE24E3948111E12C5C
:10436000E12FE295EF70103C08F095C0F0E0EB54BF
:10437000FA4C0C9414340B352CE7120711F1809190
:10438000E205002482FF0394802D0C351C4709F0C0
:10439000A5CF0E94870FA2CF86D94FEF54E38CE0C0
:1043A000415050408040E1F700C000000E942F0DB6
:1043B0006FEF7FEF80E090E00E9413359AD981E0A3
:1043C000E8CF80E0E6CFC7010E94A507182F95CF60
:1043D000F12FFF70FF2E103118F0F29490EFF922B8
:1043E000B114B9F0F11469F080E2800F883010F058
:1043F000011109C08091DB058F298093DB050E94A4
:104400005A10802F42C08091E3058F298093E305E5
:10441000F6CF802FFED8F11409F43DC080E2800F62
:10442000883010F0011104C08F2D0E94FC0706C0D7
:10443000F0948091E3058F218093E3050E945A1048
:104440002AC0212F2F70F22E107F103219F0F29413
:1044500080EFF822011549F0013009F465C0B1146C
:1044600009F471C0A11499F1CCCF8091E20582FDCD
:104470002AC0B11461F0F11439F08091DB058F2965
:104480008093DB050E945A1080E06DD804C080E064
:10449000C0D8F110C9CFE11409F4B9C08091E0058A
:1044A00080FDB5C0F60115828695869586950E9499
:1044B0001E07C60153DC8091E0058695869586959A
:1044C0000E942807A4C0B11499F0A11004C08F2D38
:1044D0000E949810E0CF31E0A312DDCF8091DC057F
:1044E0009F2D9823F916B9F28F298093DC05D3CF3D
:1044F000A110D1CF8F2D0E94A1109091DC058F2D9E
:104500008923811529F08F2D809589238093DC05DF
:104510008091DD059F2D9823911509F4BCCFF0946F
:10452000F822F092DD05B7CFB11429F046E0A416C9
:1045300008F0B1CFCCCF55E0A51608F0ACCF8F2D49
:104540000E94A110A8CFA114D1F3093361F48FEF19
:1045500097EEE3E081509040E040E1F700C00000BA
:10456000802F57D898CF8FE39CE90197F1F7F6CFCA
:10457000812F869586958370811561F0813009F0D1
:104580008ACFC8019370B11002C080E090E00E9411
:10459000B00C81CFC8019370B11002C080E090E0F0
:1045A0000E94880C78CF6B2D802F0E94F01973CF5A
:1045B000812F8370811138C0B11027C0402F4295E0
:1045C00046954770440F440F802F8F70042E01C012
:1045D000880F0A94EAF7202F207104FF07C02FE00C
:1045E00030E001C0220F4A95EAF7209516951695FE
:1045F00013701230A1F0133081F03091DE051130CC
:1046000059F0822B83230E9418070E94750C60E0EA
:10461000C6010E94391346CC832B822BF4CF822B08
:104620009091DE058927EFCFB11451F110FFEDCF46
:10463000402F429546954770440F440F802F8F704E
:10464000042E01C0880F0A94EAF7202F207104FF7E
:1046500007C02FE030E001C0220F4A95EAF720950D
:10466000169516951370123089F0133069F0309159
:10467000DF05113041F0822B83230E941B07C5CF39
:10468000823018F2D5CF832B822BF7CF822B9091DB
:10469000DF058927F2CF1F70B11439F0812F0E94F6
:1046A0001E07802F0E949810B0CF802F0E94A1106B
:1046B000812F0E942807A9CF023F71F170F4003FBB
:1046C000C9F0013F91F0B11409F455C0A11409F4E7
:1046D0004FC0802F0E94B31A98CF033F21F1043FAF
:1046E00091F79091E20592FD2AC0812F8F71B1144C
:1046F00001F316C0B11469F095E0A91608F085CF52
:104700001F7181E090E0012E01C0880F0A94EAF742
:10471000BECFE6E0AE16F2CF812F8F71B110C9CFB8
:104720000E941E0772CF80E0B11409F4A6CF1F715A
:1047300081E0012E01C0880F0A94EAF79ECFB114E0
:1047400061F0812F8F7192FFEBCF982F990F990F06
:10475000990F93609093E005E3CF81E00E94E50715
:10476000F2E0AF1608F451CF82E00E94E5074DCF8A
:10477000812F8F71D5CFA114A1F0093369F42FEFE8
:1047800037EE43E0215030404040E1F700C00000E8
:10479000802F0E94091B39CF8FE39CE90197F1F725
:1047A000F5CF812F8F7185CF0631FCE71F0709F008
:1047B000E7CC8091CF0565E3811101C069E282E316
:1047C00092E00E94F20C16C09091DB0506312CE7B6
:1047D000120709F0DECC9A7A81E0911101C080E0E5
:1047E0008093CF0565E3911101C069E282E392E015
:1047F0000E94D80C0E945A1045CBF801E851FC47A2
:10480000E730F10508F4E6CB1092CE059801305759
:1048100023323105C8F684E090E00E94E53490939D
:10482000E2058093E105F801E150F047E232F1053D
:1048300008F0F0CBEF53FA4C0C941434809124061A
:10484000803178F480912306811559F0E091E505D7
:104850002091E40530911F0640911E0657E02E136B
:1048600001C008956E2F70E05E9FF0011124DF01FA
:10487000AA51BA4F14968C911497811551F1119643
:104880008C911197831325C08C91841322C01596A7
:104890008C91159781111DC012968D919C91A091BC
:1048A0002006B09121068A1B9B0B883C910588F459
:1048B000809124068F70806180932406E451FA4F22
:1048C00080818F70806180838EE196E047DA0C945E
:1048D000DB07FB013196E770C2CFADE0B0E0E3E764
:1048E000F4E20C94C2338C0186E0F801DE011896E4
:1048F00001900D928A95E1F7F801F58084819EE19F
:10490000892E96E0992E60902206611017C08115BD
:1049100091F0F11409F40EC1C8010E9464138115CD
:1049200009F408C187E0F801AEE1B6E001900D920C
:104930008A95E1F783DFFF24F39455C07080A2804D
:10494000B380D09023062091200630912106A50146
:10495000421B530BD11409F4BDC0483C510508F06B
:1049600076C0811541F380911F06C180E090240636
:1049700050E1E51608F057C0C81214C080911E0619
:10498000871110C0F11049C08E2D8F708061809307
:1049900024068EE196E0E2D980912406F801868310
:1049A000F12C21C0F11039C040E06C2D872D0E9400
:1049B000A60E40E06C2D872D0E94A60EF82E8111C8
:1049C000EFCF888599850E945713292F22952F7044
:1049D000903470F49F70223098F09115A9F0F8018E
:1049E0009681903188F48F2D2D96EEE00C94DE3375
:1049F0002A5F2F70223060F0C801B0D9FD2CF3CFB0
:104A0000911511F0811579F3805E883060F3F4CF51
:104A1000803F48F3815F8330F9CF80912406816025
:104A200080932406BDCFC81238C080911E0687111E
:104A300034C0F11032C0E682C80190D987E0F80195
:104A4000AEE1B6E001900D928A95E1F774CFE09067
:104A50002406F0E1EF1648F48EE196E07FD987E076
:104A6000F40111928A95E9F79BCF811509F463CF80
:104A700090911F06F801818198130FC080911E0646
:104A800087110BC0F11009C0E682C80167D987E021
:104A9000F40111928A95E9F74ECFC8010E94641380
:104AA000811509F447C0F11409F444C0809124062B
:104AB000803208F437CF80911E0690911F069A83AA
:104AC0008983BC82AB826D821E82EF82CE01019609
:104AD00045D928CF483C510508F0C1CF811509F4CC
:104AE0002ACFF11439F190911F068181981318C0D3
:104AF00080911E06871114C08091240680FD9ECFF0
:104B0000803108F49BCF8683807F803F09F494CF67
:104B10008681982F907F905F8F70892B86838CCFB2
:104B2000C8010E9464138111FDCE8091240681602A
:104B300080932406C80112D9FECEABE1B0E0E3EACF
:104B4000F5E20C94CC334E8B5F8B688F798F8A8F14
:104B5000192F9B8F91111092E3051D8A86E0FE01AB
:104B60007696DE011F9601900D928A95E1F70A8DE7
:104B7000011561F00B8B1C8B61E0CE010F960E943A
:104B8000391361E0CE010F960E9439130B8B1C8BF9
:104B900087E0FE013F96DE01189601900D928A95FE
:104BA000E1F7CE01089699DE811128C02091E40535
:104BB0003091E50587E0FE013896DE0111960190FF
:104BC0000D928A95E1F78C858115C1F0822F90E0D6
:104BD00001968770992738171906D9F097E0929FA8
:104BE000D0011124AA51BA4FFE01319601900D92C5
:104BF0009A95E1F78093E4050E94DB0717E0809126
:104C0000E5059091E405891312C06B96E4E00C94DD
:104C1000E8330E94531B1092E4051092E50587E0EB
:104C2000EEE1F6E0DF011D928A95E9F7E7CF189FE4
:104C3000C00111248A519A4F50DE811531F38091C1
:104C4000E50590E00196877099278093E505D7CF19
:104C5000A6E0B0E0EEE2F6E20C94CC330E947417CA
:104C60008C0180919505909196058017910771F0C0
:104C700019821A820E947417BC0149815A8180E00E
:104C800090E05BDF10939605009395052696E4E08F
:104C90000C94E833ACE0B0E0E0E5F6E20C94C83305
:104CA00080E01CEF0DEFFF24F394909131052091EB
:104CB0003005291709F44DC0E92FF0E0EE5CFA4FFA
:104CC000808187FBCC24C0F8D82EE894D7F89F5F6A
:104CD00093709093310590912F059F5F90932F05CE
:104CE00087FD07C0DF8218870E94741723E0E22E39
:104CF00006C0DF8208870E94741732E0E32EBC01F1
:104D000089879A87EB86FC864F8158858E2D91E0A6
:104D100014DF8FE39CE90197F1F700C00000D9820E
:104D2000C114A9F00A830E947417BC018B839C8371
:104D3000ED821E8249815A818E2D90E0FEDE8FE346
:104D40009CE90197F1F700C0000081E0AECF1A8323
:104D5000EACF2C96E8E00C94E433A7E1B0E0E3EB73
:104D6000F6E20C94BF33FE0131968CE0DF011D9218
:104D70008A95E9F785EAE82E81E0F82E8F019BEA13
:104D8000692E91E0792E2F01AA24A394B12C32EB45
:104D9000832E31E0932EF70181917F018F3F09F43B
:104DA0003EC0F894E82FE295EF70F0E021A18F70FB
:104DB000A50102C0440F551F8A95E2F7CA01922F40
:104DC000982B91A392A18095892382A3789400C007
:104DD000EBEAF1E031E0312C21912F3F79F0A22F65
:104DE000A295AF70A05EB0E08C9190E02F7002C0F1
:104DF000959587952A95E2F780FF91C080E0382A43
:104E0000330F8E169F0641F7F70182918F3F11F005
:104E10000E94F20950EA5A95F1F7D8013C920F5FCF
:104E20001F4F6E147F0409F0B6CF4CE050E0B20182
:104E30008AEF92E00E94C2346C01892B41F08CE031
:104E4000F201AAEFB2E001900D928A95E1F700918C
:104E5000070310E00F5B1A4FC114D10409F461C0BD
:104E600081E0809343020E947417909342028093E2
:104E7000410280919305811509F4ADC07E01BDE02A
:104E8000EB0EF11C86E0F70111928A95E9F780910B
:104E900044028A3008F069C043E451E1B701C80117
:104EA0000E944D0F811509F484C044EB51E1B70114
:104EB000C8010E944D0F811509F47BC04CEF51E1F0
:104EC000B701C8010E944D0F811509F472C04DE46D
:104ED00052E1B701C8010E944D0F811509F469C064
:104EE00041ED51E1B701C8010E944D0F811509F450
:104EF00060C0109244028091060390E046E050E0CA
:104F0000B7018F5B9A4F0E94C23421E02093400288
:104F1000892B09F041C06796E1E10C94DB33832FC4
:104F20006ECF80914302811509F4A3CFE090410236
:104F3000F09042020E9474178E199F09059708F499
:104F400098CF46E050E06AEF72E0C8010E94C23498
:104F5000892B41F086E0EAEFF2E0D80101900D9252
:104F60008A95E1F71092430284CFC0903E02D09020
:104F70003F020E9474178C199D09843F914008F0EC
:104F80008BCF80914002811531F286E0D7011D92CE
:104F90008A95E9F710924002A0910603B0E0AF5B5A
:104FA000BA4F86E0FE013D9601900D928A95E1F799
:104FB000B2CF809144028F3F39F40E9474179093CE
:104FC0003F0280933E02DDCF8F5F809344028A30A0
:104FD00008F491CFF2CFE0900603F12CF701EF5BDC
:104FE000FA4F7F0186E0F801ABE6B5E001900D9243
:104FF0008A95E1F766E070E08BE695E00E940A0C86
:1050000080936A0586E0E1E7F5E0D70101900D9213
:105010008A95E1F788E0EEE2F5E0A8E7B5E00190D7
:105020000D928A95E1F768E070E088E795E00E94CC
:105030000A0C80937705C0908005D0908105E090A0
:105040008205F090830580913A0290913B02A091F5
:105050003C02B0913D02C816D906EA06FB06B1F043
:10506000C0923A02D0923B02E0923C02F0923D02A2
:105070000E94030DC61AD70AE80AF90AC0928F05E2
:10508000D0929005E0929105F09292058BE0E4E8D1
:10509000F5E0DE011D9601900D928A95E1F7F09002
:1050A0008505E0908605D090870500918D051091CB
:1050B0008E0510928E05111509F42DCF10FF0DC02D
:1050C0008D8580FF1EC09091D30591609093D3058C
:1050D00060E0869586950E94AB1711FF06C020E020
:1050E0004D2D6E2D8F2D0E94E01412FF04C001156E
:1050F00059F00E94901713FF0ECF81E080932B058B
:105100000ACF0E94180BE9CF0E94110BF4CFCDB744
:10511000DEB7A4970FB6F894DEBF0FBECDBF85B73C
:10512000806885BF85B7806885BF84B7877F84BF67
:105130000FB6F894A8958091600088618093600014
:10514000109260000FBE80E890E00FB6F894809354
:105150006100909361000FBE81E08093190180EFA0
:1051600099E090933102809330020E94EA0D0E94F0
:105170004C0E8091E20084608093E20078948091EC
:105180004D058115A1F08091E900F090EC008F7041
:10519000F794FF24F794F82A1092E9008091E80030
:1051A00083FD0E948E1B8F2D8F708093E90082E01B
:1051B00084BD93E095BD9AEF97BD80936E001092E9
:1051C0008F051092900510929105109292050E9401
:1051D000C013811102C00E94E61688EC90E0209175
:1051E000E30027FD0EC0AFE3BCE91197F1F700C063
:1051F00000000197A1F70E94EA0D10924D0580E092
:1052000001C081E0809393058093940580932101F0
:10521000811509F4D3C010921A0187E080931B0115
:105220000E945732EEE2F5E088E0DF011D928A9598
:10523000E9F78091210191E08927809338058091D9
:10524000210190933B0580912101809121018111E1
:1052500006C085E38093200184EF80931F0160E006
:1052600080E00E94BD0B61E080E00E94BD0BEFE892
:10527000F1E03197F1F700C00000F12C80913B057F
:10528000F81608F4A1C0809121018091210190E0DD
:10529000811101C096E09093070386E0891B8093FB
:1052A000060385EAE82E81E0F82E9BEAC92E91E0FC
:1052B000D92ED7018D917D018F3F11F00E94F20907
:1052C000CE14DF04B1F71BEAE12E11E0F12E02EB60
:1052D000C02E01E0D02EF70181917F018F3F11F0A8
:1052E0000E94F209CE14DF04B1F78CE0E1E4F5E0AE
:1052F000DF01282F1D922A95E9F7EAEFF2E0DF019E
:105300001D928A95E9F780E090E00E94E534833EA3
:105310009E4F21F40E94C01381112BC063EE7EEFDB
:1053200080E090E00E94133560E082E090E00E940F
:10533000F93481E08093DE0561E083E090E00E9433
:10534000F93460E074E184E090E00E9413350E943B
:10535000BB140E94E61640E050E0BA018FE090E0F6
:105360000E940B3540E050E0BA0183E190E00E94DA
:105370000B3582E090E00E94D8348093180584E0D9
:1053800090E00E94E5349093E2058093E105E5DC2E
:10539000EFEFF6E721E0E150F0402040E1F700C0F8
:1053A0000000DBDC8091410580FF20C06FEF7FEFC4
:1053B00080E090E00E9413350E942F0D87E08093DB
:1053C0001A0180931B012ECF60E08F2D0E94E00B0D
:1053D000E82E61E08F2D0E94E00BEF2DF0E0E75CFE
:1053E000FA4F880F8E298083F39448CF83E090E0B2
:1053F0000E94D8340E94180783E08093140580E24D
:1054000080931305EDD66BE070E085E09DE00E948F
:105410009715811509F43FC08091140565E070E08F
:1054200081FDC4C080E09DE00E949715811599F12F
:105430006DE070E08EEE9CE00E949715811559F1A9
:105440000E94030DDC01CB0180529C46AB4FBF4F45
:1054500080930F0590931005A0931105B09312054A
:10546000ECE0F3E080E092E0DF019C011D9221502E
:105470003040E1F7F0930B03E0930A038FEF9FEFC7
:10548000909309038093080381E080930E05809335
:105490000D0510920C0580911505811125C083ED35
:1054A00095E00E940B178091D20583608093D2050E
:1054B0008091D305843030F40E94BB1483ED95E0D5
:1054C0000E940B170E94A80A0E94110B0E94FD0B5C
:1054D0008091D30580FF05C060E0869586950E9487
:1054E000AB1781E08093150580919305811101C070
:1054F000E1D782E291E0909398058093970580919F
:105500004D05B0E4FB2E853009F486C026DCF9E1B8
:10551000EF2EF5E0FF2EA1E4CA2EA5E0DA2ED6018B
:10552000F70191918D9125E235E02E173F0709F49F
:105530007DC09817B1F340909305B12CD601AD9082
:105540006D01F70181917F018A1539F1582E5A2496
:10555000712C66246394852D86218115B9F0411440
:10556000A9F07982BA820E9474179C838B83F1E040
:10557000FD8391E08A2D8621811101C090E09E83F8
:1055800049815A816B817C818D81D7DA7394660C55
:1055900027E07212E0CFF701A292B3943CE0B3127D
:1055A000CDCF0E940F0D7724739444C08BEF9CE005
:1055B0003BCF80914D05843029F10E94A4151092B3
:1055C000160548E150E00FB6F894A89540936000A6
:1055D0000FBEF092600083B7817F846083BF83B782
:1055E000816083BF7894889583B78E7F83BF0FB621
:1055F000F894A89580916000886180936000109273
:1056000060000FBEAADBE1E4F5E08191811120C4C6
:1056100055E0ED34F507C9F780914D05853009F463
:10562000C8CF0E94531B0E94750C70CF981383CF74
:105630000FDB712C8091D105811509F467C0909121
:10564000D005E091D305E695E695E91BE0932A05A0
:10565000923009F071C0F0E0E75EF24FE491EE2E77
:10566000F12CE4E2CE2EEBE0DE2E80912B058115AD
:1056700061F010922B050E9480179093290580936A
:10568000280510922D0510922C050E9480178C0180
:1056900080912805909129059801281B390B2F3FEF
:1056A0003F47A0F5209127052115B9F01092270555
:1056B0002091250530912605A801421B530B4F3F31
:1056C0005F4758F4205D3A4830932605209325051E
:1056D0002091D20528602093D205A0902C05B0908F
:1056E0002D058E0D9F1D909329058093280588E236
:1056F00095E0F601099580912C0590912D05892B57
:1057000029F4AB2819F0F1E0F0932705D090930528
:10571000D11411F0BFDAD82E80915605811551F0C1
:1057200010925605809130058093310580912E05A9
:1057300080932F05C12C7CC0963059F4F0E0EA5ECE
:10574000F24FE491EE2EF12C72E0C72E7BE0D72EC3
:105750008CCF993061F4E695F0E0ED5EF24FE49184
:10576000EE2EF12C67E3C62E6BE0D62E7ECF34EF03
:10577000E32EFF24F39449E6C42E4BE0D42E993156
:1057800009F473CF9A3181F48E2F63E00E94F533D0
:10579000E92FF0E0E05FF24FE491EE2EF12C59EDAD
:1057A000C52E53E1D52E61CF90EDE92E97E0F92E6D
:1057B0002FE0C22E2AE0D22E58CF61E08C2D0E941D
:1057C000E00BF82E60E08C2D0E94E00BFF0C8F297F
:1057D0002C2D30E0D901A75CBA4FEC919E2F93702D
:1057E000891729F1EE0FEE0FE82BEC938091380525
:1057F0008C0DEF70F0E0EE54FE4FA9014A5C5A4F59
:105800007A01B080DA019C91B90EB2E060E0BB167B
:1058100024F4EFEFBE161CF461E00E949C0B8B2D6C
:10582000BB0C990B62E070E0ECD7D7018C93C3946A
:1058300080913B05C81608F4C0CF8091930581156F
:1058400011F028DAD82AD11439F00E940F0D0E94E5
:1058500003180E94B51504C00E9403187110F9CFF7
:1058600086E0E8ECF5E0DE01119601900D928A9554
:10587000E1F77090C905D090CA05C090CB05A09003
:10588000CC05B090CD051092CA051092CB051092B0
:10589000CC051092CD058D2D8C29811509F441C0C0
:1058A000E0903E05F0903F050E9474179C012E1970
:1058B0003F099091C605911509F4C5C225313105FE
:1058C00080F19F3F19F09F5F9093C605D11459F066
:1058D0000E94300C91E01D140CF09FEF899F802DE9
:1058E00011248093CA05C11459F00E94300C91E034
:1058F0001C140CF09FEF899F802D11248093CB0501
:105900008091CA05811569F0F090CB05F11449F03A
:105910000E94220C8093CA058F2D0E94220C809336
:10592000CB058B2D8A29811509F441C0E0903C05F7
:10593000F0903D050E9474179C012E193F0990912B
:10594000C505911509F47AC22135310580F19F3FD3
:1059500019F09F5F9093C505A11459F00E94500C57
:1059600091E01A140CF09FEF899F802D11248093F1
:10597000CC05B11459F00E94500C91E01B140CF0AE
:105980009FEF899F802D11248093CD058091CC05B8
:10599000811569F0F090CD05F11449F00E94220CB8
:1059A0008093CC058F2D0E94220C8093CD05809191
:1059B000C905781219C08091CA05811511F0D81255
:1059C00013C02091CB05211511F0C2120DC090918A
:1059D000CD05911511F09B1107C03091CC05311107
:1059E00003C0822B892B81110E94C71986E0FE011A
:1059F0003196A8ECB5E001900D928A95E1F70E94EE
:105A0000750C90914005891721F0809340050E9404
:105A1000030D80914D05843009F071CD83E08093B2
:105A2000E9008091E80082FF6ACD8091E80090E073
:105A300085FF05C00E94B90D811591F091E080911C
:105A4000E8008B778093E800911509F458CD89819F
:105A5000EFEFE80FE53170F5F0E0ED51FA4CE4C6F8
:105A600080E2E82EF12CFE0131966F018091E80072
:105A700085FD0AC08091E8008B778093E8000E9442
:105A8000B90D811599F3DACF8091F100D6018D938C
:105A90006D01B1E0EB1AF10849F7D0CF1A828CE022
:105AA0008B8319C08A81833081F138F4813061F0B1
:105AB000823019F18FEF89830EC08430D9F71B82B1
:105AC0001C821D821E8207C00E94030DB3D66B8309
:105AD0007C838D839E83E0919705F09198053097A4
